:020000040800F2
:10000000F09301205D02000801570008EB4B000847
:10001000FD560008DD160008596F000800000000BA
:100020000000000000000000000000009D0100082A
:100030000B18000800000000F9010008896800089A
:1000400077020008770200087702000877020008AC
:10005000770200087702000877020008770200089C
:10006000770200087702000877020008770200088C
:10007000770200087702000877020008770200087C
:10008000770200087702000877020008770200086C
:10009000770200087702000877020008770200085C
:1000A000770200087702000877020008770200084C
:1000B000770200087702000877020008770200083C
:1000C000770200087702000877020008770200082C
:1000D0007702000877020008496F000877020008DD
:1000E0000D18000877020008770200087702000860
:1000F00077020008770200087702000877020008FC
:1001000077020008770200087702000877020008EB
:100110007702000877020008770200086569000886
:10012000770200087702000877020008E11600084D
:1001300077020008000000000000000077020008BD
:1001400077020008770200087702000877020008AB
:1001500077020008F116000877020008770200080D
:10016000770200087702000877020008770200088B
:10017000770200087702000800000000000000007D
:100180007702000877020008DFF80CD000F088FF43
:10019000004800478D040508F09301202C4B196896
:1001A0000868B0E8F04F80F30988BFF36F8F4FF015
:1001B000000080F3118870470000000008480068C4
:1001C000006880F308884FF0000080F3148862B65E
:1001D00061B6BFF34F8FBFF36F8F00DF00BF00BF6B
:1001E00008ED00E0DFF80C00016841F470010160E7
:1001F000704700BF88ED00E0EFF30980BFF36F8F19
:10020000134B1A681EF0100F08BF20ED108A20E96A
:10021000F04F106009B44FF0500080F31188BFF325
:100220004F8FBFF36F8F62F0D3FD4FF0000080F36C
:10023000118809BC19680868B0E8F04F1EF0100F6B
:1002400008BFB0EC108A80F30988BFF36F8F704746
:1002500040000020EFF3058070470000064880470B
:1002600006480047FEE7FEE7FEE7FEE7FEE7FEE79B
:10027000FEE7FEE7FEE7FEE7516900088901000896
:100280002DE9F05F0546002092469B4688460646CB
:10029000814640241BE0284641464746224600F05E
:1002A000F5FD53465A46C01A914110D311461846DF
:1002B000224600F047F82D1A67EB01084F46224608
:1002C0000120002100F03EF817EB00094E41201EEE
:1002D000A4F10104DFDC484631462A464346BDE826
:1002E000F09F2DE9F0410024061B254671F1000620
:1002F00005DA01240027D0EB070067EB0101161E89
:1003000073F1000605DA0027D2EB0702012567EB3F
:100310000303FFF7B5FF86460E4617469C46AC42E0
:1003200004D00025D0EB050E65EB010624B10020BA
:10033000D2EB000760EB030C704631463A46634649
:10034000BDE8F081202A04DB203A00FA02F1002007
:1003500070479140C2F1200320FA03F31943904003
:100360007047202A06DBCB17203A41FA02F043EA15
:10037000E07306E041FA02F3D040C2F1200291405E
:1003800008431946704740EA01039B0703D009E080
:1003900008C9121F08C0042AFAD203E011F8013B71
:1003A00000F8013B521EF9D27047D2B201E000F8CA
:1003B000012B491EFBD270470022F6E710B5134609
:1003C0000A4604461946FFF7F0FF204610BD30B537
:1003D00005462A460B4612F8010B13F8014B08B1EB
:1003E000A042F8D01CB1002802D06D1CF1E72846CD
:1003F00030BD421C10F8011B0029FBD1801A704748
:100400000246C9B200E0401C0378002BFBD102E099
:1004100003788B4203D0401E9042F9D200207047EF
:100420000FB400B58DB010A909900B9000914FF05A
:10043000FF300A9000200C90054806900548079070
:100440006A4609A80F9900F045FD0DB05DF814FB50
:10045000F10E00080F0F00082DE9FF5F1D464FF059
:10046000FF3BD5E9014691465F464FF00008A96978
:100470007F1C01988847296A824688470028F6D160
:10048000BAF1FF3F0CD024F4C064002E19DD6006E1
:1004900014D5BAF12B0F09D0BAF12D0F0ED103E00C
:1004A000584604B0BDE8F09F44F48064A9697F1CFD
:1004B00001988847761E8246002E02DDBAF1300F81
:1004C00003D0B9F1000F26D032E0A969761E44F4BA
:1004D00000747F1C019888478246002E05DDBAF122
:1004E000780F06D0BAF1580F03D0B9F1000F10D031
:1004F0001EE0B9F1000F02D0B9F1100F18D1A969AF
:10050000761E24F400747F1C0198884782461020D0
:1005100002E0082000E00A20814609E008FB090803
:10052000A969761E44F400747F1C019888478246AE
:10053000002E05DD4946504600F0B8FC0028EDDAF3
:10054000E96901988847A00502D46FF00100A8E787
:10055000E00725D1600613D5600502D5C8F100007B
:1005600000E0404629680A1D2A600968220501D575
:10057000087015E0220701D5088011E008600FE03F
:100580002868011D29600068210502D580F80080D7
:1005900006E0210702D5A0F8008001E0C0F8008045
:1005A00038467EE72DE9FF5FD2E901A74FF000084A
:1005B000916999461446DDF838B046460198884757
:1005C000054659EA0B0005D009E0A169761C01989F
:1005D00088470546216A284688470028F5D1681CC7
:1005E00003D05FEACA7005D015E04FF0FF3004B0C9
:1005F000BDE8F09F2068011D2160D0F800800AE06E
:100600005FEACA7001D108F8015BA169761C7F1E00
:10061000019888470546002F1ADD681C18D0B9F1EB
:10062000000F0DD0E81705EBD060421120F01F003D
:1006300059F822102A1A012090400142E0D107E027
:10064000BBF1000FDCD1216A284688470028D7D0AB
:10065000E16901988847BBF1000F07D1002E05DD45
:100660005FEACA7002D1002188F80010A068B84281
:1006700003DDBBF1000F03D017B16FF00100B6E747
:100680003046B4E72DE9FF4F087883B09946FF283C
:1006900005D0491C2D2804D00024002008E00020AB
:1006A0000BE00124F9E700EB800003EB4000491C5C
:1006B0000B78FF2BF7D104B140420023029314784A
:1006C00019461D462D2C01D02B2C04D1521C2D2C4B
:1006D00013D000240294AA461478FF2C0FD00A25C8
:1006E000A3FB057801FB05814FF0000C03FB0C1107
:1006F000521CE3194AEB0101EEE70124EAE78144C9
:1007000053EA010002D019F5C87F06DA03980021E8
:10071000C0E9001107B0BDE8F08F0025AE4E2F46AE
:10072000DFF8B882184600F097FCCDE90001B9F176
:10073000000002DAC9F1000400E004460023A74AE1
:100740001AEB030B42EB045A12E0E00707D02A46EB
:1007500033463846414600F0ECF9074688462A46BB
:1007600033461046194600F0E4F905460E4664107B
:10077000002CEAD1DDE90001B9F1000F5A465346D9
:1007800006DA00F048FA3A46434600F044FA05E03B
:1007900000F0CFF93A46434600F0CBF9029A0AB18D
:1007A00081F00041039AC2E90001B3E72DE9FF4F50
:1007B0001F468DB0D7E901464FF0FF382E20454641
:1007C0004FF000090B90B9696D1C0E988847396A83
:1007D000824688470028F6D1BAF1FF3F0AD024F4B8
:1007E000D064002E11DDBAF12B0F08D0BAF12D0F15
:1007F0000BD102E0404611B08DE744F48064B96942
:100800006D1C0E9888478246761E6946600501D5A4
:100810002D2000E02B208DF8000001F1010B0DF1DF
:10082000200809E0B9696D1C0E98884782460F9828
:1008300044F40074761E0560002E02DDBAF1300F1C
:10084000F0D00B998A453ED144F0800406E00F9920
:10085000681CA9F1010944F400740860B9696D1CB1
:10086000761E0E98884782463028F0D02BE00B99F0
:100870008A4505D1200603D444F08004761E18E092
:10088000504607F018FC08B30DF11301761E44F42E
:1008900000748B4508D2AAF130000BF8010B20063A
:1008A00007D5A9F1010003E0200602D409F10100F7
:1008B0008146A00502D50F99681C0860B9696D1CB6
:1008C0000E9888478246002ED1DC53E0002E51DD81
:1008D000BAF1650F02D0BAF1450F4BD1A00549D549
:1008E000B9696D1C24F44074761E0E9888478246C0
:1008F000002E0CDD2B2804D0BAF12D0F07D144F4C3
:100900008074B9696D1C0E9888478246761EE00592
:1009100001D52D2100E02B2108F8011BCDF82C80FA
:1009200021E00DF12901761E44F4007488450CD2B3
:10093000AAF1300010F0FF0088F8000002D10B99F6
:10094000884509D908F1010806E0E00501D52448E9
:1009500001E042F20F708146B9696D1C0E9888471C
:1009600082460F980560002E04DD504607F0A3FB79
:100970000028D6D1F9690E988847FF208BF800002F
:1009800088F800000020069007904B466A4608A9A8
:1009900006A8FFF777FEA00502D46FF001002AE752
:1009A00014F0240F0AD0E00714D1DDE906123868EC
:1009B000031D3B600068C0E900120BE0DDE90601A1
:1009C00000F032FA0146E00704D13868021D3A60AF
:1009D0000068016028460EE7000014400000F03F68
:1009E000F1D8FFFF2DE9FE4F804681EA0300C00FDA
:1009F0000C46009021F0004123F00045B8EB0200C6
:100A0000A94105D24046214690461C460B46024667
:100A100023F00040104347D0270DC7F30A00C3F36B
:100A20000A510290401A019040286BDAC3F3130078
:100A300040F4801B0098924620B10023D2EB030AB9
:100A400063EB0B0B01985946C0F140025046FFF78B
:100A500079FC06460D4650465946019AFFF781FC3F
:100A600010EB08006141002487EA115284EAE77321
:100A70001A4340D0009A62B3019A012A4FEA075202
:100A800015DC001B61EB02014FF0004202EA075245
:100A9000CDE90042001C41F5801132462B4600F0A2
:100AA0008DFA03B0BDE8F08F40462146F9E7001B00
:100AB00061EB0201001C41F5801300185B41201816
:100AC000A2F5001747EB030140EAD570B6196D4156
:100AD00011E06D084FEA360645EAC0754FEA075245
:100AE000001B61EB0201001C41F5801149084FEA2F
:100AF00030000019514132462B4603B0BDE8F04F9B
:100B000000F04DBA0098012240000023D0EB020211
:100B100063EBE073009821464FEAE074B8EB000005
:100B200061EB0401E9E783F000435BE781F00041FA
:100B300058E72DE9FE4F81EA030404F0004421F058
:100B4000004100944FF0000B23F0004350EA0104F1
:100B50005ED052EA03045BD0C3F30A54C1F30A55D2
:100B60002C44A4F2F3340194A0FB0254C1F313010A
:100B700041F48011C3F3130343F4801301FB0244D7
:100B800000FB034E840A970A44EA815447EA8357DC
:100B9000A4FB076802958D0A05FB07854FEA932C95
:100BA00004FB0C542705029D4FEA065847EA163706
:100BB000B5EB08056EEB070C870E920E47EA81171E
:100BC00042EA8312A7FB0201B6EB0B0164EB0004BF
:100BD0002B0D43EA0C335E1844EB1C50DA465146A9
:100BE000E7FB0201C5F313044FEA0B3343EA145346
:100BF0004FEA0432019C43EA0603A4F10C04029478
:100C0000009CCDE900B400F0D9F903B0BDE8F08F45
:100C100000200146F9E72DE9F04D81EA030404F0D4
:100C2000004B21F0004514464FF0000A23F000412C
:100C300050EA050220D054EA01021DD0C5F30A573C
:100C40000246C5F31303C1F31300C1F30A5640F47F
:100C5000801543F48013A7EB0608101BD64608F254
:100C6000FD3873EB050002D308F1010801E092188A
:100C70005B41B8F1000F03DA00200146BDE8F08DBA
:100C800000204FF48011064684460EE0171B73EBDC
:100C9000050705D3121B63EB050306434CEA010C61
:100CA00049084FEA300092185B4150EA0107EDD144
:100CB00052EA030012D082EA040083EA05010843E5
:100CC00005D0101BAB4106D20122002306E0002212
:100CD0004FF0004302E06FF0010253101AEB0600E0
:100CE0004CEB085110EB0A0041EB0B01BDE8F04D55
:100CF00000F055B90EB5C10F80EAE0700844CA078C
:100D0000002140F233438DE80E000A460B4600F006
:100D100055F903B000BD0EB540F2334102910021F8
:100D2000CDE900110A460B4600F048F903B000BDBA
:100D300070B5C1F30A5201F000450024C1F313015C
:100D400040F2FF3341F480119A4201DA002070BD75
:100D500040F233439A42A2F2334203DC524200F0A3
:100D600095F800E090402C43F1D0404270BDC1F3B3
:100D70000A5210B5C1F3130140F2FF3341F4801160
:100D80009A4201DA002010BD40F233439A42A2F2A7
:100D9000334203DC524200F079F810BD904010BDA0
:100DA00000F0004230F000400AD0C10D01F5607142
:100DB000C0F3160042EA0151C208400711437047D0
:100DC000002001467047000030B5041E71F1000498
:100DD00004DB4FF00044404264EB0101141E73F148
:100DE000000405DB1C464FF00043524263EB040352
:100DF0008B4208BF824230BD30B5041E71F1000441
:100E000004DB4FF00044404264EB0101141E73F117
:100E1000000405DB1C464FF00043524263EB040321
:100E2000994208BF904230BD01F0004330B421F038
:100E3000004150EA010206D00A0DA2F56072C1F32A
:100E40001301002A02DC30BC00207047440F44EA42
:100E5000C104C100E01830BC00EBC25000F068B81B
:100E600030B50B46014600202022012409E021FA7A
:100E700002F59D4205D303FA02F5491B04FA02F577
:100E80002844151EA2F10102F1DC30BD202A04DB4A
:100E9000203A21FA02F00021704721FA02F3D040F3
:100EA000C2F1200291400843194670473A2800D207
:100EB000303820F02002412A01D3A2F137008842C5
:100EC00001D34FF0FF30704702681144137801607E
:100ED00018467047D16004495161044911620021EC
:100EE0001161114600F0F4B8C90E0008C5100008E1
:100EF000426842B1016811F8013B23B1521EC0E9BA
:100F00000012184670470121C160881E7047426870
:100F10005AB1C368016843B983688B4205D0491E42
:100F2000521CC0E90012002070474FF0FF3070479C
:100F30000029A8BF7047401C490008BF20F00100ED
:100F4000704710B4B0FA80FC00FA0CF050EA0104CB
:100F500004BF10BC704749B1CCF1200421FA04F45D
:100F600011FA0CF118BF012121430843A3EB0C0136
:100F7000CB1D4FEA00614FEA102042BF002010BC99
:100F8000704700EBC35010440029A4BF10BC704749
:100F9000401C490008BF20F0010010BC704710B58C
:100FA000141E73F1000408DA401C41F1000192188C
:100FB0005B411A4301D120F0010010BD2DE9F04D35
:100FC00092469B4611B1B1FA81F202E0B0FA80F28A
:100FD00020329046FFF7B6F904460F4640EA0A0071
:100FE00041EA0B0153465A46084313D0114653EACF
:100FF000010019D0C8F140025046FFF747FF0546EF
:101000000E46504659464246FFF79CF9084305D024
:10101000012004E020463946BDE8F08D002005435C
:1010200046EAE0762C4337430A986305E40AA0EBCE
:1010300008000022FD0A44EA47540A3002D5002085
:101040000146E9E7010510196941DDE90845001984
:101050006941BDE8F04DA2E70EB540F2334202927D
:101060000022CDE900221346FFF7A8FF03B000BD20
:10107000C1F30A52C1F3130140F2FF3341F480116E
:101080009A4202DA00200146704740F233439A4206
:10109000A2F2334202DC5242FFF7F8BEFFF752B928
:1010A000064C074D06E0E06840F0010394E80700B5
:1010B00098471034AC42F6D3FFF76AF8982B08082B
:1010C000D82B0808C0B24FF4F05100F097B90000D7
:1010D0002DE9F34F8BB04FF0000801F10C000C46E6
:1010E0004FF0010B46460DF1080A0190626901219B
:1010F00001989047051E2DD0252D2CD0216A8847B8
:10110000C0B16269012101989047216A884700288F
:10111000F7D1411E62690198904700E0761CA169F1
:101120000B988847216A88470028F7D1E1690B9816
:101130008847DBE7A1690B9888470746A84201D199
:10114000761CD3E7E1690B9888477F1C02D1B8F180
:10115000000F6FD046E1002762693D46394601988D
:1011600090472A2804D162690121019890470125FE
:10117000DFF884926269012101989047A0F1300163
:101180000A290AD24F45E5DC07EB870100EB41074E
:10119000303FDFD445F01005ECE7E90601D46FF0ED
:1011A00000476C280AD04C2814D0682815D06A282B
:1011B0000DD074281CD07A281AD01DE06269012154
:1011C000019890476C2802D045F0040514E045F0E2
:1011D00002050DE045F020050AE062690121019851
:1011E0009047682802D045F0080505E045F4006501
:1011F0006269012101989047C4E9015765283DD0F3
:1012000019DC58287AD00CDC452837D004DC252896
:1012100026D0412831D131E046282FD047282CD183
:101220002CE05B2877D0612828D063287CD0642804
:1012300023D15AE0D0E06F2848D008DC66281DD0C2
:1012400067281BD0692821D06E2816D127E0702886
:1012500045D0732868D0752847D078280DD14DE047
:10126000A1690B988847054625283FF469AFE169D5
:101270000B9888476D1C3FF46AAFB3E023466A467B
:101280006FF001000B99FFF791FA9EE045F04000E6
:101290006060A80723464FF0000236D43EE0E8071E
:1012A0007FF447AF2068011D21600068290501D542
:1012B00006701BE7290701D5068017E7A90703D5A4
:1012C000F117C0E9006111E706600FE745F0400043
:1012D0006060A80723464FF0080216D41EE040F6CF
:1012E0000E0125EA0100606016E045F040006060F4
:1012F000A80723464FF00A0207D40FE045F040004C
:101300006060A80708D5234610226FF001000B99F2
:10131000AFF3008059E007E0234610226FF0010090
:101320000B99FFF799F850E04FF000094F464B46F4
:10133000632802D05B2806D040E0E80601D40120F3
:10134000A06001273AE062690121019890475E2878
:1013500005D14FF00109626949460198904721691A
:1013600039B900210A46534643F82120491C08296F
:10137000FADBB0B3216969B9C11700EBD16253112F
:101380000AEB830122F01F02821A01200B689040B1
:1013900003430B6062690121019890475D28E8D101
:1013A000B9F1000F09D00020514651F82020D24356
:1013B00041F82020401C0828F7DB02AB22460097AA
:1013C0006FF001000B99FFF7EDF800280CDA401CD4
:1013D00008D1BBF1000F05D04FF0FF300DB0BDE8D4
:1013E000F08FFFE74046F9E7E90701D108F101086E
:1013F00006444FF0000B79E6CCCCCC0C7F2801D909
:10140000002208E0064A02EB5002C007127800D121
:10141000120902F00F0201209040084070470000BE
:10142000981B080870B58D1810F8014B14F00302D2
:1014300001D110F8012B231106D110F8013B03E074
:1014400010F8016B01F8016B521EF9D1ABB110F825
:10145000012B04F00C048A1A0C2C03D0A2EB84128A
:101460009B1C08E010F8014BA2EB0422F8E712F8ED
:10147000014B01F8014B5B1EF9D5A942D4D30020E2
:1014800070BD000055494A6822F440324A604A68FB
:1014900043681A434A600268526822F48072036803
:1014A0005A6002685368026943EA022203685A607C
:1014B0000268526822F0407203685A6002685268FB
:1014C00083681A4303685A600268926822F40062D3
:1014D00003689A6002689268C3681A4303689A6056
:1014E0003F4B826A9A4218D00268926822F070627A
:1014F00003689A6002689268836A1A4303689A6074
:101500000268926822F0405203689A60026892680A
:10151000C36A1A4303689A600BE00268926822F07B
:10152000706203689A600268926822F04052036811
:101530009A600268926822F0020203689A60026868
:101540009368027E43EA420203689A602022125C9A
:10155000A2B10268526842F4006203685A600268ED
:10156000526822F4604203685A6002685368426A13
:10157000521E43EA423203685A6005E0026852682C
:1015800022F4006203685A600268D26A22F4700290
:101590000368DA620268D36A828B521E43EA0252FF
:1015A0000368DA620268926822F4007203689A6043
:1015B0000268936890F8302043EA422203689A60F8
:1015C0000268926822F4806203689A6002689368F5
:1015D000426943EA822203689A607047002301400F
:1015E0000100000F10B501242102034801F0B2F8F8
:1015F00000B10024204610BD0000024010B5044692
:101600002146024802F078F910BD0000A801002030
:1016100010B5044802F083F9042801D0012010BD60
:101620000020FCE7A801002010B5002400F014F809
:10163000012801D0012010BD064802F082F90446BD
:1016400034B94FF40061034802F00CF800B10124F2
:101650002046F0E7A801002008B501200090FFF720
:10166000C1FF08B9002000909DF8000008BD0000EF
:101670002DE9F04104460D461646002733462A461A
:101680002146044802F064FA00B101273846BDE85B
:10169000F0810000A801002008B50120009000237F
:1016A0001A466946024800684FF054FC08BD000025
:1016B000F4C401202DE9F04104460D4616460027EA
:1016C00033462A462146044802F0F0FA00B10127C9
:1016D0003846BDE8F0810000A801002000BFFEE709
:1016E00010B5024800F032FD10BD000024C60120F4
:1016F00010B5024800F02AFD10BD00002C020020A9
:101700000146087810381823B0FBF3F20848805CD3
:10171000C865032A05D908686FF30900001D8865AC
:1017200003E008686FF309008865886D7047000062
:10173000C44A0608014600208A6A8B69CBB932B1D7
:10174000012A0DD0022A03D0032A10D10EE000BFD7
:10175000CB6A03F08073B3F1807F00D1012007E0F2
:10176000CB6AB3F1C07F00D1012001E000E000BFEF
:1017700034E08B69B3F5005F1AD132B1012A07D08A
:10178000022A03D0032A11D10AE000BF01200EE093
:10179000CB6A03F08073B3F1807F00D1012006E0B3
:1017A000CB6AB3F1C07F00D1012000E000BF15E09B
:1017B00032B1012A05D0022A04D0032A0CD103E059
:1017C00000BF00BF012008E0CB6A03F08073B3F1D3
:1017D000807F00D1012000E000BF00BF704730B51E
:1017E0000468246824F4802405682C60046863601D
:1017F0008468402C04D10468A2600468E16003E0BE
:101800000468A1600468E26030BD704710B54FF411
:10181000005000F097FE10BD72B600BFFEE730B575
:1018200004460D4600222946204600F001F830BD4E
:10183000F0B50346012500241148407A01281CDA3E
:1018400000200F4E767A0E4FB8553846467A001D66
:1018500040F82630001F467A083082553E46707A9E
:10186000461C7E72044604F1300008703A2048702D
:101870002F2088700020C87000252846F0BD000089
:10188000E0D301202DED0E8B8EB0002400200D90B2
:1018900003F0E6FB62F024FD0746002600BFCA48BD
:1018A000008800287EDDC9A1CA48FEF790FD0446E5
:1018B00024B1C94AC9A12046FEF7B2FDD5A1C54849
:1018C000FEF785FD0446002C6CD00DAAD3A120465E
:1018D000FEF7A6FD5C21D4A0FEF792FD28B15C21A5
:1018E000D1A0FEF78DFD401C00E0CFA080462F2147
:1018F000FEF786FD88B15C21CBA0FEF781FD28B103
:101900005C21C9A0FEF77CFD401C00E0C6A080461B
:101910002F21FEF775FD401C0BE05C21C2A0FEF7F5
:101920006FFD28B15C21C0A0FEF76AFD401C00E0FD
:10193000BDA005469DF834304FF4A1722946C0A0E1
:1019400005F00CFB9DF8340041282BD1C048C1495B
:10195000C14AC24BCDE900210290C14AC1A1204633
:10196000FEF75EFDBE4890ED000ABDEEC00A10EE27
:10197000100A00B2642190FBF1F000EE100AF8EEBC
:10198000C00AB74890ED000ABDEEC00A10EE100A7A
:1019900000B290FBF1F0484300EE100AB8EEC00A26
:1019A000AF4800E00AE190ED001A31EE400A9FEDE9
:1019B000B31AC0EE011A30EEA10A80ED000AA64863
:1019C00090ED000ABDEEC00A10EE100A00B290FBC6
:1019D000F1F000EE100AF8EEC00A9F4890ED000A00
:1019E000BDEEC00A10EE100A00B290FBF1F04843C1
:1019F00000EE100AB8EEC00A974890ED001A31EEDA
:101A0000400A9FED9E1AC0EE011A30EEA10A80ED49
:101A1000000A92480078532806D1914890ED000AB8
:101A2000B1EE400A80ED000A8A480078572806D1B6
:101A3000894890ED000AB1EE400A80ED000A86491F
:101A400087480A46D2ED000A024692ED000A1AF0D3
:101A50002BF97F480068FFF7A3F941EC190B9FEDC4
:101A6000880B53EC102BFFF764F841EC180BFFF7D1
:101A7000DBF97749086062F033FC0646F01B4FF44F
:101A80007A71B0FBF1F52846FFF745F941EC1E0BE2
:101A90009FED7D0B53EC102BFFF74BF841EC1D0B2A
:101AA0009FED7B0B53EC102BFFF7B5F841EC1B0BB4
:101AB00067480068FFF774F941EC1C0B53EC1B2BD3
:101AC000FFF737F841EC190B73480068FFF768F926
:101AD00041EC1A0B53EC192BFEF784FF41EC180B69
:101AE000FFF7A2F96C4908606C48006828446B490C
:101AF0000860374668480068FFF752F941EC180B58
:101B000053480068FFF74CF941EC190B5448006842
:101B1000FFF746F941EC1A0B4F480068FFF740F910
:101B200041EC1B0B5C2140A0FEF76AFC28B15C2154
:101B30003DA0FEF765FC401C00E03BA081462F2144
:101B4000FEF75EFC88B15C2137A0FEF759FC28B196
:101B50005C2135A0FEF754FC401C00E032A0814619
:101B60002F21FEF74DFC401C0BE05C212EA0FEF760
:101B700047FC28B15C212CA0FEF742FC401C00E091
:101B800029A08046454800680C908DED0A8B8DEDAC
:101B9000089B3248007806908DED04AB2D48007804
:101BA00002908DED00BB40F26B1241463C4805F0BF
:101BB000D5F900213B4823F0FFFA00BF4FF47A70BB
:101BC0004FF0BDF86BE6000032C40120474E474796
:101BD0004100000032C0012008000020252A5B5E81
:101BE0002C5D2C252A5B5E2C5D2C252A5B5E2C5DF2
:101BF0002C252A5B5E2C5D2C252A5B5E2C5D2C251A
:101C00002A5B5E2C5D2C252A5B5E2C5D2C2568688A
:101C100075000000474E524D43000000252A5B5ED0
:101C200041565D25630000002E2E2F436F72652FF5
:101C30005372632F6672656572746F732E63000052
:101C40005B25733A25645D5B5B25635D5D0D0A0072
:101C500018000020140000200C00002015000020B7
:101C600010000020252A5B5E415D412C25662C2555
:101C7000632C25662C25632C25660000000070422D
:101C80006F1283C0CAA1FD3F000000000000F03FBA
:101C9000000000000020AC401C00002020000020BC
:101CA000D81B0808911C060838B502460020009091
:101CB00000BF92F83C00012801D1022038BD01206C
:101CC00082F83C0000BF0868092816D91068C0686F
:101CD0000C780A3C04EB44050724AC40A04314688C
:101CE000E0600C780A3C04EB44048868A040146867
:101CF000E46820431468E06013E0106800690C7821
:101D000004EB44050724AC40A043146820610C7820
:101D100004EB44048868A0401468246920431468D4
:101D200020614868072817D21068406B0C79641E40
:101D300004EB84051F24AC40A0431468606308884A
:101D400080B20C79641E04EB8404A0401468646BB8
:101D500020431468606331E048680D2817D210688A
:101D6000006B0C79E41F04EB84051F24AC40A043F6
:101D700014682063088880B20C79E41F04EB8404A3
:101D8000A0401468246B20431468206316E0106898
:101D9000C06A0C790D3C04EB84051F24AC40A043C1
:101DA0001468E062088880B20C790D3C04EB84046E
:101DB000A0401468E46A20431468E062194B1A4C8E
:101DC0001068A04206D10868122803D1586840F470
:101DD00080005860144C1068A0421CD1086810287C
:101DE00002D00868112816D1586840F400005860E5
:101DF000086810280FD10D4800680D4CB0FBF4F0B6
:101E000000EB80004000009002E00098401E00902F
:101E100000980028F9D100BF002082F83C0000BFE4
:101E200000BF4BE700230140002001403C000020A0
:101E300040420F0001460868C06C704770B5044608
:101E400000250CB9012070BD1549A06A884200D058
:101E500000BF206C30B9204600F024F800206064F8
:101E600084F83C00206C00F0100088B9206C20F44D
:101E7000885040F0020020642046FFF703FB00205A
:101E80006064206C20F0020040F00100206400E05B
:101E9000012500BF002084F83C0000BF2846D2E79F
:101EA0000100000F10B586B00446142101A8FEF70A
:101EB00083FA1949206888422BD100BF0020009086
:101EC0001648006840F480701449086008460068AD
:101ED00000F48070009000BF00BF00BF00200090A1
:101EE0000E481438006840F001000C4914390860AD
:101EF0000846006800F00100009000BF00BF02200B
:101F00000190032002900020039001A9044800F0F2
:101F100027FB06B010BD00000020014044380240FD
:101F20000000024008B501460020009000BF91F873
:101F30003C00012801D1022008BD012081F83C00AD
:101F400000BF0868806800F00100A0B908688068D8
:101F500040F001000B6898603F4800683F4BB0FBC1
:101F6000F3F000EB4000009002E00098401E00906B
:101F700000980028F9D10868806800F00100002866
:101F800060D0086C40F20163984340F480700864AC
:101F90000868406800F4806028B1086C20F40050A4
:101FA00040F480500864086C00F48050B0F5805F05
:101FB00004D1486C20F00600486401E00020486429
:101FC00000BF002081F83C0000BF254A6FF02200CE
:101FD0000B681860506800F01F0018BB214B0868A0
:101FE000984213D0204B0868984204D1101D006815
:101FF00000F01F0050B11D4B086898422AD11848C4
:10200000001D006800F01F00102823D208688068B7
:1020100000F04050F0B90868806840F080400B68DC
:10202000986017E00F4B0868984213D108688068E1
:1020300000F0405070B90868806840F080400B683C
:10204000986007E0086C40F010000864486C40F0AD
:102050000100486400206FE73C00002040420F0070
:1020600000230140002001400021014000220140E6
:1020700070B50446A56D00F07BFB064694F835006C
:10208000022808D08020606500BF002084F834005A
:1020900000BF012070BD2068006820F01600216894
:1020A00008602068406920F0800021684861206C49
:1020B00008B9A06C28B12068006820F008002168E9
:1020C00008602068006820F001002168086010E0C6
:1020D00000F04EFB801B05280BD9202060650320F3
:1020E00084F8350000BF002084F8340000BF0320CE
:1020F000D0E72068006800F001000028E8D194F8DB
:102100005C103F208840A860012084F8350000BFA3
:10211000002084F8340000BF00BFBBE7014691F8FF
:102120003500022803D08020486501207047052033
:1021300081F835000868006820F001000A68106026
:102140000020F3E70146486D70470000F8B50446EB
:10215000002000908C4800684FF41651B0FBF1F756
:10216000A56D2E6894F85C1008208840304098B126
:102170002068006800F0040070B12068006820F05A
:1021800004002168086094F85C1008208840A8606A
:10219000606D40F00100606594F85C10012088409B
:1021A000304068B12068406900F0800040B194F888
:1021B0005C1001208840A860606D40F002006065FE
:1021C00094F85C1004208840304068B120680068B2
:1021D00000F0020040B194F85C1004208840A86030
:1021E000606D40F00400606594F85C101020884039
:1021F000304078B32068006800F0080050B394F8CD
:102200005C1010208840A8602068006800F48020DE
:1022100080B12068006800F4002028B9206CC8B1A3
:102220002046216C884715E0A06C98B12046A16C2F
:1022300088470FE02068006800F4807028B92068A3
:10224000006820F0080021680860206C10B120466A
:10225000216C884794F85C1020208840304000288A
:1022600065D02068006800F0100000285FD094F866
:102270005C1020208840A86094F83500052828D1FB
:102280002068006820F01600216808602068406916
:1022900020F0800021684861206C08B9A06C28B14A
:1022A0002068006820F008002168086094F85C103D
:1022B0003F208840A860012084F8350000BF00203E
:1022C00084F8340000BF206D10B12046216D88478E
:1022D000F8BD2068006800F4802080B120680068A4
:1022E00000F4002028B9606C10B12046616C88476A
:1022F0001DE0E06BD8B12046E16B884717E020680D
:10230000006800F4807068B92068006820F0100050
:1023100021680860012084F8350000BF002084F89F
:10232000340000BFE06B10B12046E16B8847606D60
:1023300038B3606D00F00100F0B1052084F835007D
:102340002068006820F001002168086000BF009844
:10235000401C0090B84200D905E02068006800F0F9
:1023600001000028F3D100BF012084F8350000BF30
:10237000002084F8340000BFE06C10B12046E16C0E
:10238000884700BFA4E700003C0000202DE9F04191
:102390000446002500F0ECF9074614B90120BDE819
:1023A000F081606A00B100BF022084F8350000BFF0
:1023B000002084F8340000BF2068006820F001008D
:1023C000216808600AE000F0D3F9C01B052805D990
:1023D00020206065032084F83500E0E7206800686D
:1023E00000F001000028EED1206805682148054072
:1023F000D4E901010843E1680843216908436169A0
:102400000843A1690843E1690843216A0843054379
:10241000606A042803D1D4E90B010843054320680E
:1024200005602068456925F00705606A0543606A14
:1024300004280DD1A06A0543E06A48B12046FFF7A1
:1024400079F928B140206065012084F83500A6E7BD
:10245000206845612046FFF753F9064694F85C1062
:102460003F208840B06000206065012084F835007E
:10247000002094E73F8010F02DE9F04704460D4618
:1024800016461F464FF00008D4F8589000BF94F845
:102490003400012802D10220BDE8F087012084F831
:1024A000340000BF94F83500012825D1022084F8BB
:1024B0003500002060653B46324629462046FFF73E
:1024C0008EF994F85C103F208840C9F80800206815
:1024D000006840F0160021680860206C28B1206870
:1024E000006840F00800216808602068006840F03B
:1024F00001002168086006E000BF002084F8340075
:1025000000BF4FF002084046C6E7000070B5044621
:1025100000F02EF906462546681C10B104480078E4
:10252000054400BF00F024F9801BA842FAD370BD17
:102530003800002010B50446B4F5005F01D102F068
:1025400011FE10BD10B5044604480068204020B1BB
:10255000024804602046FFF7EDFF10BD143C014027
:10256000F8B502460B460025002400200021D6E0E5
:10257000012606FA01F51E6806EA0504AC4274D18C
:102580001E7906F00306012E04D01E7906F003061C
:10259000022E13D190684F000326BE40B0434F0077
:1025A000DE68BE4030439060506801268E40B043E4
:1025B0001E79C6F300168E40304350601E7906F037
:1025C0000306032E09D0D0684F000326BE40B04357
:1025D0004F009E68BE403043D0601E7906F003066F
:1025E000022E13D1CF0802F1200656F827004E071D
:1025F000F70E0F26BE40B0434F07FF0E1E69BE40C8
:102600003043CF0802F1200646F8270010684F003B
:102610000326BE40B0431E7906F003064F00BE40BD
:10262000304310605E6806F44036002E76D000BF5E
:10263000002600963C4E366846F480463A4F3E608F
:102640003E46366806F48046009600BF00BF374E0F
:102650008F0856F827008E07370F0F26BE40B0436D
:10266000334EB24202D1002624E057E0314EB2424E
:1026700001D101261EE0304EB24201D1022619E0FE
:102680002E4EB24201D1032614E02D4EB24201D1AA
:1026900004260FE02B4EB24201D105260AE02A4E55
:1026A000B24201D1062605E0284EB24201D10726EA
:1026B00000E008268F073F0FBE4030431B4E8F08B7
:1026C00046F82700224E3068A0435E6806F4801664
:1026D00006B120431E4E3060361D3068A0435E6850
:1026E00006F4001606B12043194E361D3060184E10
:1026F000361F3068A0435E6806F4003606B12043FA
:10270000134E361F3060361F3068A0435E6806F4F3
:10271000803606B120430E4E083E3060491C102919
:10272000FFF426AFF8BD00004438024008380140ED
:10273000000002400004024000080240000C024079
:10274000001002400014024000180240001C024029
:10275000083C0140024613690B400BB1012000E028
:10276000002070470AB1816101E00B04836170476A
:1027700001480068704700003000002070B5044632
:102780000CB9012070BD94F83D0028B9002084F8F0
:102790003C00204600F05EFA242084F83D002068CA
:1027A000006820F00100216808602068006840F49B
:1027B0000040216808602068006820F4004021681B
:1027C000086000F089FC05465C496068884206D8CC
:1027D0005B48854201D2012007E0002005E059480E
:1027E000854201D2012000E00020012800D1C9E784
:1027F0005548B5FBF0F62068406820F03F003043B4
:10280000216848604D496068884201D8701C07E023
:102810004FF4967070434FF47A71B0FBF1F0401CA6
:102820002168096A21F03F01084321680862434991
:102830006068884214D8681E61684900B0FBF1F0F6
:10284000401CC0F30B00042801D204203DE0681EA8
:1028500061684900B0FBF1F0401CC0F30B0034E0AC
:10286000A06838B9681E616801EB4101B0FBF1F066
:10287000401C0AE0681E616801EBC10202EB011115
:10288000B0FBF1F0401C40F48040C0F30B0008B9ED
:1028900001201AE0A06848B9681E616801EB410197
:1028A000B0FBF1F0401CC0F30B000CE0681E616847
:1028B00001EBC10202EB0111B0FBF1F0401CC0F3CF
:1028C0000B0040F4804040F400402168C9694CF698
:1028D000FF72914308432168C861D4E907010843A6
:1028E0002168096821F0C001084321680860D4E923
:1028F000031008432168896848F2FF329143084376
:1029000021688860D4E9050108432168C96821F07D
:10291000FF0108432168C8602068006840F001009A
:102920002168086000202064202084F83D000020F9
:10293000206384F83E0000BF24E70000A086010069
:1029400080841E0000093D0040420F002DE9FC5F1D
:1029500004460F4690469946DDE90CAB0E9EFFF704
:1029600007FF054694F83D00202870D11923012265
:10297000B5492046009502F009FA10B10220BDE8E1
:10298000FC9F00BF94F83C00012801D10220F6E72B
:10299000012084F83C0000BF2068006800F00100BE
:1029A00028B92068006840F00100216808602068AC
:1029B000006820F4006021680860222084F83D004F
:1029C000402084F83E0000202064C4F824A0A4F82D
:1029D0002AB0608D20859D48E0624B4642463946CC
:1029E0002046CDE9006502F021F908B10120C6E7D3
:1029F000208D88B900BF00200190206840690190B7
:102A000020688069019000BF00BF2068006840F422
:102A100000702168086040E0208D012818D12068EE
:102A2000006820F480602168086000BF00200190E9
:102A300020684069019020688069019000BF00BF54
:102A40002068006840F400702168086025E0F8E024
:102A5000208D022816D12068006820F4806021684B
:102A600008602068006840F400602168086000BFCA
:102A700000200190206840690190206880690190E1
:102A800000BF0AE000BF002001902068406901906B
:102A900020688069019000BF00BFC3E0208D03283B
:102AA0007ED8208D012815D12A463146204602F0D5
:102AB00049FA08B1012062E720680069616A08707C
:102AC000606A401C6062208D401E2085608D401E23
:102AD0006085A7E0208D02282AD1334600225C4978
:102AE0002046009502F052F908B1012047E720681E
:102AF000006840F400702168086020680069616A1D
:102B00000870606A401C6062208D401E2085608DC8
:102B1000401E608520680069616A0870606A401C18
:102B20006062208D401E2085608D401E608579E0AA
:102B30003346002246492046009502F027F908B1A5
:102B400001201CE72068006820F48060216808608C
:102B500020680069616A0870606A401C6062208DAC
:102B6000401E2085608D401E608533460022384916
:102B70002046009502F00AF908B10120FFE620681E
:102B8000006840F400702168086020680069616A8C
:102B90000870606A401C6062208D401E208500E045
:102BA00010E0608D401E608520680069616A0870D1
:102BB000606A401C6062208D401E2085608D401E32
:102BC00060852FE02A463146204602F0BBF908B165
:102BD0000120D4E620680069616A0870606A401CC0
:102BE0006062208D401E2085608D401E60852068BB
:102BF0004069C0F38000A8B1208D032805D120686A
:102C0000006820F480602168086020680069616ABB
:102C10000870606A401C6062208D401E2085608DB7
:102C2000401E6085208D00287FF438AF202084F876
:102C30003D00002084F83E0000BF84F83C0000BF47
:102C40009DE602209BE60000020010000000FFFF4E
:102C50000400010010B586B00446142101A8FDF758
:102C6000ABFB1B492068884230D100BF0020009098
:102C70001848006840F002001649086008460068DD
:102C800000F00200009000BF00BF4FF440600190D0
:102C9000122002900020039003200490042005904D
:102CA00001A90D48FFF75CFC00BF00200090094817
:102CB0001030006840F48000064910310860084672
:102CC000006800F48000009000BF00BF06B010BD97
:102CD00000580040303802400004024003480068B9
:102CE0000349097808440149086070473000002012
:102CF0003800002010B50D48006840F400700B4902
:102D000008600846006840F4806008600846006873
:102D100040F480700860032000F0E0F80F2000F01D
:102D200007F800F05FF8002010BD0000003C0240F2
:102D30002DE9F04188B004460027B84600BF0020C6
:102D400001902348006840F02000214908600846AF
:102D5000006800F02000019000BF00BF02A903A896
:102D600000F092F9069F1FB900F0B6F9054602E09F
:102D700000F0B2F945001748B5FBF0F0A0F10108EA
:102D800015481649086040F2E7311448C160C0F8A0
:102D90000480002101618160816101F0E7FA06464B
:102DA00096B90E4801F016FB06466EB9372000F0C2
:102DB00043F8102C07D200222146372000F050F8AB
:102DC0000748046000E00126304608B0BDE8F08105
:102DD0004038024040420F00001400401C03002015
:102DE0003400002008B500BF0020009011480068A2
:102DF00040F480400F4908600846006800F48040B5
:102E0000009000BF00BF00BF00200090081F0068B6
:102E100040F08050091F08600846006800F08050AC
:102E2000009000BF00BF00220F21901E00F018F894
:102E300008BD0000443802400146084600280DDB6A
:102E400000BF00BF00F01F0301229A4043099B000E
:102E500003F1E023C3F8002100BF00BF00BF7047AB
:102E60002DE9F05F80460D461646002704F0B6F8BF
:102E7000074639462A46334601F00700C0F1070AE3
:102E8000BAF1040F02D94FF0040A01E0C0F1070AB9
:102E9000D14600F1040ABAF1070F02D24FF0000A3E
:102EA00001E0A0F1030AD4464FF0010A0AFA09FA38
:102EB000AAF1010A0AEA020A0AFA0CFA4FF0010B17
:102EC0000BFA0CFBABF1010B0BEA030B4AEA0B0408
:102ED0002146404604F08AF8BDE8F09F00BF00F0AC
:102EE0000702064B19684FF6FF031940044B0B43CA
:102EF00043EA0221014B196000BF70470CED00E06E
:102F00000000FA0570B504460D460CB9012070BDED
:102F10005848006800F00700A84209D255490D70D2
:102F20000846006800F00700A84201D00120EEE743
:102F3000207800F0020002281DD1207800F0040063
:102F4000042805D14C48006840F4E0504A49086024
:102F5000207800F00800082805D14748006840F4B0
:102F60006040454908604448006820F0F000A168CE
:102F7000084341490860207800F00100A8B3606868
:102F8000012807D13C4808380068C0F34040B8B970
:102F90000120BCE76068022802D06068032807D1DE
:102FA000354808380068C0F3406048B90120AEE7F2
:102FB000314808380068C0F3400008B90120A6E78E
:102FC0002D48006820F00300616808432A49086022
:102FD000FFF7CEFB064609E0FFF7CAFB801B41F274
:102FE0008831884202D9032091E707E0224800682F
:102FF00000F00C006168B0EB810FEDD11D48006856
:1030000000F00700A84209D91A490D700846006867
:1030100000F00700A84201D0012078E7207800F0F6
:103020000400042807D11448006820F4E050E16847
:10303000084311490860207800F00800082808D1EA
:103040000D48006820F46040216940EAC1000A4947
:10305000086000F061F808490968C1F30311074AE4
:10306000515CC8400649086006480068FFF760FEEA
:1030700000204CE7003C024008380240CC4A0608D9
:103080003C000020340000200F2202600D4A12682C
:1030900002F0030242600B4A126802F0F002826002
:1030A000084A126802F4E052C260064A126802F44A
:1030B0006042D2080261044A126802F007020A6004
:1030C0007047000008380240003C02400148006898
:1030D000704700003C00002000B5FFF7F7FF0449EF
:1030E0000968C1F38221034A515CC84000BD000059
:1030F00008380240DC4A060800B5FFF7E7FF04493C
:103100000968C1F34231034A515CC84000BD000068
:1031100008380240DC4A06082DE9F0470024002563
:103120000026A1462548006800F00C0020B10428C4
:1031300005D008283AD105E0DFF8849039E0DFF8BF
:10314000849036E01D48001F006800F03F041B48D3
:10315000001F006800F4800078B11A481749091F61
:103160000968C1F38811A0FB0170014622460023C3
:103170003846FDF785F805460EE011480F49091F4E
:103180000968C1F38811A0FB0170014622460023A3
:103190003846FDF775F805460848001F0068C0F37B
:1031A0000140401C4600B5FBF6F902E0DFF8109044
:1031B00000BF00BF4846BDE8F08700000838024065
:1031C0000024F40000127A00F8B504460CB901207E
:1031D000F8BD207800F00100002874D0F94800689C
:1031E00000F00C0004280DD0F648006800F00C0038
:1031F000082813D1F348001F006800F48000B0F5E0
:10320000800F0BD1EF4808380068C0F34040002819
:1032100059D06068002856D10120D9E700BF606806
:10322000B0F5803F08D1E7480838006840F48030A6
:10323000E449083908601EE06068B0F5A02F0DD1A0
:10324000E0480838006840F48020DE49083908600A
:103250000846006840F4803008600CE0D94808381F
:10326000006820F48030D7490839086008460068B3
:1032700020F48020086000BF606890B1FFF778FA02
:10328000054606E0FFF774FA401B642801D90320C5
:103290009EE7CC4808380068C0F340400028F1D0D1
:1032A00011E0FFF765FA054606E0FFF761FA401BFB
:1032B000642801D903208BE7C24808380068C0F3AE
:1032C00040400028F1D1207800F0020002285FD1B0
:1032D000BC48006800F00C0058B1BA48006800F023
:1032E0000C0008281CD1B748001F006800F48000BB
:1032F000B0B9B44808380068C0F3400020B1E068B5
:10330000012801D0012063E7AE480838006820F0AA
:10331000F800216940EAC100AA490839086037E08D
:10332000E06800B30120A8490860FFF721FA0546CC
:1033300006E0FFF71DFA401B022801D9032047E7EA
:10334000A04808380068C0F340000028F1D09D482C
:103350000838006820F0F800216940EAC100994966
:103360000839086014E0002097490860FFF700FA68
:10337000054606E0FFF7FCF9401B022801D90320AF
:1033800026E7904808380068C0F340000028F1D1D3
:10339000207800F0080008282CD16069A8B101202D
:1033A0008A490860FFF7E4F9054606E0FFF7E0F90F
:1033B000401B022801D903200AE782486C300068CC
:1033C000C0F340000028F1D014E000207F490860DD
:1033D000FFF7CEF9054606E0FFF7CAF9401B0228C1
:1033E00001D90320F4E677486C300068C0F3400050
:1033F0000028F1D1207800F00400042870D10027C3
:1034000070483830006800F0805090B900BF00204C
:1034100000906C483830006840F08050694938317D
:1034200008600846006800F08050009000BF00BFB0
:1034300001276748006800F48070B0B964480068EC
:1034400040F4807062490860FFF792F9054606E093
:10345000FFF78EF9401B022801D90320B8E65C482B
:10346000006800F480700028F2D000BFA068012836
:1034700008D154486830006840F001005149683173
:1034800008601DE0A06805280DD14E48683000682E
:1034900040F004004B49683108600846006840F07D
:1034A000010008600CE047486830006820F0010027
:1034B0004449683108600846006820F0040008604C
:1034C00000BFA068A8B1FFF753F9054609E0FFF770
:1034D0004FF9401B41F28831884202D9032077E638
:1034E00026E0384868300068C0F340000028EED07D
:1034F00013E0FFF73DF9054608E0FFF739F9401BF7
:1035000041F28831884201D9032061E62D486830B4
:103510000068C0F340000028EFD1012F07D12948EF
:103520003830006820F0805026493831086000BFEC
:10353000A069002845D02348006800F00C00082846
:103540005DD0A069022845D100201F490866FFF719
:103550000FF9054606E0FFF70BF9401B022801D9D9
:10356000032035E6174808380068C0F3406000289B
:10357000F1D1D4E907010843616A40EA81110122CF
:10358000A06AC2EB500041EA00412C20005D41EAF4
:1035900000600C49091F086001200B490866FFF70D
:1035A000E7F8054606E0FFF7E3F8401B022801D9DB
:1035B00003200DE6034808380068C0F34060002887
:1035C000F1D049E00838024000004742800E4742EF
:1035D00000700040002021490866FFF7C9F8054641
:1035E00006E0FFF7C5F8401B022801D90320EFE5EC
:1035F0001B480068C0F340600028F2D12CE0A069AD
:10360000012800D1E4E51648001D0668A0690128DC
:1036100020D006F48001E06981421BD106F03F0111
:10362000206A814216D147F6C0703040616AB0EB23
:10363000811F0FD106F440310122A06AC2EB500075
:10364000B1EB004F06D106F070612C20005DB1EBAC
:10365000006F01D00120BBE50020B9E50000474222
:1036600000380240F0B589B004460E46002703201A
:1036700084F83400606C032820D0B6F5805F04D154
:10368000A06B40F08050A0631CE0B6F5006F07D13E
:10369000204602F0D5FE0546A06B2843A06311E04A
:1036A0003EB9204602F098FE0546A06B2843A06371
:1036B00008E0A06B40F00060A06303E0A06B40F066
:1036C0008050A063A06B38B117482168886301203F
:1036D00084F83400012713E060680390A068049028
:1036E000E0680590069660690790A069089006A8B2
:1036F00007C88DE80700206803A90EC902F047F843
:103700004FF40071206802F0B3F8054635B1064861
:1037100021688863A06B2843A0630127012084F8F7
:103720003400384609B0F0BDFF0540007047000086
:1037300010B50246506E800F0870506EC0F3836063
:103740004870506EC0F301608870506E000CC870F5
:10375000B2F86400000A087192F864004871906E33
:10376000000DC880906EC0F3034008726820805A34
:10377000C0F3C03048726820805AC0F3803088722D
:103780006820805AC0F34030C8726820805AC0F365
:103790000030087300204873506C002836D1682030
:1037A000805A8005030DD06E43EA90700861D06E98
:1037B000C0F3C2600875D06EC0F302604875D06E69
:1037C000C0F342508875D06EC0F38240C875D06E89
:1037D000C0F3C23008760869401C50650B7E506DFE
:1037E00003F007039B1C01249C4060435065087A4A
:1037F00000F00F03012098409065D2E915035B0AA1
:103800005843D0654FF40073136621E0506C0128D3
:1038100013D16820805C8006830AD06E43EA104092
:1038200008610869401C83025365536DD3654FF4EA
:1038300000739365936D13660AE02E4813689863CE
:10384000906B40F080509063012082F8340010BDEE
:103850006C20805AC0F3803001F8190F6C20805A18
:10386000C0F3C61048706C20805C00F07F00887048
:10387000106FC00FC870106FC0F341700871106FE7
:10388000C0F382604871106FC0F383508871106F6D
:10389000C0F34050C87100200872106FC0F30040A0
:1038A00048727020805AC0F3C03088727020805AED
:1038B000C0F38030C8727020805AC0F34030087363
:1038C0007020805AC0F3003048737020805AC0F3D3
:1038D000812088737020805AC0F30120C873702043
:1038E000805CC0F346000874012048741939002038
:1038F000ADE70000FF0540000246506C0860906C88
:103900004860D06C8860106DC860506D0861906D23
:103910004861D06D8861106EC86100207047F8B5AD
:103920000446002000906946204602F03DFD054611
:1039300015B1A06B2843A0630098C0F3432630461E
:10394000F8BD10B504460CB9012010BD94F8340040
:1039500020B900202077204600F066F8032084F884
:103960003400204600F00CF808B10120EDE70020FB
:10397000A0632063012084F834000020E5E7000004
:1039800030B589B00446002003900490059006905D
:1039900007907620089006A807C88DE807002068E1
:1039A00003A90EC901F0F3FE00201D49086020683C
:1039B00001F007FF01201A49A039C1F8A000022038
:1039C000FEF7A4FD204602F089FC054645B1012022
:1039D00084F83400A06B2843A063012009B030BDF7
:1039E000204602F0FAFB05463DB1012084F8340080
:1039F000A06B2843A0630120F0E74FF4007120681A
:103A000001F036FF05464DB1064821688863A06B7A
:103A10002843A063012084F83400DFE70020DDE7BD
:103A2000A0802542FF05400010B586B00446142151
:103A300001A8FCF7C1FC40492068884279D100BF49
:103A4000002000903D48006840F400603B49086059
:103A50000846006800F40060009000BF00BF00BF8F
:103A60000020009035481438006840F004003349C5
:103A7000143908600846006800F00400009000BF98
:103A800000BF00BF002000900846006840F008001A
:103A900008600846006800F00800009000BF00BF02
:103AA0004FF4F85001900220029000200390032070
:103AB00004900C20059001A92148FEF751FD042037
:103AC00001900220029000200390032004900C201B
:103AD000059001A91B48FEF743FD1B481B490860E0
:103AE0004FF000604860002118488160C1604FF4C9
:103AF0008061016189004161890081612021C1618A
:103B00000021016204214162032181624FF400011E
:103B1000C16289100163FEF739FC08B1FDF77CFE34
:103B200000BF0A482064846300BF00BFE063846371
:103B300000BF06B010BD0000002C01404438024018
:103B400000080240000C0240A06402402C02002049
:103B50002DE9F04387B004460F4691461D46C846FE
:103B60003FB9A06B40F00060A063012007B0BDE842
:103B7000F08394F8340001287ED10020A06308EB84
:103B80000501E06D814205D9A06B40F00070A06393
:103B90000120EBE7032084F8340000202168C8628C
:103BA0002068C06B40F22A3108432168C863384856
:103BB000216CC8633748216CC8640020216C0865FB
:103BC0000021206C8160206C0068006820F0C0003B
:103BD000216C89680843216C096808606A029308AF
:103BE000226802F180013A46206CFEF745FC80B164
:103BF0002068C06B20F495702168C863264821684E
:103C00008863A06B40F08040A063012084F83400FA
:103C1000ACE7012021490860606C012801D04FEA1F
:103C200048284FF0FF3001906802029090200390E6
:103C300002200490002005900120069001A9206830
:103C400001F080FD012D07D98220206341462068C4
:103C500001F076FE064606E081202063414620689A
:103C600001F08AFE064676B10B4821688863A06B96
:103C70003043A063012000E007E084F83400002016
:103C80002063012072E7002070E702206EE7000049
:103C900035600008C15F0008FF0540008C852542A3
:103CA00010B50446FDF7F8FC10BD00002DE9F04307
:103CB00087B00446884691461D464F46B8F1000F2E
:103CC00007D1A06B40F00060A063012007B0BDE801
:103CD000F08394F83400012874D10020A06379198E
:103CE000E06D814205D9A06B40F00070A063012017
:103CF000ECE7032084F8340000202168C8622068C3
:103D0000C06B40F21A2108432168C8633848E16B50
:103D1000C8633848E16BC8640020E16B0865606CDB
:103D2000012800D07F02012D07D9A0202063394649
:103D3000206801F0FFFE064606E090202063394629
:103D4000206801F013FF064666B12B48216888639E
:103D5000A06B3043A063012084F83400002020636E
:103D60000120B3E70120254908604021E06B816014
:103D7000E06B0068006820F0C000E16B89680843D0
:103D8000E16B0968086069028B08216801F1800213
:103D90004146E06BFEF770FBA8B12068C06B40F2B3
:103DA0001A2188432168C863134821688863A06B7F
:103DB00040F08040A063012084F83400002020639C
:103DC000012083E711E04FF0FF300190680202907C
:103DD000902003900020049005900120069001A9F6
:103DE000206801F0AFFC002070E702206EE70000C1
:103DF0007D600008C15F0008FF0540008C852542FA
:103E00007047704710B504460CB9012010BD606AB8
:103E100038B96068B0F5827F00D105E00021E1612A
:103E200002E00021216161610021A16294F851004A
:103E3000C8B9002084F850002E48A0652E48E065DF
:103E40002E4820662E4860662E48A0662E48E06602
:103E50002E4820672E486067A06F08B92D48A067DC
:103E60002046A16F8847022084F85100206800682E
:103E700020F0400021680860A08800F48270218949
:103E800001F404410843A18901F400610843217C45
:103E900001F002010843217D01F001010843218B5B
:103EA00001F400710843217F01F03801084320210B
:103EB000095D01F080010843218D01F400510843A0
:103EC000216808600421A06901EA104094F82410D8
:103ED00001F010010843216848602068C06920F49F
:103EE00000602168C86100206065012084F85100ED
:103EF00000208BE761430008A140000865430008EB
:103F000063430008A340000867430008033E00081D
:103F1000013E0008193F000810B586B00446142180
:103F200001A8FCF749FA2B49206888424FD100BF0D
:103F3000002000902848006840F48050264908601E
:103F40000846006800F48050009000BF00BF00BF2A
:103F50000020009020481438006840F001001E49FD
:103F6000143908600846006800F00100009000BFA6
:103F700000BFA020019002200290002003900320A7
:103F800004900520059001A91448FEF7E9FA1448A9
:103F9000144908604FF0C0604860402111488160BA
:103FA0000021C1604FF480610161490041618900D5
:103FB00081610021C16101624162FEF7E7F908B148
:103FC000FDF72AFC00BF0748A064846300BF06B069
:103FD00010BD0000003001404438024000000240A3
:103FE0005864024024C6012010B5034600242AB9B3
:103FF000586D40F080005865012010BD00BF93F857
:104000005000012801D10220F7E7012083F8500079
:1040100000BF93F85100012823D10A291AD2DFE802
:1040200001F00507090B0D0F111315179A6517E01D
:10403000DA6515E01A6613E05A6611E09A660FE039
:10404000DA660DE01A670BE05A6709E09A6707E045
:10405000DA6705E0586D40F080005865012400BF24
:1040600017E093F8510078B9082902D0092904D142
:1040700001E09A6707E0DA6705E0586D40F08000DC
:104080005865012400BF04E0586D40F08000586579
:10409000012400BF002083F8500000BF2046ACE799
:1040A000704770472DE9F84304460F4616461D46F3
:1040B000FEF75EFB8046B14694F85100012802D01D
:1040C0000220BDE8F88307B10EB90120F9E700BF6F
:1040D00094F85000012801D10220F2E7012084F871
:1040E000500000BF032084F8510000206065276362
:1040F000A686E686A063A087E08760642064A06847
:10410000B0F5004F0BD12068006820F04000216816
:1041100008602068006840F48040216808602068DA
:10412000006800F04000402805D02068006840F09A
:10413000400021680860E068B0F5006F37D1606822
:1041400010B1B9F1010F09D1206B00882168C86056
:10415000206B801C2063E08E401EE08623E02068F8
:10416000806800F0020002280AD1206B00882168D4
:10417000C860206B801C2063E08E401EE08612E049
:10418000FEF7F6FAA0EB0800A84201D3681C00B9BC
:104190004DB9012084F8510000BF002084F8500080
:1041A00000BF03208DE7E08E0028D8D136E060689C
:1041B00010B1B9F1010F09D1206B007821680873A3
:1041C000206B401C2063E08E401EE08623E02068C8
:1041D000806800F0020002280AD1206B0078216874
:1041E0000873206B401C2063E08E401EE08612E0C6
:1041F000FEF7BEFAA0EB0800A84201D3681C00B984
:104200004DB9012084F8510000BF002084F850000F
:1042100000BF032055E7E08E0028D8D1424629464A
:10422000204602F081FA08B120206065A06850B9EC
:1042300000BF002000902068C0680090206880685F
:10424000009000BF00BF012084F8510000BF002093
:1042500084F8500000BF606D08B1012031E70020F4
:104260002FE700002DE9F04104460E46154694F86C
:104270005100012802D00220BDE8F08106B10DB93D
:104280000120F9E700BF94F85000012801D1022075
:10429000F2E7012084F8500000BF032084F85100A9
:1042A000002060652663A586E586A06360642064BF
:1042B000A087E087A068B0F5004F0BD120680068A8
:1042C00020F04000216808602068006840F48040C9
:1042D000216808601F48A16C08641F48A16CC8636E
:1042E0001E48A16CC8640020A16C0865E38E276895
:1042F00007F10C02216BA06CFEF7BEF850B1606DA7
:1043000040F01000606500BF002084F8500000BF3E
:104310000120B1E72068006800F04000402805D087
:104320002068006840F040002168086000BF00205D
:1043300084F8500000BF2068406840F020002168E9
:1043400048602068406840F0020021684860002012
:1043500092E7000099660008A766000871660008E9
:1043600070477047704770477047704710B50446F4
:104370000CB9012010BD94F83D0028B9002084F844
:104380003C00204600F025F8022084F83D00211D65
:10439000206802F0EFFA012084F8460000BF84F89C
:1043A0003E0001213F20015540200155412001558B
:1043B00000BF00BF012084F8420043200155442083
:1043C00001554520015500BF012084F83D00002023
:1043D000D0E77047014691F83D00012801D0012047
:1043E0007047022081F83D000868C06840F0010075
:1043F0000B68D8601A4B086898421BD00868B0F167
:10440000804F17D0174B0868984213D0164B086896
:1044100098420FD0154B086898420BD0144B08688F
:10442000984207D0134B0868984203D0124B086893
:1044300098420CD10868806800F00702062A0CD068
:104440000868006840F001000B68186005E0086823
:10445000006840F001000B6818600020C0E7000011
:10446000000001400004004000080040000C004033
:10447000000401400040014000180040704770B542
:1044800004462068C5682068066906F00200022814
:1044900019D105F00200022815D1401F21680861DA
:1044A000012020772068806900F0030018B12046C1
:1044B000FFF7E4FF05E0204600F097F8204600F003
:1044C00095F80020207706F00400042819D105F0A3
:1044D0000400042815D1C043216808610220207718
:1044E0002068806900F4407018B12046FFF7C6FFCD
:1044F00005E0204600F079F8204600F077F800202B
:10450000207706F00800082819D105F008000828CF
:1045100015D1C04321680861042020772068C06954
:1045200000F0030018B12046FFF7A8FF05E0204681
:1045300000F05BF8204600F059F80020207706F0E4
:104540001000102819D105F01000102815D1C04313
:1045500021680861082020772068C06900F4407055
:1045600018B12046FFF78AFF05E0204600F03DF82D
:10457000204600F03BF80020207706F0010048B10B
:1045800005F0010030B16FF001002168086120469C
:1045900000F02EF806F08000802809D105F0800098
:1045A000802805D1C043216808612046FFF7DCFE62
:1045B00006F04000402809D105F04000402805D110
:1045C000C04321680861204600F01EF806F0200074
:1045D000202809D105F02000202805D1C0432168FA
:1045E00008612046FFF7C1FE70BD704770470000AC
:1045F00010B5044603492068884201D1FEF76EFBDE
:1046000010BD0000001400407047F8B504460E4687
:10461000174694F8420020282ED106B10FB9012088
:10462000F8BD01202063002060633A4631462046F1
:1046300002F0F4FB0546EDB9206B012819D100BF4B
:10464000002000902068006800902068406800907A
:1046500000BF00BF00BF00BF21680C3151E8001F40
:1046600041F0100021680C3141E80002002AF3D12A
:1046700000E001252846D3E70220D1E770B50546C2
:104680000C4604492868884202D1204600F0D2FC3A
:1046900070BD000000440040704700002DE9F84F55
:1046A0000446206805682068C668206847694FF09E
:1046B0000009CA4605F00F09B9F1000F0AD105F04B
:1046C000200038B106F0200020B1204602F011FA97
:1046D000BDE8F88FB9F1000F7CD007F0010018B9E0
:1046E00006F49070002875D005F0010030B106F492
:1046F000807018B1606C40F00100606405F0040047
:1047000030B107F0010018B1606C40F00200606445
:1047100005F0020030B107F0010018B1606C40F004
:104720000400606405F0080048B106F0200010B9EC
:1047300007F0010018B1606C40F008006064606C24
:10474000002846D005F0200028B106F0200010B166
:10475000204602F0CEF920684069C0F3801A606CF0
:1047600000F0080010B9BAF1000F2DD0204602F079
:104770007AF92068406900F04000402820D100BF4D
:1047800000BF2168143151E8001F21F0400021686A
:10479000143141E80002002AF3D100BFE06B50B1B0
:1047A0007F48E16B0865E06BFDF7B8FC88B1E06B12
:1047B000016D88470DE02046FFF76EFF09E009E034
:1047C0002046FFF769FF04E02046FFF765FF002061
:1047D00060647DE7206B012878D105F01000002887
:1047E00074D006F010000028FAD000BF002000901E
:1047F00020680068009020684068009000BF00BFFB
:104800002068406900F04000402870D1E06B0068EB
:1048100040681FFA80F8B8F1000F58D0A08D4045CD
:1048200055DDA4F82E80E06BC069B0F5807F43D0E1
:1048300000BF00BF21680C3151E8001F21F48070D7
:1048400021680C3141E80002002AF3D100BF00BF0B
:1048500000BF2168143151E8001F21F001002168D8
:10486000143141E80002002AF3D100BF00BF00BFAD
:104870002168143151E8001F21F0400021681431F3
:1048800041E80002002AF3D100BF202084F8420052
:104890000020206300BF00BF21680C3151E8001FD9
:1048A00021F0100021680C3141E80002002AF3D108
:1048B00000BFE06BFDF7DCFB02206063A08DE28DA2
:1048C000801A81B22046FFF7D9FE0EE052E0A08D9B
:1048D00040450AD1E06BC069B0F5807F05D1022068
:1048E0006063A18D2046FFF7C9FEF1E6FFE7A08DCA
:1048F000E18D401A1FFA80F8E08DD0B3B8F1000FB7
:1049000037D000BF00BF21680C3151E8001F21F4EF
:10491000907021680C3141E80002002AF3D100BFF9
:1049200000BF00BF2168143151E8001F21F00100D1
:104930002168143141E80002002AF3D100BF202091
:1049400084F842000020206300BF00BF21680C31C2
:1049500051E8001F21F0100021680C3141E80002ED
:10496000002AF3D100BF0220606341462046FFF7D2
:1049700085FEADE605F0800030B106F0800018B18C
:10498000204602F06BFAA3E605F0400030B106F0D5
:10499000400018B1204602F09CF899E600BF97E667
:1049A000556A000810B504460CB9012010BDA06975
:1049B00000B100E000BF94F8410028B9002084F85D
:1049C0004000204600F02AF8242084F841002068A6
:1049D000C06820F400502168C860204602F008F941
:1049E0002068006920F490402168086120684069CF
:1049F00020F02A00216848612068C06840F4005017
:104A00002168C86000206064202084F8410084F898
:104A100042000020606300BFC8E7000010B586B008
:104A20000446142101A8FBF7C7FC3B4920688842D3
:104A300031D100BF002000903848006840F01000DD
:104A4000364908600846006800F01000009000BF7A
:104A500000BF00BF0020009030481438006840F0CC
:104A600001002E49143908600846006800F0010072
:104A7000009000BF00BF4FF4C06001900220029080
:104A800000200390032004900720059001A92448EA
:104A9000FDF766FD3DE023492068884239D100BF1B
:104AA000002000901D48001F006840F400301B49A2
:104AB000091F08600846006800F40030009000BF3D
:104AC00000BF00BF0020009014481438006840F078
:104AD00001001249143908600846006800F001001E
:104AE000009000BF00BF0C20019002200290002027
:104AF0000390032004900720059001A90848FDF7C2
:104B00002FFD002205212620FEF7AAF92620FEF718
:104B100093F906B010BD0000001001404438024077
:104B2000000002400044004070472DE9F84F044661
:104B30000E46174699464FF0000A94F84100202887
:104B400050D106B117B90120BDE8F88F002060648C
:104B5000212084F84100FDF70BFE8246A784E784FC
:104B6000A068B0F5805F04D1206910B90025B04677
:104B700002E035464FF000081EE053460022802137
:104B80002046CDF8009002F099F920B1202084F859
:104B900041000320D8E745B9B8F80000C0F3080089
:104BA0002168486008F1020803E02878216848601D
:104BB0006D1CE08C401EE084E08C0028DDD1534663
:104BC000002240212046CDF8009002F077F920B174
:104BD000202084F841000320B6E7202084F841001B
:104BE0000020B1E70220AFE7704700BFFEE70146B3
:104BF00008684069C0F38020B0B16FF480600A6833
:104C0000506100200863202081F83D00002081F8D9
:104C10003E00086C40F00400086400BF002081F8EA
:104C20003C0000BF012070470020FCE72DE9F8435D
:104C300004460F4615469946DDE908862068006857
:104C400040F48060216808602068006840F480704B
:104C500021680860434600224FF00111204600966B
:104C600000F094F860B12068006800F48070B0F53E
:104C7000807F02D14FF4007020640320BDE8F883E8
:104C800007F0FE0021680861334642463E4920464F
:104C900000F0DBF808B10120F0E700BF0020009031
:104CA00020684069009020688069009000BF00BFC4
:104CB00032464146204600F08AF950B1206C042863
:104CC00005D12068006840F4007021680860012068
:104CD000D4E7B9F1010F03D1E8B22168086117E008
:104CE000C5F307202168086132464146204600F09E
:104CF0006EF950B1206C042805D12068006840F49A
:104D00000070216808600120B8E7E8B221680861F6
:104D100032464146204600F05AF950B1206C042832
:104D200005D12068006840F4007021680860012007
:104D3000A4E72068006840F480702168086043465A
:104D400000224FF001112046009600F01FF858B1E4
:104D50002068006800F48070B0F5807F02D14FF4C5
:104D600000702064032089E7F8B240F00100216858
:104D70000861334642460449204600F066F808B10F
:104D800001207BE7002079E7020001002DE9F041D6
:104D900004460D4617461E46DDF8188038E0701CA4
:104DA000A8B3FDF7E5FCA0EB0800B04200D876BB45
:104DB000C5F3074001280AD120684069A9B208401C
:104DC000A9B2884201D101200BE0002009E020684F
:104DD0008069A9B20840A9B2884201D1012000E04F
:104DE0000020B84214D100202063202084F83D0028
:104DF000002084F83E00206C40F02000206400BFBA
:104E0000002084F83C0000BF0120BDE8F081FFE7EE
:104E1000C5F3074001280AD120684069A9B20840BB
:104E2000A9B2884201D101200BE0002009E02068EE
:104E30008069A9B20840A9B2884201D1012000E0EE
:104E40000020B842ABD00020DFE72DE9F041044656
:104E50000D4616461F4658E020684069C0F3802082
:104E6000E8B12068006840F40070216808606FF4C1
:104E700080602168486100202063202084F83D0084
:104E8000002084F83E00206C40F00400206400BF45
:104E9000002084F83C0000BF0120BDE8F081701CB8
:104EA00090B3FDF765FCC01BB04200D866BBC5F3EC
:104EB000074001280AD120684069A9B20840A9B278
:104EC000884201D101200BE0002009E020688069C0
:104ED000A9B20840A9B2884201D1012000E0002017
:104EE00090B900202063202084F83D00002084F841
:104EF0003E00206C40F02000206400BF002084F8B9
:104F00003C0000BF0120C8E7FFE7C5F307400128C8
:104F10000AD120684069A9B20840A9B2884201D1EB
:104F200001200BE0002009E020688069A9B2084058
:104F3000A9B2884201D1012000E0002000288BD0D6
:104F40000020AAE770B504460D46164637E02068F3
:104F50004069C0F30010A0B16FF0100021684861F3
:104F600000202063202084F83D00002084F83E00CB
:104F7000206C206400BF002084F83C0000BF0120AA
:104F800070BDFDF7F5FB801BA84200D8BDB92068B5
:104F90004069C0F3801090B900202063202084F87D
:104FA0003D00002084F83E00206C40F0200020648A
:104FB00000BF002084F83C0000BF0120E0E720682B
:104FC0004069C0F380100028C1D00020D8E770B538
:104FD00004460D46164625E02046FFF708FE08B1B8
:104FE000012070BD681CE8B1FDF7C2FB801BA84220
:104FF00000D8BDB920684069C0F3C01090B9002046
:105000002063202084F83D00002084F83E00206CBE
:1050100040F02000206400BF002084F83C0000BF66
:105020000120DEE720684069C0F3C0100028D3D01B
:105030000020D6E770B5044606480480012506E046
:105040004FF4806204490548FFF7DFFA0546002D5A
:10505000F6D170BD32C4012032C00120D40200203C
:1050600010B505A000F01AF806A000F017F808A087
:1050700000F014F810BD00005043415330312C3182
:10508000000000005043415330342C320000000037
:105090005043415330322C313030300070B58EB037
:1050A0000446342101A8FBF787F92578002003E0A6
:1050B000215C4D40411CC8B2215C0029F8D12B462F
:1050C000224608A101A801F059FF01A8FBF791F9B8
:1050D00086B24FF47A73324601A90548FFF725FDE1
:1050E0000EB070BD2425732A253032580000000010
:1050F000D4020020F8B504460D460020009004229A
:105100006946032000F034F89DF801009DF8001076
:1051100001F00F0140EA01269DF803009DF80210FE
:1051200001F00F0140EA0127EF2E02D3002020807A
:1051300002E0C6F1EF002080B7F5A07F03D340F274
:105140003F10288000E02F80F8BD00000448007860
:1051500020B1002002490870012070470020FCE7C0
:1051600030C00120012001490870704730C0012083
:10517000FEB504460D4616464FF4FA60012322465A
:105180002B21CDE9005602900148FDF7DFFBFEBD63
:1051900050C5012010B52DED068B1048FCF74AFED6
:1051A00044002046FBF7B7FD41EC1A0B9FED0C0BBA
:1051B00053EC102BFBF7BDFC41EC190B9FED0A0BD8
:1051C00053EC102BFBF727FD41EC180BFBF72CFEE3
:1051D00000EE100ABDEC068B10BD000008C50120D2
:1051E0006666666666660A400000000000FEAF4024
:1051F00010B50248FCF796FE10BD000008C501205E
:1052000010B54FF400410448FDF7A4FA08B9012095
:1052100010BD0020FCE700000004024010B508218A
:105220000C48FDF797FA98B90A205DF025FC082193
:105230000848FDF78FFA58B909E008210548FDF73D
:1052400089FA012800D110BD03205DF015FCF4E7B8
:105250000020F8E70004024010B500224FF480411E
:105260000148FDF77FFA10BD000402401FB5002081
:1052700000900190029003901548164908600020A4
:1052800048600021134881600161012101760021FD
:1052900080F82010C162104981620021C1600121A3
:1052A000C161002180F8301001214161FCF7C6FD89
:1052B00008B1FCF7B1FA0120009001900290694614
:1052C0000448FCF7F1FC08B1FCF7A6FA1FBD00008A
:1052D0000020014008C501200100000F08B500BFF3
:1052E000002000900E48006840F480000C490860DF
:1052F0000846006800F48000009000BF00BF002254
:1053000005213B20FDF7ACFD3B20FDF795FD00227C
:1053100005214520FDF7A4FD4520FDF78DFD08BDC5
:105320003038024010B503490348FCF778FA0349C6
:10533000087010BDF9C40120881A0808F8C40120BB
:1053400010B50B4A00210B484BF026FF0A490860B4
:105350000A4A00210A484BF01FFF0A4908600A4A1E
:1053600000210A484BF018FF0949086010BD0000F1
:10537000584A060809560008240000207C4A0608FE
:105380000557000828000020A04A060885180008D4
:105390002C00002000B587B0142102A8FBF70CF800
:1053A00000BF002001904F48006840F004004D49C4
:1053B00008600846006800F00400019000BF00BFCC
:1053C00000BF002001900846006840F0800008609F
:1053D0000846006800F08000019000BF00BF00BFD9
:1053E000002001900846006840F00100086008466F
:1053F000006800F00100019000BF00BF00BF002066
:1054000001900846006840F0020008600846006805
:1054100000F00200019000BF00BF00BF002001901B
:105420000846006840F0080008600846006800F080
:105430000800019000BF00BF002210212A48FDF79C
:1054400091F9012240212848FDF78CF9012245F20B
:1054500003012648FDF786F95020029001200390B1
:10546000002004900220059002A91F48FDF778F85B
:1054700045F20300029001200390002004900220D6
:10548000059002A91948FDF76BF84FF400500290FF
:105490004FF4881003900220049002A91348FDF7EE
:1054A0005FF848F208000290002003900120049069
:1054B00002A90E48FDF754F84FF4807002900020C6
:1054C00003900120049002A90748FDF749F8002243
:1054D00005212820FDF7C4FC2820FDF7ADFC07B00E
:1054E00000BD0000303802400000024000040240CD
:1054F00010B50B480B4908600B484860002109486B
:105500008160C1604FF4804101610021416181618E
:10551000C1610162FDF732F908B1FCF77DF910BDF8
:105520000058004050C50120801A0600074808496D
:10553000086000204860002105488160C160016169
:105540004FF480414161062181617047002C014088
:10555000A801002010B50E480E4908604FF4827073
:10556000486000210B488160C160016141614FF4D6
:10557000007181611021C16100210162416281627B
:105580000A21C162FEF73EFC08B1FCF745F910BDE7
:1055900000300140A4C5012010B50B480B4908603C
:1055A0004FF4E1304860002108488160C16001612A
:1055B0000C21416100218161C161FFF7F3F908B15C
:1055C000FCF72AF910BD0000001001408C020020F9
:1055D00010B50B480B4908604FF416504860002185
:1055E00008488160C16001610C2141610021816135
:1055F000C161FFF7D7F908B1FCF70EF910BD000043
:1056000000440040D402002008B501222A492B485A
:1056100012F060FF05465C2129A0FAF7F1FE28B1DF
:105620005C2127A0FAF7ECFE401C00E024A006460F
:105630002F21FAF7E5FE88B15C2121A0FAF7E0FE00
:1056400028B15C211EA0FAF7DBFE401C00E01CA084
:1056500006462F21FAF7D4FE401C0BE05C2118A06F
:10566000FAF7CEFE28B15C2115A0FAF7C9FE401C5E
:1056700000E013A00446104BCC22214616A0009552
:1056800001F06CFC34F0AAFA1A4849F0A1FA1A4861
:1056900024F0B2FD42F056F842F084F85BF048FA8C
:1056A00000BF49F0B7FB0446052C00D20524204674
:1056B0004BF045FBF5E70000F9C401206C1F012009
:1056C0002E2E2F436F72652F5372632F667265659E
:1056D00072746F732E6300005B25733A25645D66F8
:1056E0005F6D6F756E7428257329203D2025640D2C
:1056F0000A000000E1420608792A060800BFFEE71A
:1057000000BFFEE7FFF774FD00BFFFF787FD08B19C
:10571000FFF7A2FDFFF774FD07490870FFF73AFD98
:10572000064880ED000A002105481FF045FD0A20CB
:105730004BF005FBE9E7000000000020040000201A
:10574000751C060810B502460023086850624868B8
:105750009062D1E9020420430C6920434C69204344
:105760000343D06A20F0F7001843D062002010BD38
:1057700001460869C0B270470146086800F003009E
:105780007047024602F114004318186870470FB4BE
:1057900010B504460021DDE903021043059A1043C9
:1057A000069A1043079A1043089A10430143606811
:1057B00047F6FF62904308436060002010BC5DF82C
:1057C00014FB014603200860002070470146D1F811
:1057D0008000704710B50246002308689060D1E948
:1057E00001042043CC6820430C6920430343D06864
:1057F0006FF30B001843D060002010BD70B585B06A
:1058000005460C460094372001904020029000206D
:1058100003904FF48060049069462846FFF7DAFF52
:1058200041F288323721284600F0DCF9064630463E
:1058300005B070BD70B585B005460C460B482043D9
:1058400000902920019040200290002003904FF406
:105850008060049069462846FFF7BCFF284600F0A8
:10586000C9FA0646304605B070BD00000000108041
:1058700070B585B005460C4600941020019040207C
:105880000290002003904FF48060049069462846FF
:10589000FFF7A0FF41F288321021284600F0A2F95C
:1058A0000646304605B070BD70B585B005460C465D
:1058B00000940620019040200290002003904FF4B5
:1058C0008060049069462846FFF784FF41F28832E1
:1058D0000621284600F086F90646304605B070BD20
:1058E00030B585B0044600200090019002900390EE
:1058F0004FF48060049069462046FFF76BFF204616
:1059000000F050F90546284605B030BD30B585B0E9
:1059100004464FF4D570009008200190402002907A
:10592000002003904FF48060049069462046FFF702
:1059300051FF204600F0E6FA0546284605B030BD86
:1059400070B585B005460C460094122001904020A9
:105950000290002003904FF480600490694628462E
:10596000FFF738FF41F288321221284600F03AF959
:105970000646304605B070BD70B585B005460C468C
:1059800000941120019040200290002003904FF4D9
:105990008060049069462846FFF71CFF41F2883278
:1059A0001121284600F01EF90646304605B070BDAC
:1059B000F0B585B0064614461D46009407200190B8
:1059C00040200290002003904FF4806004906946CC
:1059D0003046FFF7FFFE41F288320721304600F0E3
:1059E00001F90746384605B0F0BD30B585B004462C
:1059F0000020009002200190C0200290002003901F
:105A00004FF48060049069462046FFF7E3FE20468D
:105A100000F0BEF90546284605B030BD70B585B02A
:105A200005460C46009409200190C02002900020F9
:105A300003904FF48060049069462846FFF7CAFE41
:105A4000284600F0A5F90646304605B070BD30B5D1
:105A500085B0044600200090332001904020029041
:105A6000002003904FF48060049069462046FFF7C1
:105A7000B1FE41F288323321204600F0B3F80546EA
:105A8000284605B030BD70B585B005460C4600947B
:105A90000D20019040200290002003904FF4806080
:105AA000049069462846FFF795FE41F288320D21A1
:105AB000284600F097F80646304605B070BD70B530
:105AC00085B005460C460020009003200190402040
:105AD0000290002003904FF48060049069462846AD
