:020000040800F2
:10000000B89101205D02000815420008D3380008AD
:1000100011420008E10C00082D5900080000000002
:100020000000000000000000000000009D0100082A
:100030000F0E000800000000F90100083D54000800
:1000400077020008770200087702000877020008AC
:10005000770200087702000877020008770200089C
:10006000770200087702000877020008770200088C
:10007000770200087702000877020008770200087C
:10008000770200087702000877020008770200086C
:10009000770200087702000877020008770200085C
:1000A000770200087702000877020008770200084C
:1000B000770200087702000877020008770200083C
:1000C000770200087702000877020008770200082C
:1000D000770200087702000877020008770200081C
:1000E000110E000877020008770200087702000866
:1000F00077020008770200087702000877020008FC
:1001000077020008770200087702000877020008EB
:1001100077020008770200087702000819550008E6
:10012000770200087702000877020008E50C000853
:1001300077020008000000000000000077020008BD
:1001400077020008770200087702000877020008AB
:1001500077020008F50C0008770200087702000813
:10016000770200087702000877020008770200088B
:10017000770200087702000800000000000000007D
:100180007702000877020008DFF80CD000F03EFC90
:100190000048004715E80408B89101202C4B196865
:1001A0000868B0E8F04F80F30988BFF36F8F4FF015
:1001B000000080F3118870470000000008480068C4
:1001C000006880F308884FF0000080F3148862B65E
:1001D00061B6BFF34F8FBFF36F8F00DF00BF00BF6B
:1001E00008ED00E0DFF80C00016841F470010160E7
:1001F000704700BF88ED00E0EFF30980BFF36F8F19
:10020000134B1A681EF0100F08BF20ED108A20E96A
:10021000F04F106009B44FF0500080F31188BFF325
:100220004F8FBFF36F8F60F0BDFC4FF0000080F385
:10023000118809BC19680868B0E8F04F1EF0100F6B
:1002400008BFB0EC108A80F30988BFF36F8F704746
:100250000C000020EFF3058070470000064880473F
:1002600006480047FEE7FEE7FEE7FEE7FEE7FEE79B
:10027000FEE7FEE7FEE7FEE70555000889010008F6
:100280002DE9F05F0546002092469B4688460646CB
:10029000814640241BE0284641464746224600F05E
:1002A000F9FA53465A46C01A914110D311461846DE
:1002B000224600F047F82D1A67EB01084F46224608
:1002C0000120002100F03EF817EB00094E41201EEE
:1002D000A4F10104DFDC484631462A464346BDE826
:1002E000F09F2DE9F0410024061B254671F1000620
:1002F00005DA01240027D0EB070067EB0101161E89
:1003000073F1000605DA0027D2EB0702012567EB3F
:100310000303FFF7B5FF86460E4617469C46AC42E0
:1003200004D00025D0EB050E65EB010624B10020BA
:10033000D2EB000760EB030C704631463A46634649
:10034000BDE8F081202A04DB203A00FA02F1002007
:1003500070479140C2F1200320FA03F31943904003
:100360007047202A06DBCB17203A41FA02F043EA15
:10037000E07306E041FA02F3D040C2F1200291405E
:1003800008431946704740EA01039B0703D009E080
:1003900008C9121F08C0042AFAD203E011F8013B71
:1003A00000F8013B521EF9D27047D2B201E000F8CA
:1003B000012B491EFBD270470022F6E710B5134609
:1003C0000A4604461946FFF7F0FF204610BD0246D4
:1003D000C9B200E0401C0378002BFBD102E0037897
:1003E0008B4203D0401E9042F9D2002070472DE985
:1003F000FE4F804681EA0300C00F0C46009021F0BA
:10040000004123F00045B8EB0200A94105D2404667
:10041000214690461C460B46024623F000401043FE
:1004200047D0270DC7F30A00C3F30A510290401AC0
:10043000019040286BDAC3F3130040F4801B00984E
:10044000924620B10023D2EB030A63EB0B0B019819
:100450005946C0F140025046FFF774FF06460D466C
:1004600050465946019AFFF77CFF10EB08006141A6
:10047000002487EA115284EAE7731A4340D0009AB5
:1004800062B3019A012A4FEA075215DC001B61EBA7
:1004900002014FF0004202EA0752CDE90042001C7F
:1004A00041F5801132462B4600F04AFA03B0BDE810
:1004B000F08F40462146F9E7001B61EB0201001C6A
:1004C00041F5801300185B412018A2F5001747EB97
:1004D000030140EAD570B6196D4111E06D084FEA8D
:1004E000360645EAC0754FEA0752001B61EB020170
:1004F000001C41F5801149084FEA300000195141B4
:1005000032462B4603B0BDE8F04F00F00ABA00981F
:10051000012240000023D0EB020263EBE07300985D
:1005200021464FEAE074B8EB000061EB0401E9E713
:1005300083F000435BE781F0004158E72DE9FE4F6F
:1005400081EA030404F0004421F0004100944FF0DC
:10055000000B23F0004350EA01045ED052EA03048A
:100560005BD0C3F30A54C1F30A552C44A4F2F3340C
:100570000194A0FB0254C1F3130141F48011C3F3B1
:10058000130343F4801301FB024400FB034E840A6F
:10059000970A44EA815447EA8357A4FB0768029507
:1005A0008D0A05FB07854FEA932C04FB0C542705A5
:1005B000029D4FEA065847EA1637B5EB08056EEB81
:1005C000070C870E920E47EA811742EA8312A7FBB7
:1005D0000201B6EB0B0164EB00042B0D43EA0C3374
:1005E0005E1844EB1C50DA465146E7FB0201C5F3A6
:1005F00013044FEA0B3343EA14534FEA0432019CCD
:1006000043EA0603A4F10C040294009CCDE900B473
:1006100000F096F903B0BDE8F08F00200146F9E73D
:100620002DE9F04D81EA030404F0004B21F0004570
:1006300014464FF0000A23F0004150EA050220D092
:1006400054EA01021DD0C5F30A570246C5F313034D
:10065000C1F31300C1F30A5640F4801543F480132C
:10066000A7EB0608101BD64608F2FD3873EB050011
:1006700002D308F1010801E092185B41B8F1000FC4
:1006800003DA00200146BDE8F08D00204FF4801110
:10069000064684460EE0171B73EB050705D3121BB5
:1006A00063EB050306434CEA010C49084FEA3000AE
:1006B00092185B4150EA0107EDD152EA030012D0D3
:1006C00082EA040083EA0501084305D0101BAB4110
:1006D00006D20122002306E000224FF0004302E090
:1006E0006FF0010253101AEB06004CEB085110EBAF
:1006F0000A0041EB0B01BDE8F04D00F012B90EB558
:10070000C10F80EAE0700844CA07002140F2334379
:100710008DE80E000A460B4600F012F903B000BD4A
:100720000EB540F2334102910021CDE900110A4695
:100730000B4600F005F903B000BD70B5C1F30A52D5
:1007400001F000450024C1F3130140F2FF3341F4EE
:1007500080119A4201DA002070BD40F233439A4280
:10076000A2F2334203DC524200F094F800E09040E1
:100770002C43F1D0404270BDC1F30A5210B5C1F311
:10078000130140F2FF3341F480119A4201DA002054
:1007900010BD40F233439A42A2F2334203DC52428C
:1007A00000F078F810BD904010BD00F0004230F02D
:1007B00000400AD0C10D01F56071C0F3160042EA95
:1007C0000151C2084007114370470020014670479D
:1007D00030B5041E71F1000404DB4FF000444042C8
:1007E00064EB0101141E73F1000405DB1C464FF09D
:1007F0000043524263EB04038B4208BF824230BD88
:1008000030B5041E71F1000404DB4FF00044404297
:1008100064EB0101141E73F1000405DB1C464FF06C
:100820000043524263EB0403994208BF904230BD3B
:1008300001F0004330B421F0004150EA010206D03B
:100840000A0DA2F56072C1F31301002A02DC30BC6C
:1008500000207047440F44EAC104C100E01830BCD6
:1008600000EBC25000F026B830B50B460146002020
:100870002022012409E021FA02F59D4205D303FA62
:1008800002F5491B04FA02F52844151EA2F10102E3
:10089000F1DC30BD202A04DB203A21FA02F00021ED
:1008A000704721FA02F3D040C2F120029140084380
:1008B000194670470029A8BF7047401C490008BF6F
:1008C00020F00100704710B4B0FA80FC00FA0CF080
:1008D00050EA010404BF10BC704749B1CCF12004B8
:1008E00021FA04F411FA0CF118BF01212143084345
:1008F000A3EB0C01CB1D4FEA00614FEA102042BF71
:10090000002010BC704700EBC35010440029A4BF66
:1009100010BC7047401C490008BF20F0010010BC0B
:10092000704710B5141E73F1000408DA401C41F141
:10093000000192185B411A4301D120F0010010BD63
:100940002DE9F04D92469B4611B1B1FA81F202E0D9
:10095000B0FA80F220329046FFF7F4FC04460F46CE
:1009600040EA0A0041EA0B0153465A46084313D0B5
:10097000114653EA010019D0C8F140025046FFF772
:1009800089FF05460E46504659464246FFF7DAFCB7
:10099000084305D0012004E020463946BDE8F08D2B
:1009A0000020054346EAE0762C4337430A98630566
:1009B000E40AA0EB08000022FD0A44EA47540A308A
:1009C00002D500200146E9E7010510196941DDE97A
:1009D000084500196941BDE8F04DA2E7C1F30A528C
:1009E000C1F3130140F2FF3341F480119A4202DA5D
:1009F00000200146704740F233439A42A2F233424C
:100A000002DC5242FFF746BFFFF79CBC064C074D85
:100A100006E0E06840F0010394E8070098471034CE
:100A2000AC42F6D3FFF7B4FBA0080808E0080808BA
:100A300070B58C1810F8015B15F0070301D110F8A0
:100A4000013B2A1106D110F8012B03E010F8016BCD
:100A500001F8016B5B1EF9D12B0705D40023521E50
:100A60000DD401F8013BFAE710F8013BCB1A921CB8
:100A700003E013F8015B01F8015B521EF9D5A142B6
:100A8000D8D3002070BD000055494A6822F4403296
:100A90004A604A6843681A434A600268526822F40E
:100AA000807203685A6002685368026943EA02224E
:100AB00003685A600268526822F0407203685A6004
:100AC0000268526883681A4303685A600268926831
:100AD00022F4006203689A6002689268C3681A434D
:100AE00003689A603F4B826A9A4218D00268926803
:100AF00022F0706203689A6002689268836A1A43FF
:100B000003689A600268926822F0405203689A6013
:100B100002689268C36A1A4303689A600BE002682D
:100B2000926822F0706203689A600268926822F00C
:100B3000405203689A600268926822F002020368D9
:100B40009A6002689368027E43EA420203689A60F0
:100B50002022125CA2B10268526842F4006203686B
:100B60005A600268526822F4604203685A60026860
:100B70005368426A521E43EA423203685A6005E0F3
:100B80000268526822F4006203685A600268D26AFE
:100B900022F470020368DA620268D36A828B521E02
:100BA00043EA02520368DA620268926822F4007231
:100BB00003689A600268936890F8302043EA422202
:100BC00003689A600268926822F4806203689A60FF
:100BD00002689368426943EA822203689A60704718
:100BE000002301400100000F10B501242102034839
:100BF00000F036FE00B10024204610BD0000024087
:100C000010B504462146024801F0FCFE10BD00006C
:100C1000A4C1012010B5044801F007FF042801D049
:100C2000012010BD0020FCE7A4C1012010B5002464
:100C300000F014F8012801D0012010BD064801F091
:100C400006FF044634B94FF40061034801F090FDFB
:100C500000B101242046F0E7A4C1012008B501201D
:100C60000090FFF7C1FF08B9002000909DF8000038
:100C700008BD00002DE9F04104460D461646002748
:100C800033462A462146044801F0E8FF00B1012717
:100C90003846BDE8F0810000A4C1012008B501205C
:100CA000009000231A466946024800684EF014FB83
:100CB00008BD000098C101202DE9F04104460D4611
:100CC0001646002733462A462146044802F074F8A7
:100CD00000B101273846BDE8F0810000A4C1012021
:100CE00000BFFEE710B5024800F0B6FA10BD0000E4
:100CF000F801002010B5024800F0AEFA10BD000067
:100D000028C201200146087810381823B0FBF3F2FE
:100D10000848805CC865032A05D908686FF3090094
:100D2000001D886503E008686FF309008865886D19
:100D30007047000074280608014600208A6A8B6903
:100D4000CBB932B1012A0DD0022A03D0032A10D127
:100D50000EE000BFCB6A03F08073B3F1807F00D157
:100D6000012007E0CB6AB3F1C07F00D1012001E090
:100D700000E000BF34E08B69B3F5005F1AD132B1F7
:100D8000012A07D0022A03D0032A11D10AE000BFAA
:100D900001200EE0CB6A03F08073B3F1807F00D1B5
:100DA000012006E0CB6AB3F1C07F00D1012000E052
:100DB00000BF15E032B1012A05D0022A04D0032A6F
:100DC0000CD103E000BF00BF012008E0CB6A03F0B4
:100DD0008073B3F1807F00D1012000E000BF00BF2D
:100DE000704730B50468246824F4802405682C60BA
:100DF000046863608468402C04D10468A2600468BD
:100E0000E16003E00468A1600468E26030BD7047FF
:100E100010B54FF4005000F01BFC10BD72B600BFBF
:100E2000FEE730B504460D4600222946204600F074
:100E300001F830BDF0B50346012500241148407A81
:100E400001281CDA00200F4E767A0E4FB85538462E
:100E5000467A001D40F82630001F467A0830825539
:100E60003E46707A461C7E72044604F130000870DB
:100E70003A2048702F2088700020C870002528462E
:100E8000F0BD0000A0D1012038B50246002000903E
:100E900000BF92F83C00012801D1022038BD01209A
:100EA00082F83C0000BF0868092816D91068C0689D
:100EB0000C780A3C04EB44050724AC40A0431468BA
:100EC000E0600C780A3C04EB44048868A040146895
:100ED000E46820431468E06013E0106800690C784F
:100EE00004EB44050724AC40A043146820610C784F
:100EF00004EB44048868A040146824692043146803
:100F000020614868072817D21068406B0C79641E6E
:100F100004EB84051F24AC40A04314686063088878
:100F200080B20C79641E04EB8404A0401468646BE6
:100F300020431468606331E048680D2817D21068B8
:100F4000006B0C79E41F04EB84051F24AC40A04324
:100F500014682063088880B20C79E41F04EB8404D1
:100F6000A0401468246B20431468206316E01068C6
:100F7000C06A0C790D3C04EB84051F24AC40A043EF
:100F80001468E062088880B20C790D3C04EB84049C
:100F9000A0401468E46A20431468E062194B1A4CBC
:100FA0001068A04206D10868122803D1586840F49E
:100FB00080005860144C1068A0421CD108681028AA
:100FC00002D00868112816D1586840F40000586013
:100FD000086810280FD10D4800680D4CB0FBF4F0E4
:100FE00000EB80004000009002E00098401E00905E
:100FF00000980028F9D100BF002082F83C0000BF13
:1010000000BF4BE7002301400020014008C0012041
:1010100040420F0001460868C06C704770B5044636
:1010200000250CB9012070BD1549A06A884200D086
:1010300000BF206C30B9204600F024F80020606426
:1010400084F83C00206C00F0100088B9206C20F47B
:10105000885040F0020020642046FFF715FD002074
:101060006064206C20F0020040F00100206400E089
:10107000012500BF002084F83C0000BF2846D2E7CD
:101080000100000F10B586B00446142101A8FFF737
:1010900093F91949206888422BD100BF00200090A5
:1010A0001648006840F480701449086008460068DB
:1010B00000F48070009000BF00BF00BF00200090CF
:1010C0000E481438006840F001000C4914390860DB
:1010D0000846006800F00100009000BF00BF022039
:1010E0000190032002900020039001A9044800F021
:1010F000BDFA06B010BD0000002001404438024097
:101100000000024008B501460020009000BF91F8A1
:101110003C00012801D1022008BD012081F83C00DB
:1011200000BF0868806800F00100A0B90868806806
:1011300040F001000B6898603F4800683F4BB0FBEF
:10114000F3F000EB4000009002E00098401E009099
:1011500000980028F9D10868806800F00100002894
:1011600060D0086C40F20163984340F480700864DA
:101170000868406800F4806028B1086C20F40050D2
:1011800040F480500864086C00F48050B0F5805F33
:1011900004D1486C20F00600486401E00020486457
:1011A00000BF002081F83C0000BF254A6FF02200FC
:1011B0000B681860506800F01F0018BB214B0868CE
:1011C000984213D0204B0868984204D1101D006843
:1011D00000F01F0050B11D4B086898422AD11848F2
:1011E000001D006800F01F00102823D208688068E6
:1011F00000F04050F0B90868806840F080400B680B
:10120000986017E00F4B0868984213D1086880680F
:1012100000F0405070B90868806840F080400B686A
:10122000986007E0086C40F010000864486C40F0DB
:101230000100486400206FE708C0012040420F0011
:101240000023014000200140002101400022014014
:101250000146486D70470000F8B504460020009034
:101260008C4800684FF41651B0FBF1F7A56D2E685D
:1012700094F85C1008208840304098B120680068DD
:1012800000F0040070B12068006820F004002168BC
:10129000086094F85C1008208840A860606D40F0F9
:1012A0000100606594F85C1001208840304068B10E
:1012B0002068406900F0800040B194F85C10012083
:1012C0008840A860606D40F00200606594F85C1092
:1012D00004208840304068B12068006800F00200B7
:1012E00040B194F85C1004208840A860606D40F024
:1012F0000400606594F85C1010208840304078B39A
:101300002068006800F0080050B394F85C101020CA
:101310008840A8602068006800F4802080B12068C0
:10132000006800F4002028B9206CC8B12046216C68
:10133000884715E0A06C98B12046A16C88470FE063
:101340002068006800F4807028B92068006820F0E8
:10135000080021680860206C10B12046216C884785
:1013600094F85C10202088403040002865D0206828
:10137000006800F0100000285FD094F85C10202076
:101380008840A86094F83500052828D120680068B6
:1013900020F01600216808602068406920F0800075
:1013A00021684861206C08B9A06C28B120680068E9
:1013B00020F008002168086094F85C103F20884005
:1013C000A860012084F8350000BF002084F83400B4
:1013D00000BF206D10B12046216D8847F8BD206800
:1013E000006800F4802080B12068006800F40020CC
:1013F00028B9606C10B12046616C88471DE0E06B35
:10140000D8B12046E16B884717E02068006800F4F7
:10141000807068B92068006820F0100021680860BA
:10142000012084F8350000BF002084F8340000BF9C
:10143000E06B10B12046E16B8847606D38B3606D9A
:1014400000F00100F0B1052084F835002068006844
:1014500020F001002168086000BF0098401C009047
:10146000B84200D905E02068006800F001000028BB
:10147000F3D100BF012084F8350000BF002084F8BC
:10148000340000BFE06C10B12046E16C884700BF1B
:10149000A4E7000008C001202DE9F0410446002522
:1014A00000F0ECF9074614B90120BDE8F081606A4C
:1014B00000B100BF022084F8350000BF002084F88E
:1014C000340000BF2068006820F001002168086037
:1014D0000AE000F0D3F9C01B052805D9202060657B
:1014E000032084F83500E0E72068006800F0010080
:1014F0000028EED12068056821480540D4E90101A3
:101500000843E16808432169084361690843A16908
:101510000843E1690843216A08430543606A0428D7
:1015200003D1D4E90B010843054320680560206816
:10153000456925F00705606A0543606A04280DD1F6
:10154000A06A0543E06A48B12046FFF7F5FB28B1E1
:1015500040206065012084F83500A6E720684561D9
:101560002046FFF7CFFB064694F85C103F208840EA
:10157000B06000206065012084F83500002094E709
:101580003F8010F02DE9F04704460D4616461F46F1
:101590004FF00008D4F8589000BF94F834000128A8
:1015A00002D10220BDE8F087012084F8340000BF9A
:1015B00094F83500012825D1022084F83500002058
:1015C00060653B46324629462046FFF70AFC94F800
:1015D0005C103F208840C9F808002068006840F08F
:1015E000160021680860206C28B12068006840F06F
:1015F0000800216808602068006840F00100216848
:10160000086006E000BF002084F8340000BF4FF0FF
:1016100002084046C6E7000070B5044600F02EF907
:1016200006462546681C10B104480078054400BFF2
:1016300000F024F9801BA842FAD370BD08000020F6
:1016400010B50446B4F5005F01D102F093FB10BD64
:1016500010B5044604480068204020B102480460E8
:101660002046FFF7EDFF10BD143C0140F8B50246DF
:101670000B460025002400200021D6E0012606FAB2
:1016800001F51E6806EA0504AC4274D11E7906F025
:101690000306012E04D01E7906F00306022E13D194
:1016A00090684F000326BE40B0434F00DE68BE4046
:1016B00030439060506801268E40B0431E79C6F3D7
:1016C00000168E40304350601E7906F00306032E4C
:1016D00009D0D0684F000326BE40B0434F009E683B
:1016E000BE403043D0601E7906F00306022E13D1AF
:1016F000CF0802F1200656F827004E07F70E0F26F6
:10170000BE40B0434F07FF0E1E69BE403043CF08B6
:1017100002F1200646F8270010684F000326BE405D
:10172000B0431E7906F003064F00BE403043106000
:101730005E6806F44036002E76D000BF0026009684
:101740003C4E366846F480463A4F3E603E46366828
:1017500006F48046009600BF00BF374E8F0856F84B
:1017600027008E07370F0F26BE40B043334EB242DC
:1017700002D1002624E057E0314EB24201D10126C9
:101780001EE0304EB24201D1022619E02E4EB24286
:1017900001D1032614E02D4EB24201D104260FE000
:1017A0002B4EB24201D105260AE02A4EB24201D1A7
:1017B000062605E0284EB24201D1072600E00826A1
:1017C0008F073F0FBE4030431B4E8F0846F827005F
:1017D000224E3068A0435E6806F4801606B12043AE
:1017E0001E4E3060361D3068A0435E6806F4001659
:1017F00006B12043194E361D3060184E361F306832
:10180000A0435E6806F4003606B12043134E361F2F
:101810003060361F3068A0435E6806F4803606B13B
:1018200020430E4E083E3060491C1029FFF426AFBD
:10183000F8BD000044380240083801400000024072
:101840000004024000080240000C02400010024068
:101850000014024000180240001C0240083C0140F5
:10186000024613690B400BB1012000E000207047D5
:101870000AB1816101E00B0483617047014800688F
:10188000704700000000002070B504460CB901202C
:1018900070BD94F83D0028B9002084F83C00204633
:1018A00000F05EFA242084F83D002068006820F0F3
:1018B0000100216808602068006840F40040216849
:1018C00008602068006820F400402168086000F08B
:1018D00089FC05465C496068884206D85B488542B9
:1018E00001D2012007E0002005E05948854201D2DD
:1018F000012000E00020012800D1C9E75548B5FBD0
:10190000F0F62068406820F03F00304321684860CE
:101910004D496068884201D8701C07E04FF496700A
:1019200070434FF47A71B0FBF1F0401C2168096AF2
:1019300021F03F01084321680862434960688842FA
:1019400014D8681E61684900B0FBF1F0401CC0F378
:101950000B00042801D204203DE0681E61684900A4
:10196000B0FBF1F0401CC0F30B0034E0A06838B9C4
:10197000681E616801EB4101B0FBF1F0401C0AE018
:10198000681E616801EBC10202EB0111B0FBF1F0CE
:10199000401C40F48040C0F30B0008B901201AE05D
:1019A000A06848B9681E616801EB4101B0FBF1F025
:1019B000401CC0F30B000CE0681E616801EBC10223
:1019C00002EB0111B0FBF1F0401CC0F30B0040F43E
:1019D000804040F400402168C9694CF6FF72914391
:1019E00008432168C861D4E90701084321680968F0
:1019F00021F0C001084321680860D4E903100843BE
:101A00002168896848F2FF32914308432168886061
:101A1000D4E9050108432168C96821F0FF010843A2
:101A20002168C8602068006840F0010021680860F3
:101A300000202064202084F83D000020206384F8EA
:101A40003E0000BF24E70000A086010080841E0045
:101A500000093D0040420F002DE9FC5F04460F469F
:101A600090469946DDE90CAB0E9EFFF707FF054651
:101A700094F83D00202870D119230122B549204651
:101A8000009501F0F7FF10B10220BDE8FC9F00BFF8
:101A900094F83C00012801D10220F6E7012084F8E7
:101AA0003C0000BF2068006800F0010028B92068F1
:101AB000006840F00100216808602068006820F498
:101AC000006021680860222084F83D00402084F8EE
:101AD0003E0000202064C4F824A0A4F82AB0608D41
:101AE00020859D48E0624B46424639462046CDE976
:101AF000006501F00FFF08B10120C6E7208D88B90D
:101B000000BF002001902068406901902068806932
:101B1000019000BF00BF2068006840F40070216899
:101B2000086040E0208D012818D12068006820F46A
:101B300080602168086000BF002001902068406933
:101B4000019020688069019000BF00BF2068006894
:101B500040F400702168086025E0F8E0208D02283C
:101B600016D12068006820F4806021680860206831
:101B7000006840F400602168086000BF0020019008
:101B800020684069019020688069019000BF0AE0E8
:101B900000BF0020019020684069019020688069A2
:101BA000019000BF00BFC3E0208D03287ED8208DA8
:101BB000012815D12A463146204602F037F808B1EF
:101BC000012062E720680069616A0870606A401C51
:101BD0006062208D401E2085608D401E6085A7E0DC
:101BE000208D02282AD1334600225C4920460095E8
:101BF00001F040FF08B1012047E72068006840F489
:101C000000702168086020680069616A0870606A75
:101C1000401C6062208D401E2085608D401E6085C6
:101C200020680069616A0870606A401C6062208DEB
:101C3000401E2085608D401E608579E0334600227D
:101C400046492046009501F015FF08B101201CE728
:101C50002068006820F480602168086020680069BE
:101C6000616A0870606A401C6062208D401E208599
:101C7000608D401E6085334600223849204600951D
:101C800001F0F8FE08B10120FFE62068006840F48A
:101C900000702168086020680069616A0870606AE5
:101CA000401C6062208D401E208500E010E0608DA9
:101CB000401E608520680069616A0870606A401C87
:101CC0006062208D401E2085608D401E60852FE063
:101CD0002A463146204601F0A9FF08B10120D4E68A
:101CE00020680069616A0870606A401C6062208D2B
:101CF000401E2085608D401E608520684069C0F3CD
:101D00008000A8B1208D032805D12068006820F448
:101D100080602168086020680069616A0870606AF4
:101D2000401C6062208D401E2085608D401E6085B5
:101D3000208D00287FF438AF202084F83D0000205B
:101D400084F83E0000BF84F83C0000BF9DE60220FE
:101D50009BE60000020010000000FFFF04000100ED
:101D600010B586B00446142101A8FEF725FB1B49D7
:101D70002068884230D100BF0020009018480068D9
:101D800040F00200164908600846006800F00200B2
:101D9000009000BF00BF4FF44060019012200290FD
:101DA00000200390032004900420059001A90D4811
:101DB000FFF75CFC00BF002000900948103000686D
:101DC00040F480000649103108600846006800F4BD
:101DD0008000009000BF00BF06B010BD005800405A
:101DE0003038024000040240034800680349097883
:101DF00008440149086070470000002008000020E6
:101E000010B50D48006840F400700B4908600846A2
:101E1000006840F4806008600846006840F4807004
:101E20000860032000F0E0F80F2000F007F800F051
:101E30005FF8002010BD0000003C02402DE9F04199
:101E400088B004460027B84600BF00200190234810
:101E5000006840F02000214908600846006800F052
:101E60002000019000BF00BF02A903A800F092F972
:101E7000069F1FB900F0B6F9054602E000F0B2F97E
:101E800045001748B5FBF0F0A0F1010815481649C8
:101E9000086040F2E7311448C160C0F804800021B6
:101EA00001618160816101F0E7FA064696B90E484A
:101EB00001F016FB06466EB9372000F043F8102CEF
:101EC00007D200222146372000F050F8074804606E
:101ED00000E00126304608B0BDE8F08140380240FD
:101EE00040420F000014004058020020040000206F
:101EF00008B500BF002000901148006840F4804001
:101F00000F4908600846006800F48040009000BF58
:101F100000BF00BF00200090081F006840F0805004
:101F2000091F08600846006800F08050009000BF5C
:101F300000BF00220F21901E00F018F808BD00001D
:101F4000443802400146084600280DDB00BF00BFB0
:101F500000F01F0301229A4043099B0003F1E02394
:101F6000C3F8002100BF00BF00BF70472DE9F05F3C
:101F700080460D461646002703F01AFD07463946EF
:101F80002A46334601F00700C0F1070ABAF1040FF0
:101F900002D94FF0040A01E0C0F1070AD14600F16E
:101FA000040ABAF1070F02D24FF0000A01E0A0F1D3
:101FB000030AD4464FF0010A0AFA09FAAAF1010A03
:101FC0000AEA020A0AFA0CFA4FF0010B0BFA0CFBB0
:101FD000ABF1010B0BEA030B4AEA0B042146404626
:101FE00003F0EEFCBDE8F09F00BF00F00702064BD7
:101FF00019684FF6FF031940044B0B4343EA0221D3
:10200000014B196000BF70470CED00E00000FA05BD
:1020100070B504460D460CB9012070BD58480068E3
:1020200000F00700A84209D255490D700846006823
:1020300000F00700A84201D00120EEE7207800F070
:10204000020002281DD1207800F00400042805D1E8
:102050004C48006840F4E0504A490860207800F09D
:102060000800082805D14748006840F46040454909
:1020700008604448006820F0F000A1680843414926
:102080000860207800F00100A8B36068012807D13B
:102090003C4808380068C0F34040B8B90120BCE7AC
:1020A0006068022802D06068032807D135480838E4
:1020B0000068C0F3406048B90120AEE731480838F5
:1020C0000068C0F3400008B90120A6E72D48006869
:1020D00020F00300616808432A490860FFF7CEFB3F
:1020E000064609E0FFF7CAFB801B41F288318842AF
:1020F00002D9032091E707E02248006800F00C00B5
:102100006168B0EB810FEDD11D48006800F0070059
:10211000A84209D91A490D700846006800F0070066
:10212000A84201D0012078E7207800F004000428BC
:1021300007D11448006820F4E050E16808431149D1
:102140000860207800F00800082808D10D480068D1
:1021500020F46040216940EAC1000A49086000F0AB
:1021600061F808490968C1F30311074A515CC84086
:102170000649086006480068FFF760FE00204CE74B
:10218000003C0240083802407C28060808C00120B4
:10219000040000200F2202600D4A126802F00302C0
:1021A00042600B4A126802F0F0028260084A12682C
:1021B00002F4E052C260064A126802F46042D20899
:1021C0000261044A126802F007020A6070470000C8
:1021D00008380240003C0240014800687047000097
:1021E00008C0012000B5FFF7F7FF04490968C1F3F3
:1021F0008221034A515CC84000BD000008380240FB
:102200008C28060800B5FFF7E7FF04490968C1F309
:102210004231034A515CC84000BD0000083802400A
:102220008C2806082DE9F047002400250026A14649
:102230002548006800F00C0020B1042805D00828CB
:102240003AD105E0DFF8849039E0DFF8849036E099
:102250001D48001F006800F03F041B48001F006875
:1022600000F4800078B11A481749091F0968C1F3C2
:102270008811A0FB01700146224600233846FDF775
:10228000FFFF05460EE011480F49091F0968C1F319
:102290008811A0FB01700146224600233846FDF755
:1022A000EFFF05460848001F0068C0F30140401CCE
:1022B0004600B5FBF6F902E0DFF8109000BF00BF62
:1022C0004846BDE8F0870000083802400024F400CA
:1022D00000127A00F8B504460CB90120F8BD207848
:1022E00000F00100002874D0F948006800F00C00EC
:1022F00004280DD0F648006800F00C00082813D11F
:10230000F348001F006800F48000B0F5800F0BD187
:10231000EF4808380068C0F34040002859D0606892
:10232000002856D10120D9E700BF6068B0F5803F92
:1023300008D1E7480838006840F48030E44908399B
:1023400008601EE06068B0F5A02F0DD1E0480838A5
:10235000006840F48020DE490839086008460068BB
:1023600040F4803008600CE0D9480838006820F458
:102370008030D749083908600846006820F480207A
:10238000086000BF606890B1FFF778FA054606E084
:10239000FFF774FA401B642801D903209EE7CC485C
:1023A00008380068C0F340400028F1D011E0FFF782
:1023B00065FA054606E0FFF761FA401B642801D97B
:1023C00003208BE7C24808380068C0F3404000286B
:1023D000F1D1207800F0020002285FD1BC480068EB
:1023E00000F00C0058B1BA48006800F00C00082852
:1023F0001CD1B748001F006800F48000B0B9B44891
:1024000008380068C0F3400020B1E068012801D01E
:10241000012063E7AE480838006820F0F800216921
:1024200040EAC100AA490839086037E0E06800B313
:102430000120A8490860FFF721FA054606E0FFF7EA
:102440001DFA401B022801D9032047E7A04808389D
:102450000068C0F340000028F1D09D4808380068AB
:1024600020F0F800216940EAC10099490839086064
:1024700014E0002097490860FFF700FA054606E0DF
:10248000FFF7FCF9401B022801D9032026E79048FA
:1024900008380068C0F340000028F1D1207800F02F
:1024A000080008282CD16069A8B101208A49086079
:1024B000FFF7E4F9054606E0FFF7E0F9401B0228C4
:1024C00001D903200AE782486C300068C0F340005D
:1024D0000028F1D014E000207F490860FFF7CEF912
:1024E000054606E0FFF7CAF9401B022801D9032080
:1024F000F4E677486C300068C0F340000028F1D162
:10250000207800F00400042870D10027704838308B
:10251000006800F0805090B900BF002000906C4827
:102520003830006840F0805069493831086008460A
:10253000006800F08050009000BF00BF012767488E
:10254000006800F48070B0B96448006840F480709E
:1025500062490860FFF792F9054606E0FFF78EF939
:10256000401B022801D90320B8E65C48006800F44B
:1025700080700028F2D000BFA068012808D154481C
:102580006830006840F001005149683108601DE082
:10259000A06805280DD14E486830006840F004005E
:1025A0004B49683108600846006840F00100086047
:1025B0000CE047486830006820F001004449683169
:1025C00008600846006820F00400086000BFA068AA
:1025D000A8B1FFF753F9054609E0FFF74FF9401B93
:1025E00041F28831884202D9032077E626E0384854
:1025F00068300068C0F340000028EED013E0FFF719
:102600003DF9054608E0FFF739F9401B41F28831F2
:10261000884201D9032061E62D4868300068C0F384
:1026200040000028EFD1012F07D129483830006839
:1026300020F0805026493831086000BFA06900288A
:1026400045D02348006800F00C0008285DD0A06940
:10265000022845D100201F490866FFF70FF90546FB
:1026600006E0FFF70BF9401B022801D9032035E6ED
:10267000174808380068C0F340600028F1D1D4E959
:1026800007010843616A40EA81110122A06AC2EB96
:10269000500041EA00412C20005D41EA00600C49F5
:1026A000091F086001200B490866FFF7E7F8054697
:1026B00006E0FFF7E3F8401B022801D903200DE6EE
:1026C000034808380068C0F340600028F1D049E0B2
:1026D0000838024000004742800E47420070004028
:1026E000002021490866FFF7C9F8054606E0FFF714
:1026F000C5F8401B022801D90320EFE51B480068FC
:10270000C0F340600028F2D12CE0A069012800D17C
:10271000E4E51648001D0668A069012820D006F4EB
:102720008001E06981421BD106F03F01206A8142AD
:1027300016D147F6C0703040616AB0EB811F0FD1EF
:1027400006F440310122A06AC2EB5000B1EB004F09
:1027500006D106F070612C20005DB1EB006F01D056
:102760000120BBE50020B9E50000474200380240E7
:10277000F0B589B004460E460027032084F83400E3
:10278000606C032820D0B6F5805F04D1A06B40F0C8
:102790008050A0631CE0B6F5006F07D1204602F020
:1027A00029FC0546A06B2843A06311E03EB92046F2
:1027B00002F0ECFB0546A06B2843A06308E0A06B89
:1027C00040F00060A06303E0A06B40F08050A06385
:1027D000A06B38B1174821688863012084F8340061
:1027E000012713E060680390A0680490E0680590FA
:1027F000069660690790A069089006A807C88DE84A
:102800000700206803A90EC901F09BFD4FF4007179
:10281000206801F007FE054635B106482168886347
:10282000A06B2843A0630127012084F834003846B8
:1028300009B0F0BDFF0540007047000010B502462A
:10284000506E800F0870506EC0F383604870506EF9
:10285000C0F301608870506E000CC870B2F864005C
:10286000000A087192F864004871906E000DC880EB
:10287000906EC0F3034008726820805AC0F3C030E5
:1028800048726820805AC0F3803088726820805A6D
:10289000C0F34030C8726820805AC0F3003008731B
:1028A00000204873506C002836D16820805A80057B
:1028B000030DD06E43EA90700861D06EC0F3C26021
:1028C0000875D06EC0F302604875D06EC0F34250F8
:1028D0008875D06EC0F38240C875D06EC0F3C23028
:1028E00008760869401C50650B7E506D03F00703A5
:1028F0009B1C01249C4060435065087A00F00F0344
:10290000012098409065D2E915035B0A5843D065D1
:102910004FF40073136621E0506C012813D1682036
:10292000805C8006830AD06E43EA10400861086923
:10293000401C83025365536DD3654FF40073936558
:10294000936D13660AE02E4813689863906B40F00D
:1029500080509063012082F8340010BD6C20805AB2
:10296000C0F3803001F8190F6C20805AC0F3C610F4
:1029700048706C20805C00F07F008870106FC00F82
:10298000C870106FC0F341700871106FC0F382609F
:102990004871106FC0F383508871106FC0F34050BE
:1029A000C87100200872106FC0F300404872702098
:1029B000805AC0F3C03088727020805AC0F38030D3
:1029C000C8727020805AC0F3403008737020805A5B
:1029D000C0F3003048737020805AC0F381208873A0
:1029E0007020805AC0F30120C8737020805CC0F34F
:1029F000460008740120487419390020ADE7000032
:102A0000FF0540000246506C0860906C4860D06C36
:102A10008860106DC860506D0861906D4861D06D20
:102A20008861106EC86100207047F8B50446002028
:102A300000906946204602F091FA054615B1A06B58
:102A40002843A0630098C0F343263046F8BD10B574
:102A500004460CB9012010BD94F8340020B90020C0
:102A60002077204600F066F8032084F834002046E2
:102A700000F00CF808B10120EDE70020A06320630E
:102A8000012084F834000020E5E7000030B589B06B
:102A9000044600200390049005900690079076204D
:102AA000089006A807C88DE80700206803A90EC98A
:102AB00001F047FC00201D490860206801F05BFC24
:102AC00001201A49A039C1F8A0000220FEF7A4FD98
:102AD000204602F0DDF9054645B1012084F83400B6
:102AE000A06B2843A063012009B030BD204602F04E
:102AF0004EF905463DB1012084F83400A06B28430F
:102B0000A0630120F0E74FF40071206801F08AFC17
:102B100005464DB1064821688863A06B2843A06331
:102B2000012084F83400DFE70020DDE7A0802542A3
:102B3000FF05400010B586B00446142101A8FDF73A
:102B40003BFC40492068884279D100BF00200090BA
:102B50003D48006840F400603B4908600846006852
:102B600000F40060009000BF00BF00BF0020009094
:102B700035481438006840F00400334914390860BF
:102B80000846006800F00400009000BF00BF00BFCE
:102B9000002000900846006840F0080008600846E1
:102BA000006800F00800009000BF00BF4FF4F8502C
:102BB00001900220029000200390032004900C203A
:102BC000059001A92148FEF751FD04200190022043
:102BD000029000200390032004900C20059001A98E
:102BE0001B48FEF743FD1B481B4908604FF000607F
:102BF0004860002118488160C1604FF48061016124
:102C000089004161890081612021C1610021016247
:102C100004214162032181624FF40001C1628910E5
:102C20000163FEF739FC08B1FEF7F8F800BF0A4867
:102C30002064846300BF00BFE063846300BF06B00C
:102C400010BD0000002C0140443802400008024042
:102C5000000C0240A064024028C201202DE9F0438C
:102C600087B004460F4691461D46C8463FB9A06B43
:102C700040F00060A063012007B0BDE8F08394F845
:102C8000340001287ED10020A06308EB0501E06D2F
:102C9000814205D9A06B40F00070A0630120EBE7F2
:102CA000032084F8340000202168C8622068C06BCB
:102CB00040F22A3108432168C8633848216CC86350
:102CC0003748216CC8640020216C08650021206C05
:102CD0008160206C0068006820F0C000216C896869
:102CE0000843216C096808606A029308226802F1AF
:102CF00080013A46206CFEF745FC80B12068C06B2D
:102D000020F495702168C863264821688863A06B09
:102D100040F08040A063012084F83400ACE701203B
:102D200021490860606C012801D04FEA48284FF023
:102D3000FF300190680202909020039002200490DE
:102D4000002005900120069001A9206801F0D4FA26
:102D5000012D07D9822020634146206801F0CAFB7B
:102D6000064606E0812020634146206801F0DEFB34
:102D7000064676B10B4821688863A06B3043A06398
:102D8000012000E007E084F83400002020630120E7
:102D900072E7002070E702206EE70000E94B0008B0
:102DA000754B0008FF0540008C85254210B5044690
:102DB000FDF774FF10BD00002DE9F04387B0044615
:102DC000884691461D464F46B8F1000F07D1A06BCB
:102DD00040F00060A063012007B0BDE8F08394F8E4
:102DE0003400012874D10020A0637919E06D81427C
:102DF00005D9A06B40F00070A0630120ECE7032030
:102E000084F8340000202168C8622068C06B40F25A
:102E10001A2108432168C8633848E16BC863384801
:102E2000E16BC8640020E16B0865606C012800D08C
:102E30007F02012D07D9A02020633946206801F0C8
:102E400053FC064606E0902020633946206801F0D6
:102E500067FC064666B12B4821688863A06B304347
:102E6000A063012084F83400002020630120B3E730
:102E70000120254908604021E06B8160E06B00681B
:102E8000006820F0C000E16B89680843E16B0968C5
:102E9000086069028B08216801F180024146E06BFD
:102EA000FEF770FBA8B12068C06B40F21A2188437E
:102EB0002168C863134821688863A06B40F0804094
:102EC000A063012084F8340000202063012083E700
:102ED00011E04FF0FF3001906802029090200390C3
:102EE0000020049005900120069001A9206801F0BF
:102EF00003FA002070E702206EE70000314C000862
:102F0000754B0008FF0540008C85254270477047CF
:102F100010B504460CB9012010BD606A38B960686C
:102F2000B0F5827F00D105E00021E16102E00021DF
:102F3000216161610021A16294F85100C8B90020AB
:102F400084F850002E48A0652E48E0652E48206683
:102F50002E4860662E48A0662E48E0662E48206700
:102F60002E486067A06F08B92D48A0672046A16F62
:102F70008847022084F851002068006820F0400053
:102F800021680860A08800F48270218901F404415E
:102F90000843A18901F400610843217C01F002018A
:102FA0000843217D01F001010843218B01F40071E8
:102FB0000843217F01F0380108432021095D01F019
:102FC00080010843218D01F4005108432168086005
:102FD0000421A06901EA104094F8241001F01001C6
:102FE0000843216848602068C06920F400602168B7
:102FF000C86100206065012084F8510000208BE743
:103000006D340008AD310008713400086F340008D9
:10301000AF310008733400080F2F00080D2F00088F
:103020002530000810B586B00446142101A8FDF72C
:10303000C3F92B49206888424FD100BF002000907F
:103040002848006840F48050264908600846006817
:1030500000F48050009000BF00BF00BF002000902F
:1030600020481438006840F001001E4914390860F7
:103070000846006800F00100009000BF00BFA020DB
:10308000019002200290002003900320049005206C
:10309000059001A91448FEF7E9FA1448144908609C
:1030A0004FF0C06048604021114881600021C1603C
:1030B0004FF4806101614900416189008161002113
:1030C000C16101624162FEF7E7F908B1FDF7A6FEB2
:1030D00000BF0748A064846300BF06B010BD0000B5
:1030E0000030014044380240000002405864024071
:1030F000F801002010B5034600242AB9586D40F0AD
:1031000080005865012010BD00BF93F850000128D1
:1031100001D10220F7E7012083F8500000BF93F8A7
:103120005100012823D10A291AD2DFE801F005074E
:10313000090B0D0F111315179A6517E0DA6515E0E5
:103140001A6613E05A6611E09A660FE0DA660DE03F
:103150001A670BE05A6709E09A6707E0DA6705E04B
:10316000586D40F080005865012400BF17E093F8C7
:10317000510078B9082902D0092904D101E09A67E1
:1031800007E0DA6705E0586D40F0800058650124DB
:1031900000BF04E0586D40F080005865012400BF76
:1031A000002083F8500000BF2046ACE7704770470E
:1031B0002DE9F84304460F4616461D46FEF75EFB12
:1031C0008046B14694F85100012802D00220BDE8A3
:1031D000F88307B10EB90120F9E700BF94F8500059
:1031E000012801D10220F2E7012084F8500000BF3D
:1031F000032084F85100002060652763A686E686D8
:10320000A063A087E08760642064A068B0F5004FE9
:103210000BD12068006820F0400021680860206819
:10322000006840F48040216808602068006800F071
:103230004000402805D02068006840F04000216828
:103240000860E068B0F5006F37D1606810B1B9F17F
:10325000010F09D1206B00882168C860206B801C99
:103260002063E08E401EE08623E02068806800F046
:10327000020002280AD1206B00882168C860206BF8
:10328000801C2063E08E401EE08612E0FEF7F6FA16
:10329000A0EB0800A84201D3681C00B94DB9012079
:1032A00084F8510000BF002084F8500000BF0320C4
:1032B0008DE7E08E0028D8D136E0606810B1B9F112
:1032C000010F09D1206B007821680873206B401C26
:1032D0002063E08E401EE08623E02068806800F0D6
:1032E000020002280AD1206B007821680873206B45
:1032F000401C2063E08E401EE08612E0FEF7BEFA1E
:10330000A0EB0800A84201D3681C00B94DB9012008
:1033100084F8510000BF002084F8500000BF032053
:1033200055E7E08E0028D8D142462946204601F0D4
:10333000D5FF08B120206065A06850B900BF00200B
:1033400000902068C068009020688068009000BFEE
:1033500000BF012084F8510000BF002084F8500015
:1033600000BF606D08B1012031E700202FE70000A9
:103370002DE9F04104460E46154694F85100012807
:1033800002D00220BDE8F08106B10DB90120F9E7B5
:1033900000BF94F85000012801D10220F2E701207B
:1033A00084F8500000BF032084F8510000206065BD
:1033B0002663A586E586A06360642064A087E08715
:1033C000A068B0F5004F0BD12068006820F04000E5
:1033D000216808602068006840F480402168086027
:1033E0001F48A16C08641F48A16CC8631E48A16CEB
:1033F000C8640020A16C0865E38E276807F10C0201
:10340000216BA06CFEF7BEF850B1606D40F010006B
:10341000606500BF002084F8500000BF0120B1E7C4
:103420002068006800F04000402805D0206800684F
:1034300040F040002168086000BF002084F8500080
:1034400000BF2068406840F0200021684860206884
:10345000406840F0020021684860002092E70000C8
:103460004D5200085B520008255200087047704713
:10347000704770477047704710B504460CB901207B
:1034800010BD94F83D0028B9002084F83C00204687
:1034900000F025F8022084F83D00211D206802F08C
:1034A00043F8012084F8460000BF84F83E00012163
:1034B0003F200155402001554120015500BF00BF6C
:1034C000012084F842004320015544200155452045
:1034D000015500BF012084F83D000020D0E770476F
:1034E000014691F83D00012801D0012070470220DB
:1034F00081F83D000868C06840F001000B68D860A2
:103500001A4B086898421BD00868B0F1804F17D05A
:10351000174B0868984213D0164B086898420FD092
:10352000154B086898420BD0144B0868984207D096
:10353000134B0868984203D0124B086898420CD18C
:103540000868806800F00702062A0CD00868006846
:1035500040F001000B68186005E00868006840F062
:1035600001000B6818600020C0E700000000014067
:103570000004004000080040000C0040000401402E
:103580000040014000180040704770B504462068B4
:10359000C5682068066906F00200022819D105F006
:1035A0000200022815D1401F216808610120207700
:1035B0002068806900F0030018B12046FFF7E4FF9F
:1035C00005E0204600F097F8204600F095F800202E
:1035D000207706F00400042819D105F0040004281F
:1035E00015D1C043216808610220207720688069D6
:1035F00000F4407018B12046FFF7C6FF05E02046F2
:1036000000F079F8204600F077F80020207706F0E7
:103610000800082819D105F00800082815D1C04372
:1036200021680861042020772068C06900F0030049
:1036300018B12046FFF7A8FF05E0204600F05BF830
:10364000204600F059F80020207706F010001028DE
:1036500019D105F01000102815D1C0432168086168
:10366000082020772068C06900F4407018B1204617
:10367000FFF78AFF05E0204600F03DF8204600F005
:103680003BF80020207706F0010048B105F001006A
:1036900030B16FF0010021680861204600F02EF87B
:1036A00006F08000802809D105F08000802805D12F
:1036B000C043216808612046FFF7DCFE06F04000A9
:1036C000402809D105F04000402805D1C0432168B9
:1036D0000861204600F01EF806F02000202809D1DD
:1036E00005F02000202805D1C0432168086120464C
:1036F000FFF7C1FE70BD70477047000010B504466B
:1037000003492068884201D1FEF76EFB10BD00001E
:1037100000140040704710B504460CB9012010BDDC
:10372000A06900B100E000BF94F8410028B9002072
:1037300084F84000204600F029F8242084F8410055
:103740002068C06820F400502168C860204601F05D
:1037500091FF2068006920F490402168086120688A
:10376000406920F02A00216848612068C06840F460
:1037700000502168C86000206064202084F8410067
:1037800084F842000020606300BFC8E710B586B02F
:103790000446142101A8FCF70FFE1B49206888424B
:1037A00030D100BF002000901848006840F01000A1
:1037B000164908600846006800F01000009000BF3D
:1037C00000BF00BF0020009010481438006840F08F
:1037D00001000E49143908600846006800F0010035
:1037E000009000BF00BF4FF4C06001900220029023
:1037F00000200390032004900720059001A90448AD
:10380000FDF734FF06B010BD0010014044380240FF
:10381000000002402DE9F84F04460E46174699462F
:103820004FF0000A94F84100202850D106B117B992
:103830000120BDE8F88F00206064212084F8410059
:10384000FEF71CF88246A784E784A068B0F5805F85
:1038500004D1206910B90025B04602E035464FF08A
:1038600000081EE05346002280212046CDF800903B
:1038700002F016F820B1202084F841000320D8E798
:1038800045B9B8F80000C0F308002168486008F1A5
:10389000020803E02878216848606D1CE08C401E17
:1038A000E084E08C0028DDD15346002240212046F0
:1038B000CDF8009001F0F4FF20B1202084F8410001
:1038C0000320B6E7202084F841000020B1E7022061
:1038D000AFE700BFFEE7014608684069C0F38020FB
:1038E000B0B16FF480600A68506100200863202046
:1038F00081F83D00002081F83E00086C40F0040093
:10390000086400BF002081F83C0000BF0120704720
:103910000020FCE72DE9F84304460F46154699467A
:10392000DDE908862068006840F48060216808604E
:103930002068006840F480702168086043460022D7
:103940004FF001112046009600F094F860B1206815
:10395000006800F48070B0F5807F02D14FF40070F1
:1039600020640320BDE8F88307F0FE0021680861A9
:10397000334642463E49204600F0DBF808B10120BC
:10398000F0E700BF002000902068406900902068A8
:103990008069009000BF00BF32464146204600F0DB
:1039A0008AF950B1206C042805D12068006840F4E1
:1039B0000070216808600120D4E7B9F1010F03D13C
:1039C000E8B22168086117E0C5F3072021680861A3
:1039D00032464146204600F06EF950B1206C042872
:1039E00005D12068006840F400702168086001205B
:1039F000B8E7E8B22168086132464146204600F047
:103A00005AF950B1206C042805D12068006840F4B0
:103A10000070216808600120A4E72068006840F475
:103A2000807021680860434600224FF00111204653
:103A3000009600F01FF858B12068006800F480700C
:103A4000B0F5807F02D14FF400702064032089E735
:103A5000F8B240F00100216808613346424604494B
:103A6000204600F066F808B101207BE7002079E7E6
:103A7000020001002DE9F04104460D4617461E469E
:103A8000DDF8188038E0701CA8B3FDF7F7FEA0EB56
:103A90000800B04200D876BBC5F3074001280AD120
:103AA00020684069A9B20840A9B2884201D101202A
:103AB0000BE0002009E020688069A9B20840A9B2A3
:103AC000884201D1012000E00020B84214D100203A
:103AD0002063202084F83D00002084F83E00206C04
:103AE00040F02000206400BF002084F83C0000BFAC
:103AF0000120BDE8F081FFE7C5F3074001280AD1A6
:103B000020684069A9B20840A9B2884201D10120C9
:103B10000BE0002009E020688069A9B20840A9B242
:103B2000884201D1012000E00020B842ABD0002043
:103B3000DFE72DE9F04104460D4616461F4658E0E2
:103B400020684069C0F38020E8B12068006840F434
:103B50000070216808606FF480602168486100206F
:103B60002063202084F83D00002084F83E00206C73
:103B700040F00400206400BF002084F83C0000BF37
:103B80000120BDE8F081701C90B3FDF777FEC01BEB
:103B9000B04200D866BBC5F3074001280AD12068AF
:103BA0004069A9B20840A9B2884201D101200BE0C6
:103BB000002009E020688069A9B20840A9B28842C3
:103BC00001D1012000E0002090B9002020632020D6
:103BD00084F83D00002084F83E00206C40F0200076
:103BE000206400BF002084F83C0000BF0120C8E72B
:103BF000FFE7C5F3074001280AD120684069A9B250
:103C00000840A9B2884201D101200BE0002009E060
:103C100020688069A9B20840A9B2884201D1012078
:103C200000E0002000288BD00020AAE770B50446F1
:103C30000D46164637E020684069C0F30010A0B179
:103C40006FF010002168486100202063202084F874
:103C50003D00002084F83E00206C206400BF00205E
:103C600084F83C0000BF012070BDFDF707FE801BFB
:103C7000A84200D8BDB920684069C0F3801090B94F
:103C800000202063202084F83D00002084F83E00BE
:103C9000206C40F02000206400BF002084F83C002D
:103CA00000BF0120E0E720684069C0F380100028D1
:103CB000C1D00020D8E770B504460D46164625E071
:103CC0002046FFF708FE08B1012070BD681CE8B16E
:103CD000FDF7D4FD801BA84200D8BDB9206840691B
:103CE000C0F3C01090B900202063202084F83D006C
:103CF000002084F83E00206C40F02000206400BFCB
:103D0000002084F83C0000BF0120DEE72068406905
:103D1000C0F3C0100028D3D00020D6E738B5054640
:103D20000C460020009004226946032000F028F889
:103D30009DF801009DF8001001F00F0140EA0120FC
:103D4000C0F1F00028809DF803009DF8021001F0FA
:103D50000F0140EA0120208038BD000004480078AF
:103D600020B1002002490870012070470020FCE7C4
:103D70006C00002001200149087070476C00002091
:103D8000FEB504460D4616464FF4FA60012322465E
:103D90002B21CDE9005602900148FDF75DFEFEBDE6
:103DA0002401002010B52DED068B1048FDF732F9E7
:103DB00044002046FCF7B4FC41EC1A0B9FED0C0BC1
:103DC00053EC102BFCF7BAFB41EC190B9FED0A0BDF
:103DD00053EC102BFCF724FC41EC180BFCF728FDEE
:103DE00000EE100ABDEC068B10BD0000DC000020C8
:103DF0006666666666660A400000000000FEAF4028
:103E000010B50248FDF77EF910BD0000DC0000206F
:103E100010B54FF400410448FDF722FD08B9012018
:103E200010BD0020FCE700000004024010B508218E
:103E30000C48FDF715FD98B90A205CF007FD082134
:103E40000848FDF70DFD58B909E008210548FDF7C0
:103E500007FD012800D110BD03205CF0F7FCF4E75A
:103E60000020F8E70004024010B500224FF4804122
:103E70000148FDF7FDFC10BD000402401FB5002005
:103E800000900190029003901548164908600020A8
:103E90004860002113488160016101210176002101
:103EA00080F82010C162104981620021C1600121A7
:103EB000C161002180F8301001214161FDF7AEF8A9
:103EC00008B1FCF7ABFF0120009001900290694619
:103ED0000448FCF7D9FF08B1FCF7A0FF1FBD0000A4
:103EE00000200140DC0000200100000F08B500BFE9
:103EF000002000900E48006840F480000C490860E3
:103F00000846006800F48000009000BF00BF002257
:103F100005213B20FEF72AF83B20FEF713F800228C
:103F200005214520FEF722F84520FEF70BF808BDD5
:103F30003038024010B503490348FCF772FF0349CB
:103F4000087010BDC500002038F80708C400002024
:103F500010B5074A002107484BF0E0FA064908600F
:103F6000064A002106484BF0D9FA0649086010BD00
:103F70002C280608C541000800C00120502806086A
:103F80001942000804C0012000B587B0142102A81E
:103F9000FCF712FA00BF002001904F48006840F083
:103FA00004004D4908600846006800F004000190D4
:103FB00000BF00BF00BF002001900846006840F02D
:103FC000800008600846006800F08000019000BF93
:103FD00000BF00BF002001900846006840F00100CB
:103FE00008600846006800F00100019000BF00BFB3
:103FF00000BF002001900846006840F00200086001
:104000000846006800F00200019000BF00BF00BF3A
:10401000002001900846006840F00800086008464B
:10402000006800F00800019000BF00BF00221021CE
:104030002A48FDF71DFC012240212848FDF718FC05
:10404000012245F203012648FDF712FC50200290A0
:1040500001200390002004900220059002A91F482F
:10406000FDF704FB45F203000290012003900020BD
:1040700004900220059002A91948FDF7F7FA4FF4C1
:10408000005002904FF4881003900220049002A97F
:104090001348FDF7EBFA48F2080002900020039065
:1040A0000120049002A90E48FDF7E0FA4FF4807059
:1040B0000290002003900120049002A90748FDF718
:1040C000D5FA002205212820FDF750FF2820FDF712
:1040D00039FF07B000BD0000303802400000024048
:1040E0000004024010B50B480B4908600B484860BB
:1040F000002109488160C1604FF4804101610021C5
:1041000041618161C1610162FDF7BEFB08B1FCF74D
:1041100085FE10BD0058004024010020801A0600D2
:104120000748084908600020486000210548816070
:10413000C16001614FF48041416106218161704796
:10414000002C0140A4C1012010B50E480E490860A2
:104150004FF48270486000210B488160C1600161AA
:1041600041614FF4007181611021C1610021016240
:10417000416281620A21C162FEF7CAFE08B1FCF702
:104180004DFE10BD003001407801002010B50B48F5
:104190000B4908604FF4E130486000210848816015
:1041A000C16001610C21416100218161C161FFF7A2
:1041B000B2FA08B1FCF732FE10BD00000010014059
:1041C00088C2012001220EA10E4812F0A1FD33F099
:1041D0007FFF0D4848F014FF0C4824F087FA41F0A7
:1041E0002BFD41F059FD5AF091FC00BF49F02AF82F
:1041F0000446052C00D2052420464AF062FFF5E76C
:1042000000000000341D0120B52006084D080608F6
:1042100000BFFEE700BFFEE72DED048B82B0FFF785
:10422000EFFD00BFFFF702FE08B1FFF71DFEFFF72D
:10423000EFFD0646FFF7B6FDB0EE408A18EE100A15
:10424000FCF7B3FA41EC190B5C211DA0FCF7BFF899
:1042500028B15C211AA0FCF7BAF8401C00E018A0B5
:1042600005462F21FCF7B3F888B15C2114A0FCF7B8
:10427000AEF828B15C2112A0FCF7A9F8401C00E0C0
:104280000FA005462F21FCF7A2F8401C0BE05C2193
:104290000BA0FCF79CF828B15C2109A0FCF797F86B
:1042A000401C00E006A004468DED009B3346CE2264
:1042B000214609A001F03CFB0A204AF002FFB1E7C9
:1042C0002E2E2F436F72652F5372632F66726565B2
:1042D00072746F732E6300005B25733A25645D630F
:1042E0006861726765203D3D2025642C2076203D65
:1042F0003D2025660D0A000010B50246002308681F
:10430000506248689062D1E9020420430C6920435E
:104310004C6920430343D06A20F0F7001843D06271
:10432000002010BD01460869C0B270470146086808
:1043300000F003007047024602F1140043181868A9
:1043400070470FB410B504460021DDE903021043A5
:10435000059A1043069A1043079A1043089A10438F
:104360000143606847F6FF629043084360600020A5
:1043700010BC5DF814FB0146032008600020704764
:104380000146D1F88000704710B502460023086846
:104390009060D1E901042043CC6820430C6920439C
:1043A0000343D0686FF30B001843D060002010BDAA
:1043B00070B585B005460C4600943720019040202A
:1043C0000290002003904FF48060049069462846D4
:1043D000FFF7DAFF41F288323721284600F0DCF996
:1043E0000646304605B070BD70B585B005460C4632
:1043F0000B4820430090292001904020029000208B
:1044000003904FF48060049069462846FFF7BCFF94
:10441000284600F0C9FA0646304605B070BD0000D7
:104420000000108070B585B005460C460094102041
:10443000019040200290002003904FF4806004908F
:1044400069462846FFF7A0FF41F28832102128462E
:1044500000F0A2F90646304605B070BD70B585B0D3
:1044600005460C4600940620019040200290002052
:1044700003904FF48060049069462846FFF784FF5C
:1044800041F288320621284600F086F90646304679
:1044900005B070BD30B585B0044600200090019095
:1044A000029003904FF48060049069462046FFF725
:1044B0006BFF204600F050F90546284605B030BD98
:1044C00030B585B004464FF4D570009008200190B7
:1044D00040200290002003904FF4806004906946D1
:1044E0002046FFF751FF204600F0E6FA0546284631
:1044F00005B030BD70B585B005460C46009412205D
:10450000019040200290002003904FF480600490BE
:1045100069462846FFF738FF41F2883212212846C3
:1045200000F03AF90646304605B070BD70B585B06A
:1045300005460C4600941120019040200290002076
:1045400003904FF48060049069462846FFF71CFFF3
:1045500041F288321121284600F01EF90646304605
:1045600005B070BDF0B585B0064614461D460094F2
:104570000720019040200290002003904FF48060BB
:10458000049069463046FFF7FFFE41F2883207216A
:10459000304600F001F90746384605B0F0BD30B5A9
:1045A00085B004460020009002200190C0200290B7
:1045B000002003904FF48060049069462046FFF786
:1045C000E3FE204600F0BEF90546284605B030BDA2
:1045D00070B585B005460C46009409200190C020B6
:1045E0000290002003904FF48060049069462846B2
:1045F000FFF7CAFE284600F0A5F90646304605B08A
:1046000070BD30B585B00446002000903320019085
:1046100040200290002003904FF48060049069468F
:104620002046FFF7B1FE41F288323321204600F0E8
:10463000B3F80546284605B030BD70B585B00546CF
:104640000C4600940D200190402002900020039021
:104650004FF48060049069462846FFF795FE41F2CA
:1046600088320D21284600F097F80646304605B0FE
:1046700070BD70B585B005460C4600200090032043
:10468000019040200290002003904FF4806004903D
:1046900069462846FFF778FE22460321284600F0A7
:1046A000AFF90646304605B070BD000030B585B0A4
:1046B0000446002000900C20019040200290002031
:1046C00003904FF48060049069462046FFF75CFE3B
:1046D000044A0C21204600F05FF80546284605B044
:1046E00030BD000000E1F50570B585B005460C460B
:1046F00000941920019040200290002003904FF474
:104700008060049069462846FFF73EFE41F28832F9
:104710001921284600F040F80646304605B070BD25
:1047200070B585B005460C460094182001904020D5
:104730000290002003904FF4806004906946284660
:10474000FFF722FE41F288321821284600F024F8B3
:104750000646304605B070BD01460E480068C008E8
:104760004FF47A73B0FBF3F041F2883300FB03F2AD
:1047700000BF101EA2F1010202D14FF000407047AD
:10478000486B00F080000028F3D0C520886300202B
:10479000F5E7000008C001202DE9F04305460F466B
:1047A000904666480068C0084FF47A71B0FBF1F09B
:1047B00000FB08F900BFB9F10000A9F1010903D11C
:1047C0004FF00040BDE8F0836E6B06F04500002816
:1047D000F1D006F400600028EDD1686B00F0040011
:1047E00010B10420A863EDE7686B00F0010010B180
:1047F0000120A863E6E7C520A8632846FFF792FDDD
:10480000B84201D00120DDE700212846FFF793FDE3
:1048100004464B48204008B90020D3E704F000408C
:10482000B0F1004F02D14FF00070CBE704F08040B0
:10483000B0F1804F01D14020C4E704F00050B0F146
:10484000005F01D18020BDE704F08050B0F1805FAF
:1048500002D14FF48070B5E704F00060B0F1006F52
:1048600002D14FF40070ADE704F08060B0F1806FCA
:1048700002D14FF48060A5E704F08070B0F1807F32
:1048800002D14FF400609DE704F40000B0F5000F82
:1048900002D14FF4805095E704F48000B0F5800F0A
:1048A00002D14FF400508DE704F40010B0F5001F62
:1048B00002D14FF4804085E704F48010B0F5801FEA
:1048C00002D14FF400407DE704F48020B0F5802F42
:1048D00002D14FF4003075E704F40030B0F5003F2A
:1048E00002D14FF480206DE704F48030B0F5803FB2
:1048F00002D14FF4002065E704F40040B0F5004F0A
:1049000002D14FF480105DE704F48040B0F5804F91
:1049100002D14FF4001055E704F40050B0F5005FE9
:1049200002D14FF480004DE704F00800082801D1BF
:10493000000547E74FF4803044E7000008C001203D
:1049400008E0FFFD10B5014616480068C0084FF4A6
:104950007A74B0FBF4F041F2883400FB04F300BF3A
:10496000181EA3F1010302D14FF0004010BD4A6BA5
:1049700002F045000028F3D002F400600028EFD1D7
:10498000486B00F0040010B104208863EEE7486B28
:1049900000F0010010B101208863E7E7C5208863BB
:1049A0000020E3E708C0012010B501461348006865
:1049B000C0084FF47A74B0FBF4F041F2883400FB85
:1049C00004F300BF181EA3F1010302D14FF0004011
:1049D00010BD4A6B02F045000028F3D002F40060DD
:1049E0000028EFD1486B00F0040010B10420886368
:1049F000EEE7C52088630020EAE7000008C0012038
:104A00002DE9F04304460F4690462A480068C00846
:104A10004FF47A71B0FBF1F041F2883100FB01F9FB
:104A200000BFB9F10000A9F1010903D14FF0004026
:104A3000BDE8F083666B06F045000028F1D006F46F
:104A400000600028EDD1606B00F0040010B104207C
:104A5000A063EDE7606B00F0010010B10120A063DE
:104A6000E6E72046FFF75EFCB84201D00120DFE711
:104A7000C520A06300212046FFF75DFC054605F434
:104A8000604020B9280CA8F800000020D0E705F409
:104A90008040B0F5804F02D14FF40050C8E705F4D4
:104AA0000040B0F5004F02D14FF48050C0E74FF402
:104AB0008030BDE708C0012010B5014618480068E5
:104AC000C0084FF47A74B0FBF4F041F2883400FB74
:104AD00004F300BF181EA3F1010302D14FF0004000
:104AE00010BD4A6B02F045000028F3D002F40060CC
:104AF0000028EFD1486B00F0040010B10420886357
:104B0000EEE7486B00F0010010B101208863E7E791
:104B1000486B00F0400008B1402088630020DFE7C8
:104B200008C0012010B50446012007490870FCF7B1
:104B300071F828B90448007820F001000249087093
:104B40000148007810BD000094C1012070B50446F2
:104B50004AF0E0FA054604E0FCF75CF808B90020EA
:104B600070BD4AF0D7FA401BA042F5D34FF0FF309A
:104B7000F6E700002DE9F0410646B46B3046FCF73D
:104B800067FB02282CD0206C476DE06BD0F8548076
:104B9000012F02D0B8F1010F1FD11248216888639C
:104BA0002068C06B20F49D702168C863A06B40F042
:104BB0008040A0632046FDF738FF0546062D01D052
:104BC000052D05D12068FFF771FDA16B0843A06397
:104BD000012084F83400002020632046FDF72CFEDD
:104BE000BDE8F081FF05400070B50646B46B206B50
:104BF00082280AD12068FFF759FD05462DB1A06B28
:104C00002843A0632046FDF717FE2068C06A20F005
:104C100008002168C86240F23A5021688863012088
:104C200084F83400002020632046FEF7BFF870BDF2
:104C30000146886B0268D26B42F480720368DA63C3
:104C400070472DE9F04389B004460F46FCF716FE85
:104C500081464FF000080020019002903E46082156
:104C60002068FFF7DFFB05461DB1284609B0BDE807
:104C7000F0835022125B11042068FFF799FB054670
:104C80000DB12846F2E74FF0FF3003900820049062
:104C90003020059002200690002007900120089007
:104CA00003A92068FFF728FB2068FFF7AAFC054648
:104CB0000DB12846DAE71CE02068406B00F40010D4
:104CC00040B12068FFF75CFB01A941F8280008F11A
:104CD000010805E02068406B00F4005000B90EE0C8
:104CE000FCF7CCFDA0EB0900401C10B94FF00040D0
:104CF000BCE72068406B00F02A000028DCD000BF31
:104D00002068406B00F0080020B92068406B00F478
:104D1000007018B1082021688863A7E72068406BFD
:104D200000F0020018B10220216888639EE7206825
:104D3000406B00F0200018B120202168886395E7BF
:104D400040F23A502168886302980006029901F403
:104D50007F4140EA0120029901F47F0140EA1120DD
:104D6000029940EA11603060361D019800060199F1
:104D700001F47F4140EA0120019901F47F0140EAFA
:104D80001120019940EA1160306000206EE730B5D3
:104D90008FB00446012003902068FFF7C7FA18B9C6
:104DA0004FF080600FB030BD606C03281BD02068CE
:104DB000FFF7F5FB05460DB12846F3E70021206813
:104DC000FFF7B9FA606704212068FFF7B4FAA0671B
:104DD00008212068FFF7AFFAE0670C212068FFF791
:104DE000AAFA80210851606C032807D003A9206823
:104DF000FFF73FFC05460DB12846D3E7606C03285A
:104E000020D0BDF80C1021655022125B11042068DF
:104E1000FFF7DEFB05460DB12846C3E700212068F9
:104E2000FFF789FA606604212068FFF784FAA0661C
:104E300008212068FFF77FFAE0660C212068FFF761
:104E40007AFA206704212068FFF775FA010DE16402
:104E500004A92046FDF7F2FC10B14FF08050A1E705
:104E60005020005B01040A4600232068FFF77AFB0C
:104E700005460DB1284695E7D4E90412A069CDE9AD
:104E80000012029094E80F00FFF75BFA002089E718
:104E9000F8B5044600200090002600272068FFF7A0
:104EA000F9FA05460DB12846F8BD2068FFF708FB62
:104EB000054645B10021A1642068FFF7EBFA0546DD
:104EC0001DB12846F0E70121A164A06C012808D19A
:104ED00000212068FFF76CFA054615B14FF08050AD
:104EE000E2E71DE000212068FFF762FA05460DB1F8
:104EF0002846D9E718492068FFF776FA054615B124
:104F00004FF08050D0E700212068FFF714FA0646E2
:104F1000012080EAD67080F001070098401C0090C4
:104F20004FF6FF710098884201D2002FDAD04FF679
:104F3000FF710098884202D34FF08070B4E706F00A
:104F40008040B0F1804F02D10120606401E0002078
:104F500060640020A8E70000000010C170B504469E
:104F60000D4615B94FF0006070BD5022125B110460
:104F70002068FFF762FB06460EB13046F4E70021D9
:104F80002068FFF7D8F928600020EDE77CB50446DB
:104F900000200090019000212068FFF7CCF900F07C
:104FA0000070B0F1007F02D14FF400607CBD694613
:104FB0002046FFF746FE05460DB12846F6E7019864
:104FC00000F4803098B15022125B11042068FFF782
:104FD000EFF905460DB12846E8E700212068FFF704
:104FE0003DFA05460DB12846E0E70020DEE74FF028
:104FF0008060DBE77CB50446002000900190002132
:105000002068FFF798F900F00070B0F1007F02D13E
:105010004FF400607CBD69462046FFF712FE05464E
:105020000DB12846F6E7019800F4802098B150228F
:10503000125B11042068FFF7BBF905460DB1284645
:10504000E8E702212068FFF709FA05460DB1284676
:10505000E0E70020DEE74FF08060DBE710B50446B4
:105060000120144908704AF03BF802281ED1FBF7D2
:10507000DDFD20B92046FFF755FD0E4908700D48AB
:105080000078012812D00C48006830B900220221B3
:105090000A204AF0D3F8084908600748006828B990
:1050A0000448007840F00100024908700148007887
:1050B00010BD000094C1012098C10120F0B589B055
:1050C00007460D46144601261648007800F00100F8
:1050D00010B1032009B0F0BD35B1012D06D0022D6D
:1050E0000BD0032D18D10FE0002617E001A8FBF725
:1050F00087FD07982060002610E001A8FBF780FDDF
:1051000008982080002609E001A8FBF779FD08989F
:10511000400A2060002601E0042600BF00BF3046A0
:10512000D8E7000094C101202DE9F84F83460F46CF
:10513000904699464FF0010A47F23050FFF706FDBE
:10514000002802DA5046BDE8F88F4A464146384604
:10515000FBF790FD0446FCB947F230530022694644
:105160000E4800684AF02AF80646AEB9BDF80000BD
:10517000012811D149F0CEFF054605E0FBF74AFDB5
:1051800010B94FF0000A06E049F0C4FF401B47F297
:1051900030518842F2D300BF5046D4E798C1012075
:1051A00010B504462046FFF7BDFC10BD2DE9F84FB1
:1051B00082460E46174698464FF0010947F2305096
:1051C000FFF7C4FC002802DA4846BDE8F88F4246E3
:1051D00039463046FBF770FDF8B947F230530022EC
:1051E00069460F48006849F0E9FF0546ADB9BDF8CA
:1051F0000000022811D149F08DFF044605E0FBF7BD
:1052000009FD10B94FF0000906E049F083FF001BCB
:1052100047F230518842F2D300BF4846D5E700003C
:1052200098C1012070B50546AC6B2068406820F03D
:10523000030021684860606D40F010006065012047
:1052400084F851002046216F884770BD70B5044630
:10525000A56B2846696E884770BDF8B50546AC6BEE
:10526000FCF70CFB06462868006800F48070B0F577
:10527000807F2DD02068406820F0200021684860A1
:105280002068406820F002002168486032466421AE
:10529000204600F023F818B1606D40F020006065F2
:1052A000A06850B900BF002000902068C06800903E
:1052B00020688068009000BF00BF0020E0860120C9
:1052C00084F85100606D18B12046216F8847F8BD01
:1052D0002046A16D884700BFF9E700007CB5044671
:1052E0000E4615463346012202212046009500F065
:1052F00039F828B1606D40F02000606503207CBD66
:10530000164800681821B0FBF1F01549B0FBF1F028
:105310004FF47A71484301906068B0F5827F0DD1F7
:105320003346002280212046009500F01BF898B1FA
:10533000606D40F0200060650320E0E700BF019849
:1053400000B908E00198401E019020688068C0F311
:10535000C0100028F3D100BF0020D0E708C0012012
:1053600040420F002DE9F84F04460D4690461E4678
:10537000DDF82890FCF782FAA0EB0900371AFCF759
:105380007DFA82462C480068C0F3CB307843009009
:1053900046E0701C002843D0FCF770FAA0EB0A002E
:1053A000B84200D2A7BB2068406820F0E000216826
:1053B00048606068B0F5827F0DD1A068B0F5004FFD
:1053C00003D0A068B0F5806F05D12068006820F098
:1053D000400021680860A06AB0F5005F0DD100BFF1
:1053E0002068006820F40050216808602068006888
:1053F00040F400502168086000BF012084F851008B
:1054000000BF002084F8500000BF0320BDE8F88FE3
:10541000FFE7009808B9002702E00098401E0090BE
:10542000206880682840A84201D1012000E00020C7
:105430004045AED10020E9E708C0012010B54FF08B
:10544000E02000695CF026FE012801D05BF03AFF05
:1054500010BD000000B593B0302107A8FAF7ACFFEB
:10546000142102A8FAF7A8FF00BF002001902348EA
:10547000006840F08050214908600846006800F04C
:105480008050019000BF00BF00BF002001901C4869
:10549000006840F480401A4908600846006800F43B
:1054A0008040019000BF00BF0120079000040890D9
:1054B00002200D9041050E9104210F914821109179
:1054C000022111910321129107A8FCF703FF08B1F3
:1054D000FBF7A4FC0F200290022003900020049010
:1054E0004FF48050059000200690022102A8FCF79E
:1054F0008FFD08B1FBF792FC13B000BD40380240AD
:10550000007000400348006840F4700001490860E2
:105510007047000088ED00E010B50248FEF735F84E
:1055200010BD00005802002010B502682B4B9842B5
:105530000ED0B0F1804F0BD0294B984208D0294BA8
:10554000984205D0284B984202D0284B984203D16C
:1055500022F070024B681A43204B984220D0B0F1E1
:10556000804F1DD01E4B98421AD01E4B984217D028
:105570001D4B984214D01D4B984211D01C4B9842A1
:105580000ED01C4B98420BD01B4B984208D01B4BA3
:10559000984205D01A4B984202D01A4B984203D138
:1055A00022F44072CB681A4322F080034C6943EA2C
:1055B00004028B68C3620B688362084B984202D076
:1055C0000A4B984201D10B690363036843F004035B
:1055D000036001234361026010BD00000000014030
:1055E0000004004000080040000C0040000401409E
:1055F00000400140004401400048014000180040C4
:10560000001C00400020004000BF00BF02680C32B8
:1056100052E8002F22F4907102680C3242E8001325
:10562000002BF3D100BF00BF00BF0268143252E864
:10563000002F22F001010268143242E80013002B0F
:10564000F3D100BF016B01290ED100BF00BF02687A
:105650000C3252E8002F22F0100102680C3242E8AE
:105660000013002BF3D100BF202180F8421000214D
:10567000016370472DE9F84F04462068006920F463
:105680004050E1680843216808612169A068084327
:1056900061690843E169084300902068C06849F2E5
:1056A0000C618843009908432168C86020684069FC
:1056B00020F44070A1690843216848617649206858
:1056C000884203D075492068884203D1FCF79AFDCF
:1056D000814602E0FCF786FD8146E069B0F5004FA7
:1056E0006CD102206168A0FB015003461920A9FB80
:1056F000007001462A463846FAF7C2FD6421B0FB25
:10570000F1F04FEA001A02206168A0FB01510B463C
:105710001920A9FB00712A463846FAF7B1FD8346E5
:1057200002206168A0FB015003461920A9FB00710B
:105730002A463846FAF7A4FD6421B0FBF1F000EBED
:10574000C00101EB0010ABEB8000322101EBC00087
:105750006421B0FBF1F000F0F8000AEB400A0220EF
:105760006168A0FB015003461920A9FB00700146A7
:105770002A463846FAF784FD834602206168A0FB7A
:10578000015003461920A9FB00712A463846FAF752
:1057900077FD6421B0FBF1F000EBC00101EB0010DC
:1057A000ABEB8000322101EBC0006421B0FBF1F0D3
:1057B00000F007005044216888606AE004206168B6
:1057C000A0FB015003461920A9FB007001462A46A0
:1057D0003846FAF755FD824604206168A0FB015067
:1057E00003461920A9FB007001462A463846FAF7FD
:1057F00047FD6421B0FBF1F000EBC00101EB0010AC
:10580000AAEB8000322101EB00106421B0FBF1F023
:1058100000F0F00A04206168A0FB01700346192023
:10582000A9FB00513A462846FAF72AFD6421B0FB4D
:10583000F1F00AEB001A04206168A0FB01510B464D
:105840001920A9FB00712A463846FAF719FD83464C
:1058500004206168A0FB015003461920A9FB0070D9
:1058600001462A463846FAF70BFD6421B0FBF1F0F9
:1058700000EBC00101EB0010ABEB8000322101EB2B
:1058800000106421B0FBF1F000F00F0050442168DB
:105890008860BDE8F88F000000100140001401404E
:1058A0002DE9F84304460D4617469846089E31E018
:1058B000701C70B3FBF7E2FFA0EB0800B04200D809
:1058C00016B90320BDE8F8832068C06800F0040022
:1058D000F8B1802D1ED0402D1CD020680068C0F388
:1058E000C000B0B100BF00200090206800680090A8
:1058F00020684068009000BF00BF2046FFF784FE8C
:105900000820606400BF002084F8400000BF012030
:10591000D8E7FFE7206800682840A84201D10120AD
:1059200000E00020B842C3D00020CBE700BFFEE774
:105930000FB4054B10B503A9044A029801F046F9CB
:1059400010BC5DF814FB00000D850108D400002098
:105950000FB4084B10B504A902AA039801F036F958
:10596000044602A9002001F0C8FC204610BC5DF8E6
:1059700014FB0000FB720008014B024A01F026B93B
:105980000D850108D40000204100080218BF042042
:105990000A0E18BF40F001004FF07F4232EA0101C9
:1059A00008BF40F00200012808BF05207047000032
:1059B00002480068C0F30220704700000CED00E0D0
:1059C00010B5002804DB0A07130E054A135406E03D
:1059D0000A07140E034A00F00F031B1FD45410BD16
:1059E00000E400E018ED00E0EFF3058070470000F0
:1059F00010EE100A10B50023A0F50001B1F1FE4F22
:105A000067D200BF00F500216FF07E0202EBE15C7F
:105A1000C1F302524FF07E5101EB025100EE901A99
:105A2000A0EBCC5003EB0C0100EE100A51EA02008F
:105A300036D030EE601A70EE200A9FED3D2A3E48C7
:105A400081EE200A9FED3B1A60EE000A00EE821AFA
:105A500060EE201A61EE810A784401EE101A00EB24
:105A600082009FED362AB8EEC11AD0ED001A3448F4
:105A700041EE021A784401EE101A00EB8200B8EEF3
:105A8000C11A90ED002ADFED2F2A01EE222AB0EE96
:105A9000001A72EE200A40EE010A31EEA00A10BD93
:105AA000F7EE000A9FED291A30EE600ADFED260AB4
:105AB00000EE201ADFED260A60EE001A40EE010A21
:105AC0009FED241A00EE201A61EE810A30EE200AC2
:105AD00010BD4FF07F41B1EB400F03D2BDE8104045
