:020000040800F2
:10000000386E01205D020008D13000089F290008E9
:10001000CD3000089B090008E1370008000000000F
:100020000000000000000000000000009D0100082A
:10003000BB0A000800000000F9010008ED320008CA
:1000400077020008770200087702000877020008AC
:10005000770200087702000877020008770200089C
:10006000770200087702000877020008770200088C
:10007000770200087702000877020008770200087C
:10008000770200087702000877020008770200086C
:10009000770200087702000877020008770200085C
:1000A000770200087702000877020008770200084C
:1000B000770200087702000877020008770200083C
:1000C000770200087702000877020008770200082C
:1000D000770200087702000877020008770200081C
:1000E000BD0A0008770200087702000877020008BE
:1000F00077020008770200087702000877020008FC
:1001000077020008770200087702000877020008EB
:10011000770200087702000877020008CD33000854
:10012000770200087702000877020008A10900089A
:1001300077020008000000000000000077020008BD
:1001400077020008770200087702000877020008AB
:10015000770200087702000877020008770200089B
:10016000770200087702000877020008770200088B
:10017000770200087702000800000000000000007D
:100180007702000877020008DFF80CD000F0C8FB07
:100190000048004721E00408386E01202C4B196804
:1001A0000868B0E8F04F80F30988BFF36F8F4FF015
:1001B000000080F3118870470000000008480068C4
:1001C000006880F308884FF0000080F3148862B65E
:1001D00061B6BFF34F8FBFF36F8F00DF00BF00BF6B
:1001E00008ED00E0DFF80C00016841F470010160E7
:1001F000704700BF88ED00E0EFF30980BFF36F8F19
:10020000134B1A681EF0100F08BF20ED108A20E96A
:10021000F04F106009B44FF0500080F31188BFF325
:100220004F8FBFF36F8F5FF099F84FF0000080F3AE
:10023000118809BC19680868B0E8F04F1EF0100F6B
:1002400008BFB0EC108A80F30988BFF36F8F704746
:1002500014000020EFF30580704700000648804737
:1002600006480047FEE7FEE7FEE7FEE7FEE7FEE79B
:10027000FEE7FEE7FEE7FEE7B93300088901000864
:100280002DE9F05F0546002092469B4688460646CB
:10029000814640241BE0284641464746224600F05E
:1002A000A8FA53465A46C01A914110D3114618462F
:1002B000224600F08FFA2D1A67EB01084F462246BE
:1002C0000120002100F086FA17EB00094E41201EA4
:1002D000A4F10104DFDC484631462A464346BDE826
:1002E000F09F2DE9F0410024061B254671F1000620
:1002F00005DA01240027D0EB070067EB0101161E89
:1003000073F1000605DA0027D2EB0702012567EB3F
:100310000303FFF7B5FF86460E4617469C46AC42E0
:1003200004D00025D0EB050E65EB010624B10020BA
:10033000D2EB000760EB030C704631463A46634649
:10034000BDE8F08140EA01039B0703D009E008C93A
:10035000121F08C0042AFAD203E011F8013B00F88A
:10036000013B521EF9D27047D2B201E000F8012BD6
:10037000491EFBD270470022F6E710B513460A4625
:1003800004461946FFF7F0FF204610BD2DE9FE4F49
:10039000804681EA0300C00F0C46009021F0004126
:1003A00023F00045B8EB0200A94105D240462146A2
:1003B00090461C460B46024623F00040104347D0AF
:1003C000270DC7F30A00C3F30A510290401A0190A7
:1003D00040286BDAC3F3130040F4801B0098924668
:1003E00020B10023D2EB030A63EB0B0B01985946B3
:1003F000C0F14002504600F0EDF906460D46504669
:100400005946019A00F005FA10EB080061410024FA
:1004100087EA115284EAE7731A4340D0009A62B324
:10042000019A012A4FEA075215DC001B61EB020119
:100430004FF0004202EA0752CDE90042001C41F5AC
:10044000801132462B4600F005FA03B0BDE8F08F6C
:1004500040462146F9E7001B61EB0201001C41F513
:10046000801300185B412018A2F5001747EB030129
:1004700040EAD570B6196D4111E06D084FEA3606B5
:1004800045EAC0754FEA0752001B61EB0201001CF0
:1004900041F5801149084FEA3000001951413246B8
:1004A0002B4603B0BDE8F04F00F0C5B9009801221B
:1004B00040000023D0EB020263EBE073009821467A
:1004C0004FEAE074B8EB000061EB0401E9E783F068
:1004D00000435BE781F0004158E72DE9FE4F81EAD8
:1004E000030404F0004421F0004100944FF0000B9D
:1004F00023F0004350EA01045ED052EA03045BD0CB
:10050000C3F30A54C1F30A552C44A4F2F334019402
:10051000A0FB0254C1F3130141F48011C3F3130390
:1005200043F4801301FB024400FB034E840A970A44
:1005300044EA815447EA8357A4FB076802958D0A71
:1005400005FB07854FEA932C04FB0C542705029DFD
:100550004FEA065847EA1637B5EB08056EEB070C6D
:10056000870E920E47EA811742EA8312A7FB020127
:10057000B6EB0B0164EB00042B0D43EA0C335E1861
:1005800044EB1C50DA465146E7FB0201C5F3130465
:100590004FEA0B3343EA14534FEA0432019C43EA17
:1005A0000603A4F10C040294009CCDE900B400F011
:1005B00051F903B0BDE8F08F00200146F9E72DE9BD
:1005C000F04D81EA030404F0004B21F0004514468D
:1005D0004FF0000A23F0004150EA050220D054EA0F
:1005E00001021DD0C5F30A570246C5F31303C1F338
:1005F0001300C1F30A5640F4801543F48013A7EBAF
:100600000608101BD64608F2FD3873EB050002D32E
:1006100008F1010801E092185B41B8F1000F03DA1C
:1006200000200146BDE8F08D00204FF48011064601
:1006300084460EE0171B73EB050705D3121B63EB13
:10064000050306434CEA010C49084FEA30009218B2
:100650005B4150EA0107EDD152EA030012D082EA71
:10066000040083EA0501084305D0101BAB4106D204
:100670000122002306E000224FF0004302E06FF069
:10068000010253101AEB06004CEB085110EB0A0064
:1006900041EB0B01BDE8F04D00F0CDB80EB5C10F38
:1006A00080EAE0700844CA07002140F233438DE835
:1006B0000E000A460B4600F0CDF803B000BD0EB5A3
:1006C00040F2334102910021CDE900110A460B4668
:1006D00000F0C0F803B000BD70B5C1F30A5201F0DC
:1006E00000450024C1F3130140F2FF3341F48011AF
:1006F0009A4201DA002070BD40F233439A42A2F2DE
:10070000334203DC524200F074F800E090402C4386
:10071000F1D0404270BDC1F30A5210B5C1F31301CC
:1007200040F2FF3341F480119A4201DA002010BDFB
:1007300040F233439A42A2F2334203DC524200F0C9
:1007400058F810BD904010BD30B5041E71F1000482
:1007500004DB4FF00044404264EB0101141E73F1CE
:10076000000405DB1C464FF00043524263EB0403D8
:100770008B4208BF824230BD30B5041E71F10004C7
:1007800004DB4FF00044404264EB0101141E73F19E
:10079000000405DB1C464FF00043524263EB0403A8
:1007A000994208BF904230BD30B50B46014600204B
:1007B0002022012409E021FA02F59D4205D303FA23
:1007C00002F5491B04FA02F52844151EA2F10102A4
:1007D000F1DC30BD202A04DB203A00FA02F10020CF
:1007E00070479140C2F1200320FA03F3194390406F
:1007F0007047202A04DB203A21FA02F000217047DA
:1008000021FA02F3D040C2F1200291400843194678
:100810007047202A06DBCB17203A41FA02F043EA60
:10082000E07306E041FA02F3D040C2F120029140A9
:1008300008431946704710B5141E73F1000408DA16
:10084000401C41F1000192185B411A4301D120F094
:10085000010010BD2DE9F04D92469B4611B1B1FA51
:1008600081F202E0B0FA80F220329046FFF7B2FF48
:1008700004460F4640EA0A0041EA0B0153465A4635
:10088000084313D0114653EA010019D0C8F14002C1
:100890005046FFF7AEFF05460E46504659464246C3
:1008A000FFF798FF084305D0012004E020463946B1
:1008B000BDE8F08D0020054346EAE0762C4337433F
:1008C0000A986305E40AA0EB08000022FD0A44EA46
:1008D00047540A3002D500200146E9E70105101906
:1008E0006941DDE9084500196941BDE8F04DA2E71D
:1008F000C1F30A52C1F3130140F2FF3341F48011F6
:100900009A4202DA00200146704740F233439A428D
:10091000A2F2334202DC5242FFF76BBFFFF75ABF2D
:10092000064C074D06E0E06840F0010394E807003C
:1009300098471034AC42F6D3FFF72AFC98090A080E
:10094000B8090A0870B58C1810F8015B15F0070398
:1009500001D110F8013B2A1106D110F8012B03E058
:1009600010F8016B01F8016B5B1EF9D12B0705D460
:100970000023521E0DD401F8013BFAE710F8013BA9
:10098000CB1A921C03E013F8015B01F8015B521EC5
:10099000F9D5A142D8D3002070BD00BFFEE700000A
:1009A00010B5024800F094F810BD00008C0500203E
:1009B0000146087810381823B0FBF3F20848805C31
:1009C000C865032A05D908686FF30900001D88650A
:1009D00003E008686FF309008865886D70470000C0
:1009E000000C0608014600208A6A8B69CBB932B137
:1009F000012A0DD0022A03D0032A10D10EE000BF35
:100A0000CB6A03F08073B3F1807F00D1012007E04F
:100A1000CB6AB3F1C07F00D1012001E000E000BF4C
:100A200034E08B69B3F5005F1AD132B1012A07D0E7
:100A3000022A03D0032A11D10AE000BF01200EE0F0
:100A4000CB6A03F08073B3F1807F00D1012006E010
:100A5000CB6AB3F1C07F00D1012000E000BF15E0F8
:100A600032B1012A05D0022A04D0032A0CD103E0B6
:100A700000BF00BF012008E0CB6A03F08073B3F130
:100A8000807F00D1012000E000BF00BF704730B57B
:100A90000468246824F4802405682C60046863607A
:100AA0008468402C04D10468A2600468E16003E01B
:100AB0000468A1600468E26030BD704710B54FF46F
:100AC000005000F001FA10BD72B600BFFEE7000052
:100AD000F8B50446002000908C4800684FF4165189
:100AE000B0FBF1F7A56D2E6894F85C1008208840E3
:100AF000304098B12068006800F0040070B12068B0
:100B0000006820F004002168086094F85C10082058
:100B10008840A860606D40F00100606594F85C104A
:100B200001208840304068B12068406900F08000B2
:100B300040B194F85C1001208840A860606D40F0DE
:100B40000200606594F85C1004208840304068B171
:100B50002068006800F0020040B194F85C100420A6
:100B60008840A860606D40F00400606594F85C10F7
:100B700010208840304078B32068006800F00800FA
:100B800050B394F85C1010208840A860206800687A
:100B900000F4802080B12068006800F4002028B9AB
:100BA000206CC8B12046216C884715E0A06C98B134
:100BB0002046A16C88470FE02068006800F4807030
:100BC00028B92068006820F0080021680860206CBF
:100BD00010B12046216C884794F85C102020884092
:100BE0003040002865D02068006800F01000002820
:100BF0005FD094F85C1020208840A86094F83500FD
:100C0000052828D12068006820F0160021680860B7
:100C10002068406920F0800021684861206C08B994
:100C2000A06C28B12068006820F0080021680860E6
:100C300094F85C103F208840A860012084F83500BB
:100C400000BF002084F8340000BF206D10B12046A2
:100C5000216D8847F8BD2068006800F4802080B1CD
:100C60002068006800F4002028B9606C10B12046AC
:100C7000616C88471DE0E06BD8B12046E16B884786
:100C800017E02068006800F4807068B92068006888
:100C900020F0100021680860012084F8350000BFB2
:100CA000002084F8340000BFE06B10B12046E16BF7
:100CB0008847606D38B3606D00F00100F0B1052029
:100CC00084F835002068006820F001002168086081
:100CD00000BF0098401C0090B84200D905E0206891
:100CE000006800F001000028F3D100BF012084F863
:100CF000350000BF002084F8340000BFE06C10B164
:100D00002046E16C884700BFA4E7000010000020E7
:100D10002DE9F0410446002500F0E4F9074614B936
:100D20000120BDE8F081606A00B100BF022084F8B4
:100D3000350000BF002084F8340000BF2068006840
:100D400020F00100216808600AE000F0CBF9C01B28
:100D5000052805D920206065032084F83500E0E7E8
:100D60002068006800F001000028EED120680568C6
:100D700021480540D4E901010843E168084321699D
:100D8000084361690843A1690843E1690843216A8E
:100D900008430543606A042803D1D4E90B010843E2
:100DA0000543206805602068456925F00705606AED
:100DB0000543606A04280DD1A06A0543E06A48B182
:100DC0002046FFF70FFE28B140206065012084F81F
:100DD0003500A6E7206845612046FFF7E9FD064695
:100DE00094F85C103F208840B060002060650120CE
:100DF00084F83500002094E73F8010F02DE9F0479B
:100E000004460D4616461F464FF00008D4F8589089
:100E100000BF94F83400012802D10220BDE8F08719
:100E2000012084F8340000BF94F83500012825D152
:100E3000022084F83500002060653B463246294692
:100E40002046FFF724FE94F85C103F208840C9F844
:100E500008002068006840F0160021680860206CD7
:100E600028B12068006840F0080021680860206808
:100E7000006840F001002168086006E000BF002023
:100E800084F8340000BF4FF002084046C6E7000077
:100E900070B5044600F026F906462546681C10B1D8
:100EA00004480078054400BF00F01CF9801BA842EC
:100EB000FAD370BD0C00002010B50446B4F5005FF5
:100EC00001D101F0BDFF10BD10B504460448006813
:100ED000204020B1024804602046FFF7EDFF10BD1E
:100EE000143C0140F8B502460B46002500240020C2
:100EF0000021D6E0012606FA01F51E6806EA05047F
:100F0000AC4274D11E7906F00306012E04D01E797E
:100F100006F00306022E13D190684F000326BE4050
:100F2000B0434F00DE68BE403043906050680126F9
:100F30008E40B0431E79C6F300168E403043506099
:100F40001E7906F00306032E09D0D0684F00032651
:100F5000BE40B0434F009E68BE403043D0601E7913
:100F600006F00306022E13D1CF0802F1200656F830
:100F700027004E07F70E0F26BE40B0434F07FF0E67
:100F80001E69BE403043CF0802F1200646F8270014
:100F900010684F000326BE40B0431E7906F00306DA
:100FA0004F00BE40304310605E6806F44036002EAD
:100FB00076D000BF002600963C4E366846F4804648
:100FC0003A4F3E603E46366806F48046009600BFC3
:100FD00000BF374E8F0856F827008E07370F0F26B1
:100FE000BE40B043334EB24202D1002624E057E067
:100FF000314EB24201D101261EE0304EB24201D143
:10100000022619E02E4EB24201D1032614E02D4EE5
:10101000B24201D104260FE02B4EB24201D1052687
:101020000AE02A4EB24201D1062605E0284EB2421D
:1010300001D1072600E008268F073F0FBE4030434E
:101040001B4E8F0846F82700224E3068A0435E688A
:1010500006F4801606B120431E4E3060361D3068FF
:10106000A0435E6806F4001606B12043194E361DF3
:101070003060184E361F3068A0435E6806F40036B4
:1010800006B12043134E361F3060361F3068A04330
:101090005E6806F4803606B120430E4E083E30608E
:1010A000491C1029FFF426AFF8BD00004438024067
:1010B00008380140000002400004024000080240DD
:1010C000000C0240001002400014024000180240D0
:1010D000001C0240083C01400AB1816101E00B04A0
:1010E00083617047014800687047000004000020D9
:1010F00070B504460CB9012070BD94F83D0028B9C4
:10110000002084F83C00204600F05EFA242084F899
:101110003D002068006820F0010021680860206818
:10112000006840F40040216808602068006820F4EE
:1011300000402168086000F089FC05465C49606851
:10114000884206D85B48854201D2012007E0002092
:1011500005E05948854201D2012000E00020012825
:1011600000D1C9E75548B5FBF0F62068406820F08B
:101170003F003043216848604D496068884201D88B
:10118000701C07E04FF4967070434FF47A71B0FB17
:10119000F1F0401C2168096A21F03F0108432168F1
:1011A000086243496068884214D8681E6168490033
:1011B000B0FBF1F0401CC0F30B00042801D2042066
:1011C0003DE0681E61684900B0FBF1F0401CC0F3CF
:1011D0000B0034E0A06838B9681E616801EB41017A
:1011E000B0FBF1F0401C0AE0681E616801EBC1022F
:1011F00002EB0111B0FBF1F0401C40F48040C0F361
:101200000B0008B901201AE0A06848B9681E61689F
:1012100001EB4101B0FBF1F0401CC0F30B000CE00E
:10122000681E616801EBC10202EB0111B0FBF1F035
:10123000401CC0F30B0040F4804040F400402168A3
:10124000C9694CF6FF72914308432168C861D4E92B
:10125000070108432168096821F0C001084321689B
:101260000860D4E9031008432168896848F2FF3216
:101270009143084321688860D4E905010843216847
:10128000C96821F0FF0108432168C8602068006830
:1012900040F001002168086000202064202084F8CC
:1012A0003D000020206384F83E0000BF24E70000DA
:1012B000A086010080841E0000093D0040420F000E
:1012C0002DE9FC5F04460F4690469946DDE90CABDC
:1012D0000E9EFFF707FF054694F83D00202870D1C9
:1012E00019230122B5492046009501F029FC10B1CF
:1012F0000220BDE8FC9F00BF94F83C00012801D10A
:101300000220F6E7012084F83C0000BF2068006856
:1013100000F0010028B92068006840F00100216851
:1013200008602068006820F40060216808602220BE
:1013300084F83D00402084F83E0000202064C4F87A
:1013400024A0A4F82AB0608D20859D48E0624B4619
:10135000424639462046CDE9006501F041FB08B11F
:101360000120C6E7208D88B900BF002001902068C9
:101370004069019020688069019000BF00BF20682B
:10138000006840F400702168086040E0208D01286A
:1013900018D12068006820F480602168086000BFD0
:1013A00000200190206840690190206880690190C8
:1013B00000BF00BF2068006840F40070216808602A
:1013C00025E0F8E0208D022816D12068006820F47E
:1013D0008060216808602068006840F4006021682F
:1013E000086000BF002001902068406901902068DB
:1013F0008069019000BF0AE000BF002001902068D2
:101400004069019020688069019000BF00BFC3E07F
:10141000208D03287ED8208D012815D12A463146FB
:10142000204601F069FC08B1012062E720680069EC
:10143000616A0870606A401C6062208D401E2085D1
:10144000608D401E6085A7E0208D02282AD133469A
:1014500000225C492046009501F072FB08B1012092
:1014600047E72068006840F4007021680860206841
:101470000069616A0870606A401C6062208D401ECD
:101480002085608D401E608520680069616A087053
:10149000606A401C6062208D401E2085608D401E69
:1014A000608579E03346002246492046009501F0E8
:1014B00047FB08B101201CE72068006820F4806029
:1014C0002168086020680069616A0870606A401CD1
:1014D0006062208D401E2085608D401E60853346F1
:1014E000002238492046009501F02AFB08B101206E
:1014F000FFE62068006840F40070216808602068FA
:101500000069616A0870606A401C6062208D401E3C
:10151000208500E010E0608D401E60852068006935
:10152000616A0870606A401C6062208D401E2085E0
:10153000608D401E60852FE02A463146204601F02E
:10154000DBFB08B10120D4E620680069616A0870FD
:10155000606A401C6062208D401E2085608D401EA8
:10156000608520684069C0F38000A8B1208D032801
:1015700005D12068006820F4806021680860206838
:101580000069616A0870606A401C6062208D401EBC
:101590002085608D401E6085208D00287FF438AF47
:1015A000202084F83D00002084F83E0000BF84F82D
:1015B0003C0000BF9DE602209BE6000002001000F8
:1015C0000000FFFF0400010010B586B0044614219E
:1015D00001A8FEF7D0FE1B492068884230D100BF29
:1015E000002000901848006840F00200164908608A
:1015F0000846006800F00200009000BF00BF4FF4F2
:10160000406001901220029000200390032004907B
:101610000420059001A90D48FFF764FC00BF0020DD
:10162000009009481030006840F4800006491031ED
:1016300008600846006800F48000009000BF00BF0A
:1016400006B010BD0058004030380240000402408F
:101650000348006803490978084401490860704755
:10166000040000200C00002010B50D48006840F474
:1016700000700B4908600846006840F4806008600C
:101680000846006840F480700860032000F0E0F82D
:101690000F2000F007F800F05FF8002010BD0000F8
:1016A000003C02402DE9F04188B004460027B846CE
:1016B00000BF002001902348006840F0200021492D
:1016C00008600846006800F02000019000BF00BFDD
:1016D00002A903A800F092F9069F1FB900F0B6F91D
:1016E000054602E000F0B2F945001748B5FBF0F0FE
:1016F000A0F1010815481649086040F2E731144886
:10170000C160C0F80480002101618160816100F046
:1017100019FF064696B90E4800F048FF06466EB916
:10172000372000F043F8102C07D200222146372042
:1017300000F050F80748046000E00126304608B089
:10174000BDE8F0814038024040420F0000140040E4
:10175000340600200800002008B500BF00200090DB
:101760001148006840F480400F490860084600684E
:1017700000F48040009000BF00BF00BF0020009038
:10178000081F006840F08050091F08600846006884
:1017900000F08050009000BF00BF00220F21901E7B
:1017A00000F018F808BD0000443802400146084621
:1017B00000280DDB00BF00BF00F01F0301229A408C
:1017C00043099B0003F1E023C3F8002100BF00BFE1
:1017D00000BF70472DE9F05F80460D461646002792
:1017E00002F018F8074639462A46334601F007004A
:1017F000C0F1070ABAF1040F02D94FF0040A01E060
:10180000C0F1070AD14600F1040ABAF1070F02D26B
:101810004FF0000A01E0A0F1030AD4464FF0010A9C
:101820000AFA09FAAAF1010A0AEA020A0AFA0CFA01
:101830004FF0010B0BFA0CFBABF1010B0BEA030BA6
:101840004AEA0B042146404601F0ECFFBDE8F09F58
:1018500000BF00F00702064B19684FF6FF0319405E
:10186000044B0B4343EA0221014B196000BF704750
:101870000CED00E00000FA0570B504460D460CB909
:10188000012070BD5848006800F00700A84209D246
:1018900055490D700846006800F00700A84201D0C5
:1018A0000120EEE7207800F0020002281DD1207808
:1018B00000F00400042805D14C48006840F4E050D2
:1018C0004A490860207800F00800082805D14748F8
:1018D000006840F46040454908604448006820F0D2
:1018E000F000A168084341490860207800F0010039
:1018F000A8B36068012807D13C4808380068C0F3E5
:101900004040B8B90120BCE76068022802D0606896
:10191000032807D1354808380068C0F3406048B94B
:101920000120AEE7314808380068C0F3400008B92C
:101930000120A6E72D48006820F0030061680843F5
:101940002A490860FFF7CEFB064609E0FFF7CAFB0D
:10195000801B41F28831884202D9032091E707E0D9
:101960002248006800F00C006168B0EB810FEDD1F7
:101970001D48006800F00700A84209D91A490D70F7
:101980000846006800F00700A84201D0012078E76F
:10199000207800F00400042807D11448006820F4DF
:1019A000E050E168084311490860207800F0080021
:1019B000082808D10D48006820F46040216940EAF9
:1019C000C1000A49086000F061F808490968C1F3DC
:1019D0000311074A515CC840064908600648006880
:1019E000FFF760FE00204CE7003C02400838024050
:1019F000080C060810000020080000200F220260DA
:101A00000D4A126802F0030242600B4A126802F0AB
:101A1000F0028260084A126802F4E052C260064A8C
:101A2000126802F46042D2080261044A126802F0AD
:101A300007020A607047000008380240003C02407C
:101A400001480068704700001000002000B5FFF753
:101A5000F7FF04490968C1F38221034A515CC84079
:101A600000BD000008380240180C060800B5FFF75A
:101A7000E7FF04490968C1F34231034A515CC84099
:101A800000BD000008380240180C06082DE9F04798
:101A9000002400250026A1462548006800F00C001F
:101AA00020B1042805D008283AD105E0DFF8849059
:101AB00039E0DFF8849036E01D48001F006800F030
:101AC0003F041B48001F006800F4800078B11A48EA
:101AD0001749091F0968C1F38811A0FB017001466D
:101AE000224600233846FEF7CBFB05460EE01148A0
:101AF0000F49091F0968C1F38811A0FB0170014655
:101B0000224600233846FEF7BBFB05460848001F67
:101B10000068C0F30140401C4600B5FBF6F902E046
:101B2000DFF8109000BF00BF4846BDE8F087000016
:101B3000083802400024F40000127A00F8B5044688
:101B40000CB90120F8BD207800F00100002874D005
:101B5000F948006800F00C0004280DD0F648006831
:101B600000F00C00082813D1F348001F006800F4AF
:101B70008000B0F5800F0BD1EF4808380068C0F343
:101B80004040002859D06068002856D10120D9E78C
:101B900000BF6068B0F5803F08D1E74808380068AA
:101BA00040F48030E449083908601EE06068B0F510
:101BB000A02F0DD1E0480838006840F48020DE49AD
:101BC000083908600846006840F4803008600CE07E
:101BD000D9480838006820F48030D74908390860AF
:101BE0000846006820F48020086000BF606890B15B
:101BF000FFF778FA054606E0FFF774FA401B642801
:101C000001D903209EE7CC4808380068C0F3404063
:101C10000028F1D011E0FFF765FA054606E0FFF76E
:101C200061FA401B642801D903208BE7C2480838B9
:101C30000068C0F340400028F1D1207800F0020095
:101C400002285FD1BC48006800F00C0058B1BA48C7
:101C5000006800F00C0008281CD1B748001F00687D
:101C600000F48000B0B9B44808380068C0F3400000
:101C700020B1E068012801D0012063E7AE480838B0
:101C8000006820F0F800216940EAC100AA4908393B
:101C9000086037E0E06800B30120A8490860FFF75A
:101CA00021FA054606E0FFF71DFA401B022801D97C
:101CB000032047E7A04808380068C0F34000002828
:101CC000F1D09D480838006820F0F800216940EA0A
:101CD000C10099490839086014E00020974908605C
:101CE000FFF700FA054606E0FFF7FCF9401B022863
:101CF00001D9032026E7904808380068C0F3400067
:101D00000028F1D1207800F0080008282CD1606963
:101D1000A8B101208A490860FFF7E4F9054606E00A
:101D2000FFF7E0F9401B022801D903200AE78248A7
:101D30006C300068C0F340000028F1D014E00020AF
:101D40007F490860FFF7CEF9054606E0FFF7CAF9BC
:101D5000401B022801D90320F4E677486C30006864
:101D6000C0F340000028F1D1207800F004000428DE
:101D700070D1002770483830006800F0805090B96A
:101D800000BF002000906C483830006840F0805060
:101D90006949383108600846006800F080500090BA
:101DA00000BF00BF01276748006800F48070B0B929
:101DB0006448006840F4807062490860FFF792F957
:101DC000054606E0FFF78EF9401B022801D90320E3
:101DD000B8E65C48006800F480700028F2D000BFCC
:101DE000A068012808D154486830006840F001001C
:101DF0005149683108601DE0A06805280DD14E48A2
:101E00006830006840F004004B49683108600846BB
:101E1000006840F0010008600CE047486830006846
:101E200020F001004449683108600846006820F04D
:101E30000400086000BFA068A8B1FFF753F9054689
:101E400009E0FFF74FF9401B41F28831884202D97F
:101E5000032077E626E0384868300068C0F3400089
:101E60000028EED013E0FFF73DF9054608E0FFF744
:101E700039F9401B41F28831884201D9032061E6DB
:101E80002D4868300068C0F340000028EFD1012FD2
:101E900007D129483830006820F080502649383171
:101EA000086000BFA069002845D02348006800F002
:101EB0000C0008285DD0A069022845D100201F49E8
:101EC0000866FFF70FF9054606E0FFF70BF9401B20
:101ED000022801D9032035E6174808380068C0F306
:101EE00040600028F1D1D4E907010843616A40EA63
:101EF00081110122A06AC2EB500041EA00412C206E
:101F0000005D41EA00600C49091F086001200B498F
:101F10000866FFF7E7F8054606E0FFF7E3F8401B21
:101F2000022801D903200DE6034808380068C0F3F1
:101F300040600028F1D049E00838024000004742E4
:101F4000800E474200700040002021490866FFF7DC
:101F5000C9F8054606E0FFF7C5F8401B022801D97D
:101F60000320EFE51B480068C0F340600028F2D171
:101F70002CE0A069012800D1E4E51648001D0668A0
:101F8000A069012820D006F48001E06981421BD1BC
:101F900006F03F01206A814216D147F6C0703040FA
:101FA000616AB0EB811F0FD106F440310122A06AB3
:101FB000C2EB5000B1EB004F06D106F070612C204F
:101FC000005DB1EB006F01D00120BBE50020B9E559
:101FD00000004742003802407047704710B5044681
:101FE0000CB9012010BD606A38B96068B0F5827F15
:101FF00000D105E00021E16102E000212161616181
:102000000021A16294F85100C8B9002084F8500062
:102010002E48A0652E48E0652E4820662E48606652
:102020002E48A0662E48E0662E4820672E4860673E
:10203000A06F08B92D48A0672046A16F88470220ED
:1020400084F851002068006820F040002168086092
:10205000A08800F48270218901F404410843A18919
:1020600001F400610843217C01F002010843217D55
:1020700001F001010843218B01F400710843217F25
:1020800001F0380108432021095D01F08001084377
:10209000218D01F400510843216808600421A069E2
:1020A00001EA104094F8241001F01001084321685F
:1020B00048602068C06920F400602168C861002081
:1020C0006065012084F8510000208BE73925000865
:1020D000792200083D2500083B2500087B220008E6
:1020E0003F250008DB1F0008D91F0008F120000869
:1020F00010B586B00446142101A8FEF73CF92B491F
:10210000206888424FD100BF002000902848006816
:1021100040F48050264908600846006800F480506A
:10212000009000BF00BF00BF00200090204814387E
:10213000006840F001001E49143908600846006834
:1021400000F00100009000BF00BFA020019002201D
:10215000029000200390032004900520059001A91F
:102160001448FEF7BFFE1448144908604FF0C060E1
:1021700048604021114881600021C1604FF48061B6
:10218000016149004161890081610021C1610162F1
:102190004162FEF7BDFD08B1FEF796FC00BF07489F
:1021A000A064846300BF06B010BD00000030014091
:1021B0004438024000000240586402408C05002070
:1021C00010B5034600242AB9586D40F080005865C8
:1021D000012010BD00BF93F85000012801D102205A
:1021E000F7E7012083F8500000BF93F85100012861
:1021F00023D10A291AD2DFE801F00507090B0D0FD8
:10220000111315179A6517E0DA6515E01A6613E0E1
:102210005A6611E09A660FE0DA660DE01A670BE085
:102220005A6709E09A6707E0DA6705E0586D40F001
:1022300080005865012400BF17E093F8510078B979
:10224000082902D0092904D101E09A6707E0DA677A
:1022500005E0586D40F080005865012400BF04E09F
:10226000586D40F080005865012400BF002083F8BD
:10227000500000BF2046ACE7704770472DE9F84397
:1022800004460F4616461D46FEF72CFF8046B14613
:1022900094F85100012802D00220BDE8F88307B16C
:1022A0000EB90120F9E700BF94F85000012801D1D0
:1022B0000220F2E7012084F8500000BF032084F8D8
:1022C0005100002060652763A686E686A063A0878C
:1022D000E08760642064A068B0F5004F0BD12068EF
:1022E000006820F04000216808602068006840F421
:1022F0008040216808602068006800F040004028A5
:1023000005D02068006840F0400021680860E0685F
:10231000B0F5006F37D1606810B1B9F1010F09D184
:10232000206B00882168C860206B801C2063E08ED1
:10233000401EE08623E02068806800F0020002284A
:102340000AD1206B00882168C860206B801C206344
:10235000E08E401EE08612E0FEF7C4FEA0EB08000F
:10236000A84201D3681C00B94DB9012084F851007E
:1023700000BF002084F8500000BF03208DE7E08EEE
:102380000028D8D136E0606810B1B9F1010F09D149
:10239000206B007821680873206B401C2063E08E5E
:1023A000401EE08623E02068806800F002000228DA
:1023B0000AD1206B007821680873206B401C2063D1
:1023C000E08E401EE08612E0FEF78CFEA0EB0800D7
:1023D000A84201D3681C00B94DB9012084F851000E
:1023E00000BF002084F8500000BF032055E7E08EB6
:1023F0000028D8D142462946204600F0C7FE08B141
:1024000020206065A06850B900BF002000902068BF
:10241000C068009020688068009000BF00BF012065
:1024200084F8510000BF002084F8500000BF606DA8
:1024300008B1012031E700202FE700002DE9F0412D
:1024400004460E46154694F85100012802D0022099
:10245000BDE8F08106B10DB90120F9E700BF94F89D
:102460005000012801D10220F2E7012084F8500039
:1024700000BF032084F85100002060652663A58614
:10248000E586A06360642064A087E087A068B0F55B
:10249000004F0BD12068006820F0400021680860E0
:1024A0002068006840F48040216808601F48A16CE3
:1024B00008641F48A16CC8631E48A16CC864002052
:1024C000A16C0865E38E276807F10C02216BA06CF4
:1024D000FEF794FC50B1606D40F01000606500BFE5
:1024E000002084F8500000BF0120B1E72068006898
:1024F00000F04000402805D02068006840F040000F
:102500002168086000BF002084F8500000BF2068E8
:10251000406840F02000216848602068406840F032
:10252000020021684860002092E70000FD300008AA
:102530000B310008D530000870477047704770476E
:102540007047704710B504460CB9012010BD94F8CF
:102550003D0028B9002084F83C00204600F025F812
:10256000022084F83D00211D206800F037FF012083
:1025700084F8460000BF84F83E0001213F20015549
:10258000402001554120015500BF00BF012084F8C3
:10259000420043200155442001554520015500BF0C
:1025A000012084F83D000020D0E77047014691F8F3
:1025B0003D00012801D001207047022081F83D0034
:1025C0000868C06840F001000B68D8601A4B0868C2
:1025D00098421BD00868B0F1804F17D0174B08689D
:1025E000984213D0164B086898420FD0154B0868D4
:1025F00098420BD0144B0868984207D0134B0868D8
:10260000984203D0124B086898420CD10868806841
:1026100000F00702062A0CD00868006840F00100AC
:102620000B68186005E00868006840F001000B685E
:1026300018600020C0E700000000014000040040D6
:1026400000080040000C0040000401400040014030
:1026500000180040704770B504462068C5682068BF
:10266000066906F00200022819D105F002000228CE
:1026700015D1401F216808610120207720688069FA
:1026800000F0030018B12046FFF7E4FF05E0204604
:1026900000F097F8204600F095F80020207706F02B
:1026A0000400042819D105F00400042815D1C04302
:1026B00021680861022020772068806900F440705A
:1026C00018B12046FFF7C6FF05E0204600F079F874
:1026D000204600F077F80020207706F00800082850
:1026E00019D105F00800082815D1C04321680861F8
:1026F000042020772068C06900F0030018B120464C
:10270000FFF7A8FF05E0204600F05BF8204600F048
:1027100059F80020207706F01000102819D105F094
:102720001000102815D1C0432168086108202077C7
:102730002068C06900F4407018B12046FFF78AFF96
:1027400005E0204600F03DF8204600F03BF8002070
:10275000207706F0010048B105F0010030B16FF0BC
:10276000010021680861204600F02EF806F0800084
:10277000802809D105F08000802805D1C043216858
:1027800008612046FFF7DCFE06F04000402809D132
:1027900005F04000402805D1C0432168086120466B
:1027A00000F01EF806F02000202809D105F02000D6
:1027B000202805D1C043216808612046FFF7C1FEEB
:1027C00070BD70477047000010B50446034920688B
:1027D000884201D1FEF73CFF10BD0000001400400C
:1027E000704710B504460CB9012010BDA06900B1B6
:1027F00000E000BF94F8410028B9002084F84000B0
:10280000204600F029F8242084F841002068C068A0
:1028100020F400502168C860204600F085FE206842
:10282000006920F49040216808612068406920F028
:102830002A00216848612068C06840F4005021687F
:10284000C86000206064202084F8410084F84200C1
:102850000020606300BFC8E710B586B004461421AD
:1028600001A8FDF788FD1B492068884230D100BFD0
:10287000002000901848006840F0100016490860D9
:102880000846006800F01000009000BF00BF00BFC5
:102890000020009010481438006840F001000E49F4
:1028A000143908600846006800F00100009000BF7D
:1028B00000BF4FF4C06001900220029000200390FE
:1028C000032004900720059001A90448FEF70AFBA5
:1028D00006B010BD00100140443802400000024024
:1028E0002DE9F84F04460E46174699464FF0000A68
:1028F00094F84100202850D106B117B90120BDE855
:10290000F88F00206064212084F84100FEF7EAFB84
:102910008246A784E784A068B0F5805F04D120696F
:1029200010B90025B04602E035464FF000081EE021
:102930005346002280212046CDF8009000F00AFF87
:1029400020B1202084F841000320D8E745B9B8F829
:102950000000C0F308002168486008F1020803E0A5
:102960002878216848606D1CE08C401EE084E08C73
:102970000028DDD15346002240212046CDF80090AA
:1029800000F0E8FE20B1202084F841000320B6E7E3
:10299000202084F841000020B1E70220AFE700BF0B
:1029A000FEE7014608684069C0F38020B0B16FF4CB
:1029B00080600A68506100200863202081F83D0093
:1029C000002081F83E00086C40F00400086400BF5D
:1029D000002081F83C0000BF012070470020FCE788
:1029E0002DE9F84304460F4615469946DDE9088669
:1029F0002068006840F480602168086020680068F2
:102A000040F4807021680860434600224FF00111B5
:102A10002046009600F094F860B12068006800F449
:102A20008070B0F5807F02D14FF4007020640320E5
:102A3000BDE8F88307F0FE0021680861334642468E
:102A40003E49204600F0DBF808B10120F0E700BF66
:102A50000020009020684069009020688069009004
:102A600000BF00BF32464146204600F08AF950B10F
:102A7000206C042805D12068006840F400702168AB
:102A800008600120D4E7B9F1010F03D1E8B2216851
:102A9000086117E0C5F30720216808613246414606
:102AA000204600F06EF950B1206C042805D1206852
:102AB000006840F40070216808600120B8E7E8B2BF
:102AC0002168086132464146204600F05AF950B16B
:102AD000206C042805D12068006840F4007021684B
:102AE00008600120A4E72068006840F48070216835
:102AF0000860434600224FF001112046009600F086
:102B00001FF858B12068006800F48070B0F5807F2D
:102B100002D14FF400702064032089E7F8B240F03E
:102B2000010021680861334642460449204600F00E
:102B300066F808B101207BE7002079E70200010078
:102B40002DE9F04104460D4617461E46DDF8188073
:102B500038E0701CA8B3FEF7C5FAA0EB0800B0423D
:102B600000D876BBC5F3074001280AD12068406928
:102B7000A9B20840A9B2884201D101200BE000208F
:102B800009E020688069A9B20840A9B2884201D151
:102B9000012000E00020B84214D100202063202052
:102BA00084F83D00002084F83E00206C40F02000B6
:102BB000206400BF002084F83C0000BF0120BDE875
:102BC000F081FFE7C5F3074001280AD1206840697A
:102BD000A9B20840A9B2884201D101200BE000202F
:102BE00009E020688069A9B20840A9B2884201D1F1
:102BF000012000E00020B842ABD00020DFE72DE943
:102C0000F04104460D4616461F4658E020684069CC
:102C1000C0F38020E8B12068006840F400702168AB
:102C200008606FF4806021684861002020632020E4
:102C300084F83D00002084F83E00206C40F0040041
:102C4000206400BF002084F83C0000BF0120BDE8E4
:102C5000F081701C90B3FEF745FAC01BB04200D85B
:102C600066BBC5F3074001280AD120684069A9B2B4
:102C70000840A9B2884201D101200BE0002009E000
:102C800020688069A9B20840A9B2884201D1012018
:102C900000E0002090B900202063202084F83D004F
:102CA000002084F83E00206C40F02000206400BF2B
:102CB000002084F83C0000BF0120C8E7FFE7C5F30F
:102CC000074001280AD120684069A9B20840A9B28A
:102CD000884201D101200BE0002009E020688069D2
:102CE000A9B20840A9B2884201D1012000E0002029
:102CF00000288BD00020AAE770B504460D46164682
:102D000037E020684069C0F30010A0B16FF01000F8
:102D10002168486100202063202084F83D000020C5
:102D200084F83E00206C206400BF002084F83C0042
:102D300000BF012070BDFEF7D5F9801BA84200D866
:102D4000BDB920684069C0F3801090B900202063AD
:102D5000202084F83D00002084F83E00206C40F0E4
:102D60002000206400BF002084F83C0000BF012048
:102D7000E0E720684069C0F380100028C1D000203F
:102D8000D8E770B504460D46164625E02046FFF705
:102D900008FE08B1012070BD681CE8B1FEF7A2F979
:102DA000801BA84200D8BDB920684069C0F3C0109C
:102DB00090B900202063202084F83D00002084F892
:102DC0003E00206C40F02000206400BF002084F80A
:102DD0003C0000BF0120DEE720684069C0F3C0105E
:102DE0000028D3D00020D6E738B505460C46002091
:102DF000009004226946032000F028F89DF80100A5
:102E00009DF8001001F00F0140EA0120C0F1F00030
:102E100028809DF803009DF8021001F00F0140EAA0
:102E20000120208038BD00000448007820B1002037
:102E300002490870012070470020FCE79400002040
:102E4000012001490870704794000020FEB5044637
:102E50000D4616464FF4FA60012322462B21CDE998
:102E6000005602900148FEF72BFAFEBDB804002080
:102E700008B500BF002000900A48006840F48000B8
:102E8000084908600846006800F48000009000BF10
:102E900000BF002205213B20FEF79CFC3B20FEF7F3
:102EA00085FC08BD3038024010B5044A00210448B2
:102EB0004BF03AFD0349086010BD0000DC0B06082A
:102EC000913000080000002000B587B0142102A84E
:102ED000FDF751FA00BF002001903C48006840F027
:102EE00004003A4908600846006800F004000190B8
:102EF00000BF00BF00BF002001900846006840F0FE
:102F0000800008600846006800F08000019000BF63
:102F100000BF00BF002001900846006840F001009B
:102F200008600846006800F00100019000BF00BF83
:102F300000BF002001900846006840F002000860D1
:102F40000846006800F00200019000BF00BF0022A8
:102F500010211F48FEF7C0F8012240211C48FEF74F
:102F6000BBF8012245F203011A48FEF7B5F85020DC
:102F7000029001200390002004900220059002A9F5
:102F80001348FDF7AFFF45F20300029001200390C4
:102F9000002004900220059002A90E48FDF7A2FF30
:102FA0004FF4005002904FF48810039002200490D8
:102FB00002A90848FDF796FF002205212820FEF708
:102FC00009FC2820FEF7F2FB07B000BD30380240B4
:102FD000000002400004024010B50B480B49086095
:102FE0000B484860002109488160C1604FF480416E
:102FF0000161002141618161C1610162FEF778F8E0
:1030000008B1FDF761FD10BD00580040B804002074
:10301000801A060010B50E480E4908604FF4827001
:10302000486000210B488160C160016141614FF43B
:10303000007181611021C1610021016241628162E0
:103040000A21C162FEF7CAFF08B1FDF73DFD10BDC0
:10305000003001400C05002010B50B480B490860FA
:103060004FF4E1304860002108488160C16001618F
:103070000C21416100218161C161FFF7B2FB08B100
:10308000FDF722FD10BD000000100140EC050020FE
:1030900034F088FD0B4849F0FBFD0B4823F066F83F
:1030A00041F0D0FF41F0FEFF23F066F800BF49F089
:1030B00011FF0446052C00D2052420464BF0DEFB10
:1030C000F5E70000AD05060805F0050800BFFEE7BE
:1030D00000BFFEE770B50546AC6B2068406820F085
:1030E000030021684860606D40F0100060650120B9
:1030F00084F851002046216F884770BD70B50446A2
:10310000A56B2846696E884770BDF8B50546AC6B5F
:10311000FDF7E8FF06462868006800F48070B0F507
:10312000807F2DD02068406820F020002168486012
:103130002068406820F0020021684860324664211F
:10314000204600F023F818B1606D40F02000606563
:10315000A06850B900BF002000902068C0680090AF
:1031600020688068009000BF00BF0020E08601203A
:1031700084F85100606D18B12046216F8847F8BD72
:103180002046A16D884700BFF9E700007CB50446E2
:103190000E4615463346012202212046009500F0D6
:1031A00039F828B1606D40F02000606503207CBDD7
:1031B000164800681821B0FBF1F01549B0FBF1F09A
:1031C0004FF47A71484301906068B0F5827F0DD169
:1031D0003346002280212046009500F01BF898B16C
:1031E000606D40F0200060650320E0E700BF0198BB
:1031F00000B908E00198401E019020688068C0F383
:10320000C0100028F3D100BF0020D0E7100000203C
:1032100040420F002DE9F84F04460D4690461E46E9
:10322000DDF82890FDF75EFFA0EB0900371AFDF7E7
:1032300059FF82462C480068C0F3CB307843009099
:1032400046E0701C002843D0FDF74CFFA0EB0A00BD
:10325000B84200D2A7BB2068406820F0E000216897
:1032600048606068B0F5827F0DD1A068B0F5004F6E
:1032700003D0A068B0F5806F05D12068006820F009
:10328000400021680860A06AB0F5005F0DD100BF62
:103290002068006820F400502168086020680068F9
:1032A00040F400502168086000BF012084F85100FC
:1032B00000BF002084F8500000BF0320BDE8F88F55
:1032C000FFE7009808B9002702E00098401E009030
:1032D000206880682840A84201D1012000E0002039
:1032E0004045AED10020E9E71000002010B54FF0B6
:1032F000E02000695DF04AF9012801D05CF094FB00
:1033000010BD000000B593B0302107A8FDF733F8D9
:10331000142102A8FDF72FF800BF002001902448D7
:10332000006840F08050224908600846006800F0BC
:103330008050019000BF00BF00BF002001901D48D9
:10334000006840F480401B4908600846006800F4AB
:103350008040019000BF00BF01200790000408904A
:1033600002200D9041050E9104210F91A82110918A
:10337000022111910421129107A8FEF7DFFB08B189
:10338000FDF7A2FB0F200290022003900020049082
:103390004FF4A05005904FF480500690052102A8EC
:1033A000FEF76AFA08B1FDF78FFB13B000BD00000D
:1033B00040380240007000400348006840F470004C
:1033C000014908607047000088ED00E010B5024830
:1033D000FFF741F910BD00003406002010B5026867
:1033E0002B4B98420ED0B0F1804F0BD0294B984216
:1033F00008D0294B984205D0284B984202D0284B40
:10340000984203D122F070024B681A43204B984235
:1034100020D0B0F1804F1DD01E4B98421AD01E4BC9
:10342000984217D01D4B984214D01D4B984211D092
:103430001C4B98420ED01C4B98420BD01B4B984211
:1034400008D01B4B984205D01A4B984202D01A4B19
:10345000984203D122F44072CB681A4322F08003D1
:103460004C6943EA04028B68C3620B688362084BB1
:10347000984202D00A4B984201D10B69036303685A
:1034800043F00403036001234361026010BD0000A8
:10349000000001400004004000080040000C004013
:1034A0000004014000400140004401400048014048
:1034B00000180040001C00400020004000BF00BF7A
:1034C00002680C3252E8002F22F4907102680C322C
:1034D00042E80013002BF3D100BF00BF00BF026819
:1034E000143252E8002F22F001010268143242E83F
:1034F0000013002BF3D100BF016B01290ED100BFD7
:1035000000BF02680C3252E8002F22F0100102685E
:103510000C3242E80013002BF3D100BF202180F8C9
:1035200042100021016370472DE9F84F04462068DE
:10353000006920F44050E16808432168086121696E
:10354000A068084361690843E16908430090206866
:10355000C06849F20C618843009908432168C8603B
:103560002068406920F44070A169084321684861DF
:1035700076492068884203D075492068884203D183
:10358000FEF774FA814602E0FEF760FA8146E069D0
:10359000B0F5004F6CD102206168A0FB01500346DA
:1035A0001920A9FB007001462A463846FCF768FE40
:1035B0006421B0FBF1F04FEA001A02206168A0FB21
:1035C00001510B461920A9FB00712A463846FCF729
:1035D00057FE834602206168A0FB01500346192074
:1035E000A9FB00712A463846FCF74AFE6421B0FB6D
:1035F000F1F000EBC00101EB0010ABEB80003221D9
:1036000001EBC0006421B0FBF1F000F0F8000AEB20
:10361000400A02206168A0FB015003461920A9FB63
:10362000007001462A463846FCF72AFE83460220EF
:103630006168A0FB015003461920A9FB00712A46CE
:103640003846FCF71DFE6421B0FBF1F000EBC00131
:1036500001EB0010ABEB8000322101EBC0006421D4
:10366000B0FBF1F000F007005044216888606AE088
:1036700004206168A0FB015003461920A9FB0070DB
:1036800001462A463846FCF7FBFD82460420616865
:10369000A0FB015003461920A9FB007001462A46F1
:1036A0003846FCF7EDFD6421B0FBF1F000EBC00102
:1036B00001EB0010AAEB8000322101EB0010642125
:1036C000B0FBF1F000F0F00A04206168A0FB01708B
:1036D00003461920A9FB00513A462846FCF7D0FDC5
:1036E0006421B0FBF1F00AEB001A04206168A0FB32
:1036F00001510B461920A9FB00712A463846FCF7F8
:10370000BFFD834604206168A0FB015003461920D9
:10371000A9FB007001462A463846FCF7B1FD64213A
:10372000B0FBF1F000EBC00101EB0010ABEB80004F
:10373000322101EB00106421B0FBF1F000F00F002A
:10374000504421688860BDE8F88F000000100140F7
:10375000001401402DE9F84304460D4617469846EB
:10376000089E31E0701C70B3FDF7BCFCA0EB0800B4
:10377000B04200D816B90320BDE8F8832068C068BD
:1037800000F00400F8B1802D1ED0402D1CD0206820
:103790000068C0F3C000B0B100BF002000902068F6
:1037A0000068009020684068009000BF00BF20467D
:1037B000FFF784FE0820606400BF002084F840000A
:1037C00000BF0120D8E7FFE7206800682840A84232
:1037D00001D1012000E00020B842C3D00020CBE797
:1037E00000BFFEE70FB4054B10B503A9044A0298C9
:1037F00000F0D0FE10BC5DF814FB0000215C010855
:10380000B4040020014B024A00F0C4BE215C010850
:10381000B404002002480068C0F302207047000092
:103820000CED00E010B5002804DB0A07130E054A72
:10383000135406E00A07140E034A00F00F031B1F7F
:10384000D45410BD00E400E018ED00E0EFF3058073
:10385000704702E008C8121F08C1002AFAD1704759
:103860007047002001E001C1121F002AFBD1704700
:1038700070B50446002508E02168481C20600878DF
:10388000303805EB850100EB41052168087800F030
:1038900011FD0028F0D1284670BD2DE9F041804689
:1038A0000F4614461D4625B92146404627F06EFABC
:1038B000054605FB07F6142C03D1680800FB0766D4
:1038C00017E0072C15DB0A2C13DC072C01D1022092
:1038D0000DE0082C01D1042009E0092C01D11020B1
:1038E00005E00A2C02D14FF4807000E0002006EBC6
:1038F00080063046BDE8F0812DE9FF5F2DED020B1B
:103900002DED108B90B083461646B0EE408AF0EE57
:10391000608ADDE93079329D53EC182B51EC180B9D
:10392000FCF712FF11D19FEDF10B53EC102B51EC72
:10393000180BFCF721FF08D39FEDEE0B53EC102B77
:1039400051EC180BFCF700FF12D2B0EE480AF0EE73
:10395000680ACDE90079029532465846259B23999D
:1039600000F0D2FA10B0BDEC108B06B0BDE8F09FAD
:103970009FEDE20B53EC102B51EC180BFCF7E4FE1F
:1039800001D2012000E000200F900F9828B151ECE7
:10399000180B81F0004141EC180B05F4806000B970
:1039A00006278DED0C8B40F2FF710D9801EA105047
:1039B000A0F2FF300B90D34ADDE90C011140D24A4E
:1039C0001143CDE90C019DED0C1BB0EE410AF0EE68
:1039D000610A9FEDCE1B53EC112B51EC100BFCF741
:1039E00076FD9FEDCC0B53EC102BFCF776FD41ECF4
:1039F0001C0B0B98FCF752FE9FEDC80B53EC102BE1
:103A0000FCF76BFD9FEDC70B53EC102BFCF7BEFCD6
:103A100053EC1C2BFCF7BAFCFCF75EFE0446204678
:103A2000FCF73CFE9FEDC10B53EC102BFCF755FD52
:103A30009FEDC00B53EC102BFCF7A8FCFCF74CFEE1
:103A40000B900B98FCF72AFE9FEDBC0B53EC102B50
:103A5000FCF743FD41EC1B0B2046FCF71FFE9FEDDE
:103A6000B90B53EC102BFCF738FD53EC1B2BFCF778
:103A70002EFD41EC190B53EC192B51EC190BFCF7F3
:103A80002CFD41EC1A0B0B9800F2FF3000050021D1
:103A9000CDE90C109FEDAD0B53EC102B51EC1A0B34
:103AA000FCF78DFD9FEDAB0B53EC102BCDE9000126
:103AB0009DED000B51EC100BFCF768FC41EC1F0B6B
:103AC00053EC1F2B51EC1A0BFCF779FD9FEDA30B68
:103AD00053EC102BCDE902019DED020B51EC100BC4
:103AE000FCF754FCCDE904019DED040B53EC102BC5
:103AF00051EC1A0BFCF763FD41EC1E0B53EC192B38
:103B00009FED980B51EC100BFCF7E1FC53EC1E2BD6
:103B1000CDE906019DED060B51EC100BFCF736FCD0
:103B200041EC1C0B53EC192B9FED8E0B51EC100B41
:103B3000FCF7D3FC53EC1C2BFCF741FD9FED8B0BEA
:103B400053EC102BFCF722FCCDE908019DED0C1B7A
:103B5000B0EE410AF0EE610A53EC102B9DED081B0C
:103B600051EC110BFCF7B9FCCDE90C019DED0C1BE0
:103B7000B0EE410AF0EE610A53EC102B51EC180B39
:103B8000FCF7E2FD10D2641E9DED0C1BB0EE410A65
:103B9000F0EE610A9FED6F1B53EC112B51EC100BF3
:103BA000FCF70DFDCDE90C01642C04DA14F1640F6F
:103BB00001DD042000E00520804605F4006010B31C
:103BC0009FED6C0B53EC102B51EC180BFCF7D4FD54
:103BD00014D89FED6A0B53EC102B51EC180BFCF72B
:103BE000B3FD0BD2A74202DD381B471E00E00027C1
:103BF00045F480654FF00008002404E01FB105F48F
:103C0000806000B17F1ECA46C14502D9AAEB080AEE
:103C100001E04FF0000A05F0020020B1B8F1000FFA
:103C200001D04FF0000A6CB19DED0C1BB0EE410AC3
:103C3000F0EE610A53EC102B51EC180BFCF7BFFCB3
:103C400041EC180B0A960F9820B151EC180B81F03B
:103C5000004101E051EC180B41EC1B0B25F4006016
:103C6000B0EE4B0AF0EE6B0ACDE9007A02903246D4
:103C70005846259B239900F047F90646B8F1000FF6
:103C800031D03246761C05F0200109B1452100E013
:103C900065210846259B2399D8470521A8F10100F5
:103CA00000220A23CDE90232CDE90401E00F002C05
:103CB00001DA614200E02146CDE900103246584663
:103CC000259B239900F08CFB064605F0020050B1BD
:103CD00005E03246761C2020259B2399D8470A9878
:103CE000301A4845F5D330463CE60000FFFFFFFFA1
:103CF000FFFFEF7FFFFFFFFFFFFFEFFF0000000070
:103D000000000000FFFF0F000000F03F0000000077
:103D10000000F83F61436F63A787D23FFB799F5054
:103D20001344D33FB3C8608B288AC63F71A3790977
:103D30004F930A40000000000000E03FEF39FAFE18
:103D4000422EE63F1655B5BBB16B024000000000A5
:103D500000002C4000000000000024400000000093
:103D600000001840000000000000004000000000BB
:103D70000000F03F2D431CEBE2361A3F000000002C
:103D800080842E412DE9FF5F82B00021DDE90430FF
:103D9000020DDDF840B0034318D044F61050A2F2F3
:103DA000FF3242431514119801281FD0A5EB0B00D8
:103DB000401C5FEA000A4FF000064E4FDFF83891D2
:103DC000B046504615D5CAF1000413E011980124FD
:103DD0004AA3012801D16FEA0B010298119AC0E9A8
:103DE0000031C0E9024206B0BDE8F09FCBF100000F
:103DF000DFE704460021404A491842EB0450CDE970
:103E0000001012E0E00707D032463B4640464946E4
:103E1000FCF763FB8046894632463B46104619460E
:103E2000FCF75BFB06460F466410002CEAD1DDE987
:103E30000401DDE90023BAF1000F06DAFCF74DFBBF
:103E400042464B46FCF749FB05E0FCF7B8FB42460F
:103E50004B46FCF7B4FB04460E460022284BFCF709
:103E60008BFC03D84FF0FF30014607E00022254BC2
:103E700020463146FCF78AFAFCF73AFD102409E0A7
:103E8000002C0ADB0A220023FCF7FAF9039B3032EC
:103E90001A55641E50EA0102F2D1641C039AC4F15F
:103EA00011031444119A012A03D0012208430DD1B1
:103EB0000AE0084304D000204FF0110B119072E784
:103EC000A3EB0B056D1E0DE05B4504DD4FF000021A
:103ED00005F1010504E003DA4FF00002A5F1010548
:103EE000002AECD002981199C0E90231C0E90045DE
:103EF00079E70000000014400000F03F30000000AF
:103F00000000F0430000E03F2DE9FF5F2DED020BC4
:103F10002DED0A8B8CB08346B0EE408AF0EE608ABD
:103F2000DDE92686289D00249FEDCF0BB0EE409A58
:103F3000F0EE609A53EC182B51EC180BFCF704FCD4
:103F400010D00320CAA1CDE90265CDE90010584682
:103F500019A90EC900F0E3FA0CB0BDEC0A8B06B04B
:103F6000BDE8F09F9FEDC30B53EC102B51EC180BE9
:103F7000FCF7EAFB0BD20420C0A1CDE90265CDE934
:103F80000010584619A90EC900F0C9FAE4E79FEDE0
:103F9000BD0B53EC102B51EC180BFCF7EDFB14D2BE
:103FA00005F0040008B1042100E0032105F004003D
:103FB00008B1B6A000E0B7A08DE8430003955846CD
:103FC00019A90EC900F0ABFAC6E79FEDB30B53EC8D
:103FD000102B51EC180BFCF7CFFB08D39FEDB00B67
:103FE00053EC102B51EC180BFCF7AEFB0CD2B0EEDF
:103FF000480AF0EE680ACDE900860295584619A9EC
:104000000EC9FFF779FCA7E74FF0000A9FED960B6A
:1040100053EC102B51EC180BFCF796FB0BD24FF026
:10402000010A53EC182B9FED900B51EC100BFCF791
:104030004EFA41EC180B05F4806008B94FF0060801
:1040400006E030222046641C04A90A54A8F10108A5
:10405000202C02D2B8F1090FF3D851EC180BFCF761
:104060003BFB81464846FCF719FB41EC1C0B53EC2B
:10407000182BFCF72FFA41EC1B0B8B4800EBC80008
:1040800090ED001BB0EE410AF0EE610A53EC102BEC
:1040900051EC1B0BFCF721FA41EC1A0B51EC1A0BFB
:1040A000FCF739FB07463846FCF709FB41EC1B0BD4
:1040B00053EC1A2BFCF70EFA41EC190B9FED7B0B1E
:1040C00053EC102B51EC190BFCF756FB19D27F1C4B
:1040D0003846FCF7F4FA41EC1B0B734800EBC800C0
:1040E00090ED001BB0EE410AF0EE610A53EC102B8C
:1040F00051EC1B0BFCF740FB11D8002709F101091B
:104100000DE09FED6A0B53EC102B51EC190BFCF7F3
:104110001BFB04D317B107F0010000B17F1CB8F1FD
:10412000000F22D14846FCF7B9FA41EC1B0B53ECC7
:10413000182BFCF7CFF941EC190B9FED5C0B53ECFE
:10414000102B51EC190BFCF7FFFA08D29FED570B1F
:1041500053EC102B51EC190BFCF70EFB2FD209F08E
:10416000010060B309F1010929E0404610E0401E5A
:104170000A21B7FBF1F201FB127130312246641CB7
:1041800004AB99540A21B7FBF1F10F1E00D101E0F5
:10419000202CECD300BF04E030232146641C04AA89
:1041A0005354202C03D2011EA0F10100F4D1202C85
:1041B00004D22E232146641C04AA535400BF11E0EC
:1041C0000A2099FBF0F100FB11903030C2B220467A
:1041D000641C04A90A540A2099FBF0F0B0F100090C
:1041E00000D101E0202CEBD300BF05F00200A0B904
:1041F00005F0010088B136B1BAF1000F02D105F027
:104200000C0000B1761E04E030222046641C04A994
:104210000A54B44201D2202CF6D3202C19D2BAF180
:10422000000F05D02D222046641C04A90A5410E07A
:1042300005F0040028B12B222046641C04A90A546E
:1042400007E005F0080020B120222046641C04A9E4
:104250000A5404A88DE851000395584619A90EC9BF
:1042600000F05DF978E600000000000000000000AA
:104270006E616E00FFFFFFFFFFFFEFFF666E692DAF
:1042800000000000FFFFFFFFFFFFEF7F666E692B5E
:1042900000000000666E69000000000065CDCD41A1
:1042A0000000000065CDCDC138C90908000000003C
:1042B0000000E03F0146302903DB392901DC012001
:1042C00070470020FCE72DE9FF4F85B08346DDE90C
:1042D000158ADDE91349DDE91775129E05F0020024
:1042E000F8B94FB105F0010030B1B9F1000F02D1BA
:1042F00005F00C0000B17F1E03E030222046641C54
:104300003254544501D2202CF7D303E0302220460A
:10431000641C325405F0010018B1BC4201D2202CBB
:10432000F4D305F01000B0B305F4806050B94CB17F
:10433000544501D0BC4205D1641E1CB1B8F1100F28
:1043400000D1641EB8F1100F09D105F0200030B97A
:10435000202C04D278222046641C325415E0B8F197
:10436000100F09D105F0200030B1202C04D25822C2
:104370002046641C325408E0B8F1020F05D1202C0D
:1043800003D262222046641C3254202C03D23022F5
:104390002046641C3254202C16D2B9F1000F04D0F0
:1043A0002D222046641C32540EE005F0040020B19A
:1043B0002B222046641C325406E005F0080018B198
:1043C00020222046641C3254CDE90275CDE90064F8
:1043D000584606A90EC900F0A2F809B0BDE8F08F52
:1043E0002DE9FF4F8FB08046DDE91FABDDE91D965B
:1043F000219D1C9C00270CB925F0100505F4806058
:1044000000B1E4B100BFB4FBF6F106FB1141C8B244
:104410000A2802DA00F1300107E005F0200109B1B5
:10442000412100E0612101440A39CBB239467F1CA9
:1044300007AA5354B4FBF6F40CB1202FE3D307A81A
:10444000CDE904AB8DE8810203960695404610A99C
:104450000EC9FFF738FF13B0BDE8F08F2DE9FF4F0D
:104460008FB0DDE9217BDDF89080209EDDE91C45E1
:104470004FF00009002184EA01006940084301D19E
:1044800028F0100808F4806028B1002184EA0100B7
:10449000694008432DD000BF32463B46204629469E
:1044A000FBF7EEFE02F0FF0ABAF10A0F02DA0AF198
:1044B000300007E008F0200008B1412000E0612052
:1044C00050440A38C2B2484609F1010907A90A5402
:1044D00032463B4620462946FBF7D2FE04460D46AF
:1044E000002184EA01006940084302D0B9F1200F9D
:1044F000D2D32398CDE9036BCDE9050807A91E980F
:10450000CDE9001902900FA80FC8FFF7DCFE13B029
:10451000BDE8F08F9A4200D28854704770472DE969
:10452000FF5F05461446DDE90EA6DDE91087A346C8
:1045300007F0020078B907F0010060B9B14607E062
:104540002246641C2020039B0199A84709F1010918
:10455000C145F5D300BF08E02246641C711E0E461B
:104560001AF80100039B0199A847002EF4D107F027
:10457000020050B105E02246641C2020039B0199F3
:10458000A847A4EB0B004045F5D3204604B0BDE896
:10459000F09F00002DE9FF4F95B09B4689460646E7
:1045A00000250FE2252877D100242746F84A01216B
:1045B000059400E0044316F8013F203B01FA03F0A4
:1045C0001042F7D130782A2811D06FF02F033078BD
:1045D000A0F13002092A16D8059A44F0020402EB31
:1045E000820203EB42021044761C0590EFE759F873
:1045F000042B0592002A03DA504244F4005405903B
:1046000044F00204761C30782E2816D116F8010FDB
:1046100044F004042A280DD06FF02F023078A0F166
:104620003003092B09D807EB870302EB4303C718B4
:10463000761CF3E759F8047B761C30786C280FD091
:1046400006DC4C2817D068280DD06A2814D104E065
:10465000742810D07A280FD10DE044F400140AE039
:1046600044F4801401E044F440147278824202D190
:1046700004F58014761C761C307866280BD013DC89
:10468000582877D009DC002875D04528F6D0462870
:10469000F4D047281AD19DE118E0632835D064286A
:1046A00079D0652812D195E1702873D008DC67288D
:1046B000F1D069286FD06E280DD06F2806D1B5E0F3
:1046C00073282CD0752875D0782874D05A4617993D
:1046D00090476D1C75E1C4F30250022809D00328ED
:1046E0000DD0D9F8001004280DD00D6009F104098F
:1046F00067E1D9F80010EA17C1E90052F6E7D9F8E6
:1047000000100D80F2E70D70F0E719F8041B8DF82A
:10471000001000208DF80100EA46012003E059F85E
:1047200004AB4FF0FF3061074FF0000102D40DE001
:1047300008F101018846B9420FDA8045F8DB1AF822
:1047400008100029F4D108E008F1010188468142EF
:10475000FADB1AF808100029F6D105985B46A0EBA1
:10476000080721463846179A00F094FA284400EBCF
:10477000080507E04DE029E10DE01AF8010B5A4663
:1047800017999047B8F10108F7D25B4621463846A1
:10479000179A13E142E00A220092C4F302524FF04A
:1047A000000A022A08D059F804CB032A4FEAEC7118
:1047B0000AD00DE029E02AE009F1070121F0070203
:1047C000F2E802C1914609E00FFA8CFC4FEAEC7165
:1047D000042A03D14FFA8CFC4FEAEC71002907DA66
:1047E0000A460021DCF1000C61EB02012D2202E0FF
:1047F000220504D52B228DF80420012203E0E207D4
:1048000001D02022F7E7904659E00A2102E0102269
:104810000DE010214FF0000A00910BE010224FF044
:10482000000A44F004040827009203E008224FF035
:10483000000A0092C4F30252022A05D059F804CBB0
:104840000021032A08D009E009F1070121F007023D
:10485000F2E802C1914605E01FFA8CFC042A01D15E
:104860000CF0FF0C4FF00008220728D5702806D066
:10487000009B83F0100353EA0A0305D00EE04022A8
:104880008DF80420012208E05CEA010206D0302203
:104890008DF804208DF8050002229046009B83F0DD
:1048A000080353EA0A030AD15CEA010201D1620754
:1048B00005D530228DF804204FF001087F1E5828BE
:1048C00004D034A003900EA802900DE036A0F9E7C2
:1048D00053466046009AFBF7D3FC84460398825CFB
:1048E0000298401E029002705CEA0100F0D102982A
:1048F00006A9081A00F1200A600702D524F48034C2
:1049000000E00127574502DDA7EB0A0000E0002088
:1049100000EB0A01009005984144401A0590E0031D
:1049200006D45B462146179A059800F0B3F9054472
:10493000002706E001A85A46C05D179990476D1CF4
:104940007F1C4745F6DBE0030CD55B462146179AF2
:10495000059800F09FF9054404E030205A46179965
:1049600090476D1C0099481E00900029F5DC08E076
:10497000029802995A460078491C0291179990476B
:104980006D1CBAF10001AAF1010AF1DC65E1000039
:104990000928010030313233343536373839616215
:1049A00063646566000000003031323334353637D9
:1049B00038394142434445460000000000F058F9B0
:1049C0000544761C307800287FF4ECAD19B02846F9
:1049D000BDE8F08F620700D4062709F1070222F034
:1049E000070CFCE80223E14603F000485FEA080CEC
:1049F00002D00FF2702C0DE05FEA045C02D50FF2DA
:104A0000682C07E05FEAC47C02D00FF2602C01E062
:104A1000AFF2700C4FF0FF3823F00043CDF850C0D8
:104A200065280CD006DC452809D046281DD047282B
:104A30003DD13DE0662818D067287ED138E00021BE
:104A4000112F01DB112000E0781CCDE9000106A93F
:104A50000EA8FFF797F9DDE90F010E9A03910021E7
:104A6000009207F1010A04914DE04FF000400097D9
:104A7000CDE9011006A90EA8FFF784F9DDE90F02C0
:104A800003920E9B11990022DDF80CA00093049272
:104A900011B9791C00EB010AB7EB0A0004D4C0F18C
:104AA000FF3007F1010A0490AAEB0700019044E0EF
:104AB000012F00DA01270021112F01DD112000E074
:104AC0003846CDE9000106A90EA8FFF75BF9DDE93C
:104AD0000F010E9A0391002104910092BA4621071A
:104AE0000CD40399514500DA8A46BAF1010F05DD6D
:104AF000009AAAF10101515C302908D0B84202DACB
:104B000010F1040F06DA0121CDE9011015E0AAF138
:104B10000101E9E7002805DC049901440491AAEBAE
:104B2000000102E0411C514500DD8A460499401A0B
:104B3000401C01904FF000400290200704D40198DF
:104B4000504501DBCDF8048000208DF84F0002981D
:104B50000DF14F07B0F1004F25D02B200E90029899
:104B60004FF0020800280CDA404202902D200E90EF
:104B700007E00A210298FBF717FE3031029007F890
:104B8000011DB8F10001A8F10108F2DC029800282B
:104B9000EFD1791E0E980870307800F0200040F0B8
:104BA000450007F8020D12A8C01B00F10708149871
:104BB000007800B1012000EB0A01019801EBE071DF
:104BC00005984144401A401E0590E00306D45B4618
:104BD0002146179A059800F05DF80544149800786E
:104BE00018B15A46179990476D1CE00324D55B46CF
:104BF0002146179A059800F04DF805441CE00498EA
:104C0000002807DBDDE90301884203DD0098405CF2
:104C1000179901E0179930205A469047049805F1FA
:104C20000105401C04900198401E019004D12E20E3
:104C30005A46179990476D1CBAF10001AAF1010A72
:104C4000DDDC05E017F8010B5A46179990476D1CFB
:104C5000B8F10001A8F10108F4DC5B462146179A7F
:104C60000598ABE62D0000002B000000200000009E
:104C70002DE9F041044600251E461746880404D459
:104C800005E039462020B0476D1C641EF9D5284642
:104C9000BDE8F0812DE9F041044600251E4690460E
:104CA000C80301D5302700E02027880404D505E09B
:104CB00041463846B0476D1C641EF9D52846BDE80C
:104CC000F08100002DE9FE4304460D46904626463D
:104CD00000BF002E0ED11FA022A125A22C4BCDE992
:104CE000002102904FF499722AA1032035F0F6FEBC
:104CF00000BFFEE700BF00BF002D0ED115A034A1FC
:104D00001BA2234BCDE90021029040F2331221A1D6
:104D1000032035F0E3FE00BFFEE700BF06B115B982
:104D20000020BDE8FE8342462946304601F022FDC0
:104D300007460FB90020F4E7616838691EF08EF865
:104D400081462846316C8847E1680844E06048465F
:104D5000E7E700004E554C4C20706F696E74657229
:104D6000000000006C727520213D204E554C4C0017
:104D70004173736572746564206174206578707224
:104D8000657373696F6E3A20257320282573290097
:104D9000A3BB09082E2E2F4D6964646C6577617280
:104DA00065732F6C76676C2F7372632F6D697363F5
:104DB0002F63616368652F636C6173732F6C765F1B
:104DC00063616368655F6C72755F72622E63000079
:104DD0006B657920213D204E554C4C002DE9FF5F3D
:104DE00007460E46154698463246294668461BF049
:104DF00083F820B301986968411A0E9800FB017985
:104E000000982968401A8144009840443168A0EB1A
:104E1000010A68461BF05DF8834600240CE01AF88E
:104E2000041019F804208818FF2801D9FF2100E098
:104E300001460AF80410641C5C45F0D300BFBDE8CD
:104E4000FF9F2DE9F04104460E46002774B131461C
:104E5000204601F0B7FB0546B5F5803F05D20C2D85
:104E600001D9284600E00C20074600BF3846BDE8BF
:104E7000F0812DE9F04F87B00646D6F804B0B0684F
:104E8000069096F82180D6F80090F0680590D6F844
:104E900018A0F069049037697069039001A820F0A8
:104EA0008FFF96F8220000287BD10FBBB8F1FD0FD1
:104EB0001EDB002518E0002409E009EB44010AEBA1
:104EC0004400008801AA009020F0DCF9641C5C45D5
:104ED000F3DB484605990FF02BFD814650460499B7
:104EE0000FF026FD82466D1C06988542E3DBC2E08A
:104EF0004FBBB8F1FD0F26DA002520E0002411E0B9
:104F00000AEB4400008800909DF8010000FB08F0C7
:104F100000128DF8010009EB440101AA009820F06D
:104F2000B1F9641C5C45EBDB484605990FF000FDC8
:104F30008146504604990FF0FBFC82466D1C069892
:104F40008542DBDB97E06FB3B8F1FD0F2BDB00256B
:104F500023E0002412E00AEB4400008800909DF852
:104F60000100395D10FB01F000128DF8010009EB22
:104F7000440101AA009820F085F9641C5C45EADB35
:104F8000484605990FF0D4FC8146504604990FF02D
:104F9000CFFC8246039807446D1C06988542D8DBF7
:104FA00069E031E0FFE7002F65D0B8F1FD0F62DA6C
:104FB000002525E0002414E00AEB4400008800905E
:104FC0009DF80100395D10FB01F000FB08F00014B2
:104FD0008DF8010009EB440101AA009820F052F974
:104FE000641C5C45E8DB484605990FF0A1FC81464E
:104FF000504604990FF09CFC8246039807446D1CB0
:1050000006988542D6DB36E0002531E000241FE01B
:105010000AEB4400008800903FB99DF8010000FBB6
:1050200008F000128DF8010009E09DF80100395DDB
:1050300010FB01F000FB08F000148DF8010096F859
:10504000222009EB440001AB009905F0BBF9641C78
:105050005C45DDDB0FB103980744484605990FF026
:1050600067FC8146504604990FF062FC82466D1C35
:1050700006988542CADB07B0BDE8F08F2DE9F04FF6
:105080008BB0074678680A90B868099097F821A015
:10509000D7F800B0F8680890BE69F8690790D7F8AB
:1050A00010807869069097F8220000287ED1B8F128
:1050B000000F26D1BAF1FD0F23DB00251DE04FF0D4
:1050C000000900240BE006EB44035A780BEB89013E
:1050D00016F8140020F04DFC09F10109641C0A982F
:1050E0008442F0DB584608990FF025FC8346304691
:1050F00007990FF020FC06466D1C09988542DEDBFF
:10510000E1E0B8F1000F29D1BAF1FD0F26DA002550
:1051100020E04FF0000900240EE006EB44035B782A
:1051200003FB0AF31A120BEB890116F8140020F0A6
:1051300020FC09F10109641C0A988442EDDB584601
:1051400008990FF0F8FB8346304607990FF0F3FB00
:1051500006466D1C09988542DBDBB4E0B8F1000F10
:105160002FD0BAF1FD0F2CDB002526E04FF000090F
:10517000002410E006EB44035B7818F804C013FB2E
:105180000CF31A120BEB890116F8140020F0F1FB56
:1051900009F10109641C0A988442EBDB584608991E
:1051A0000FF0C9FB83463046079900E03CE00FF062
:1051B000C2FB0646069880446D1C09988542D5DBE3
:1051C00081E0B8F1000F7ED0BAF1FD0F7BDA002547
:1051D00026E04FF00009002412E006EB44035B7860
:1051E00018F804C013FB0CF303FB0AF31A140BEBBF
:1051F000890116F8140020F0BCFB09F10109641CB8
:105200000A988442E9DB584608990FF094FB8346DC
:10521000304607990FF08FFB0646069880446D1CB8
:1052200009988542D5DB4EE001A820F0DBFD002582
:1052300045E04FF0000900242EE016F814008DF828
:10524000160016F814008DF8150016F814008DF8E5
:105250001400B8F1000F08D106EB4400407800FBC1
:105260000AF000128DF817000BE006EB44004078BE
:1052700018F8091010FB01F000FB0AF000148DF87B
:10528000170097F822200BEB890001AB059905F078
:105290000FF909F10109641C0A988442CDDBB8F1C9
:1052A000000F01D006988044584608990FF043FB40
:1052B0008346304607990FF03EFB06466D1C099861
:1052C0008542B6DB00BF0BB0BDE8F08F2DE9F04F93
:1052D00087B08046D8F804000690D8F808000590FA
:1052E00098F821B0D8F800000490D8F80C0003908A
:1052F000D8F81870D8F81C000290D8F810A0D8F888
:1053000014000190D8F82400C11700EB5171C910A6
:10531000A0EBC10998F8220000287DD1BAF1000F56
:105320003BD1BBF1FD0F38DB002632E00025002425
:1053300021E005EB0901049810F082FDC0EB00208C
:10534000C0B2009007EB44014A7817F81400694690
:1053500020F034FB9DF800007F2805DD05EB0901F6
:10536000049852F005FE04E005EB0901049808F0EA
:1053700003FD6D1C641C06988442DADBDDE9031032
:105380000FF0DFFA0490384602990FF0DAFA074678
:10539000761C05988642C9DB1BE1BAF1000F40D1AB
:1053A000BBF1FD0F3DDA002635E00025002424E0A6
:1053B00005EB0901049810F043FDC0EB0020C0B2DA
:1053C000009007EB4401497801FB0BF10A1217F832
:1053D0001400694620F0F2FA9DF800007F2805DDF0
:1053E00005EB0901049852F0C3FD04E005EB090147
:1053F000049808F0C1FC6D1C641C06988442D7DB3D
:10540000DDE903100FF09DFA0490384602990FF081
:1054100098FA0746761C00E091E005988642C4DBC6
:10542000D7E0BAF1000F42D0BBF1FD0F3FDB002601
:1054300039E00025002426E005EB0901049810F06E
:10544000FFFCC0EB0020C0B2009007EB440149789C
:105450001AF8043011FB03F10A1217F81400694618
:1054600020F0ACFA9DF800007F2805DD05EB09016E
:10547000049852F07DFD04E005EB0901049808F062
:105480007BFC6D1C641C06988442D5DBDDE90310AF
:105490000FF057FA0490384602990FF052FA074677
:1054A00001988244761C05988642C2DB91E0BAF1ED
:1054B000000FB5D0BBF1FD0FB2DA00263BE00025AE
:1054C000002428E005EB0901049810F0B9FCC0EBBA
:1054D0000020C0B2009007EB440149781AF804306C
:1054E00011FB03F101FB0BF10A1417F814006946D4
:1054F00020F064FA9DF800007F2805DD05EB090126
:10550000049852F035FD04E005EB0901049808F019
:1055100033FC6D1C641C06988442D3DBDDE9031068
:105520000FF00FFA0490384602990FF00AFA074676
:1055300001988244761C05988642C0DB49E000262B
:1055400043E0002500242DE017F814008DF8020038
:1055500017F814008DF8010017F814008DF80000FA
:10556000BAF1000F08D107EB4400407800FB0BF0C4
:1055700000128DF803000BE007EB440040781AF8A6
:10558000041010FB01F000FB0BF000148DF8030079
:1055900098F8223005EB0901009A049805F074F898
:1055A0006D1C641C06988442CEDBBAF1000F01D05A
:1055B00001988244DDE903100FF0C3F904903846E6
:1055C00002990FF0BEF90746761C05988642B8DBB3
:1055D00000BF07B0BDE8F08F2DE9F04F87B0064659
:1055E00070680690B068059096F821A0D6F800B0D3
:1055F000F0680490B769F0690390D6F8108070697C
:10560000029096F8220000287ED1B8F1000F26D132
:10561000BAF1FD0F23DB00251DE04FF00009002447
:105620000BE007EB44035A780BEB090117F8140061
:1056300020F0D7F909F10109641C06988442F0DBD7
:10564000584604990FF080F98346384603990FF0C5
:105650007BF907466D1C05988542DEDBD2E0B8F188
:10566000000F29D1BAF1FD0F26DA002520E04FF016
:10567000000900240EE007EB44035B7803FB0AF308
:105680001A120BEB090117F8140020F0AAF909F11E
:105690000109641C06988442EDDB584604990FF01A
:1056A00053F98346384603990FF04EF907466D1CAF
:1056B00005988542DBDBA5E0B8F1000F2FD0BAF1E9
:1056C000FD0F2CDB002526E04FF00009002410E040
:1056D00007EB44035B7818F804C013FB0CF31A12B1
:1056E0000BEB090117F8140020F07BF909F101090F
:1056F000641C06988442EBDB584604990FF024F9A9
:1057000083463846039900E03CE00FF01DF9074658
:10571000029880446D1C05988542D5DB72E0B8F193
:10572000000F6FD0BAF1FD0F6CDA002526E04FF0C4
:105730000009002412E007EB44035B7818F804C06A
:1057400013FB0CF303FB0AF31A140BEB090117F814
:10575000140020F046F909F10109641C06988442FE
:10576000E9DB584604990FF0EFF883463846039971
:105770000FF0EAF80746029880446D1C05988542B0
:10578000D5DB3FE0002539E04FF00009002422E09E
:1057900017F814008DF8060017F814008DF80500AE
:1057A00017F814008DF80400B8F1000F02D18DF83D
:1057B00007A006E018F8090000FB0AF000128DF8B7
:1057C000070096F822200BEB0900019904F0F8FF7E
:1057D00009F10109641C06988442D9DBB8F1000F75
:1057E00001D002988044584604990FF0ADF88346E2
:1057F000384603990FF0A8F807466D1C05988542B6
:10580000C2DB00BF07B0BDE8F08F00002DE9F14F0B
:105810008AB00A98406809900A98806808900A98A7
:1058200090F8210007900A9806680A98C0680690C8
:105830000A98D0F818A00A98C06905900A98D0F87C
:1058400010B00A98406904900A9890F82200002845
:105850007ED1BBF1000F28D10798FD2825DB4FF042
:1058600000091EE0002400270CE00AEB47035A78E9
:1058700036F814101AF817001FF0F4FF26F8140079
:10588000641C7F1C09988442EFDB304606990FF0B8
:105890005EF80646504605990FF059F8824609F120
:1058A000010908988145DDDB04E2BBF1000F2BD133
:1058B0000798FD2828DA4FF0000921E0002400278E
:1058C0000FE00AEB47035B78079D6B431A1236F82B
:1058D00014101AF817001FF0C5FF26F81400641CF6
:1058E0007F1C09988442ECDB304606990FF02FF8B4
:1058F0000646504605990FF02AF8824609F101093B
:1059000008988145DADBD5E1BBF1000F31D007986B
:10591000FD282EDB4FF0000927E00024002711E0CE
:105920000AEB47035B781BF8045013FB05F31A12CC
:1059300036F814101AF817001FF094FF26F8140018
:10594000641C7F1C09988442EADB3046069900E01B
:1059500044E00EF0FCFF0646504605990EF0F7FFB6
:1059600082460498834409F1010908988145D4DBF3
:10597000A0E1BBF1000F97D00798FD2894DA4FF013
:10598000000927E00024002713E00AEB47035B78B7
:105990001BF8045013FB05F3079D6B431A1436F8EC
:1059A00014101AF817001FF05DFF26F81400641C8D
:1059B0007F1C09988442E8DB304606990EF0C7FF49
:1059C0000646504605990EF0C2FF8246049883446D
:1059D00009F1010908988145D4DB6BE100200390AF
:1059E000814662E135460024002749E11AF8170094
:1059F0004FEAE0081AF81700801002900A9890F811
:105A00002200012806D002283DD0032878D004289F
:105A10006FD198E035F8140008EBD0201F2804DA85
:105A200035F8140008EBD02000E01F204FF6FF717E
:105A300001EAC020039035F81400C0F34511029824
:105A400008443F2806DA35F81400C0F345110298DF
:105A5000084400E03F20039901EB401080B203901E
:105A600015F8140000F01F0040441F2805DA15F84F
:105A7000140000F01F00404400E01F200399084478
:105A800080B20390B7E035F81400C8EBD0200028AE
:105A900004DD35F81400C8EBD02000E000204FF6FC
:105AA000FF7101EAC020039035F81400C0F34511DE
:105AB0000298081A002806DD35F81400C0F34511D5
:105AC0000298081A00E00020039901EB401080B210
:105AD000039015F8140000F01F00A0EB0800002848
